ARM GAS  /tmp/ccPryv9I.s 			page 1


   1              		.syntax unified
   2              		.cpu cortex-m3
   3              		.fpu softvfp
   4              		.eabi_attribute 20, 1
   5              		.eabi_attribute 21, 1
   6              		.eabi_attribute 23, 3
   7              		.eabi_attribute 24, 1
   8              		.eabi_attribute 25, 1
   9              		.eabi_attribute 26, 1
  10              		.eabi_attribute 30, 2
  11              		.eabi_attribute 34, 1
  12              		.eabi_attribute 18, 4
  13              		.thumb
  14              		.file	"chheap.c"
  15              		.text
  16              	.Ltext0:
  17              		.cfi_sections	.debug_frame
  18              		.section	.text._heap_init,"ax",%progbits
  19              		.align	2
  20              		.p2align 4,,15
  21              		.global	_heap_init
  22              		.thumb
  23              		.thumb_func
  24              		.type	_heap_init, %function
  25              	_heap_init:
  26              	.LFB7:
  27              		.file 1 "../../../os/kernel/src/chheap.c"
  28              		.loc 1 75 0
  29              		.cfi_startproc
  30              		@ args = 0, pretend = 0, frame = 0
  31              		@ frame_needed = 0, uses_anonymous_args = 0
  32              		@ link register save eliminated.
  33              		.loc 1 76 0
  34 0000 044B     		ldr	r3, .L2
  35 0002 0549     		ldr	r1, .L2+4
  36              		.loc 1 77 0
  37 0004 0022     		movs	r2, #0
  38              		.loc 1 80 0
  39 0006 03F11000 		add	r0, r3, #16
  40              		.loc 1 76 0
  41 000a 1960     		str	r1, [r3]
  42              		.loc 1 77 0
  43 000c 9A60     		str	r2, [r3, #8]
  44              		.loc 1 78 0
  45 000e DA60     		str	r2, [r3, #12]
  46              		.loc 1 80 0
  47 0010 FFF7FEBF 		b	chMtxInit
  48              	.LVL0:
  49              	.L3:
  50              		.align	2
  51              	.L2:
  52 0014 00000000 		.word	.LANCHOR0
  53 0018 00000000 		.word	chCoreAlloc
  54              		.cfi_endproc
  55              	.LFE7:
  56              		.size	_heap_init, .-_heap_init
  57 001c AFF30080 		.section	.text.chHeapInit,"ax",%progbits
ARM GAS  /tmp/ccPryv9I.s 			page 2


  58              		.align	2
  59              		.p2align 4,,15
  60              		.global	chHeapInit
  61              		.thumb
  62              		.thumb_func
  63              		.type	chHeapInit, %function
  64              	chHeapInit:
  65              	.LFB8:
  66              		.loc 1 99 0
  67              		.cfi_startproc
  68              		@ args = 0, pretend = 0, frame = 0
  69              		@ frame_needed = 0, uses_anonymous_args = 0
  70              	.LVL1:
  71 0000 70B5     		push	{r4, r5, r6, lr}
  72              		.cfi_def_cfa_offset 16
  73              		.cfi_offset 4, -16
  74              		.cfi_offset 5, -12
  75              		.cfi_offset 6, -8
  76              		.cfi_offset 14, -4
  77              		.loc 1 99 0
  78 0002 1646     		mov	r6, r2
  79              		.loc 1 102 0
  80 0004 4A07     		lsls	r2, r1, #29
  81              	.LVL2:
  82              		.loc 1 99 0
  83 0006 0C46     		mov	r4, r1
  84 0008 0546     		mov	r5, r0
  85              		.loc 1 102 0
  86 000a 01D1     		bne	.L5
  87              		.loc 1 102 0 is_stmt 0 discriminator 2
  88 000c 7307     		lsls	r3, r6, #29
  89 000e 02D0     		beq	.L6
  90              	.L5:
  91              		.loc 1 102 0 discriminator 1
  92 0010 0748     		ldr	r0, .L11
  93              	.LVL3:
  94 0012 FFF7FEFF 		bl	chDbgPanic
  95              	.LVL4:
  96              	.L6:
  97              		.loc 1 104 0 is_stmt 1
  98 0016 0023     		movs	r3, #0
  99              		.loc 1 108 0
 100 0018 083E     		subs	r6, r6, #8
 101              	.LVL5:
 102              		.loc 1 105 0
 103 001a AC60     		str	r4, [r5, #8]
 104              		.loc 1 104 0
 105 001c 2B60     		str	r3, [r5]
 106              	.LVL6:
 107              		.loc 1 106 0
 108 001e EB60     		str	r3, [r5, #12]
 109              		.loc 1 107 0
 110 0020 84E84800 		stmia	r4, {r3, r6}
 111              	.LVL7:
 112              		.loc 1 110 0
 113 0024 05F11000 		add	r0, r5, #16
 114              		.loc 1 114 0
ARM GAS  /tmp/ccPryv9I.s 			page 3


 115 0028 BDE87040 		pop	{r4, r5, r6, lr}
 116              	.LVL8:
 117              		.loc 1 110 0
 118 002c FFF7FEBF 		b	chMtxInit
 119              	.LVL9:
 120              	.L12:
 121              		.align	2
 122              	.L11:
 123 0030 00000000 		.word	.LC0
 124              		.cfi_endproc
 125              	.LFE8:
 126              		.size	chHeapInit, .-chHeapInit
 127 0034 AFF30080 		.section	.text.chHeapAlloc,"ax",%progbits
 127      AFF30080 
 127      AFF30080 
 128              		.align	2
 129              		.p2align 4,,15
 130              		.global	chHeapAlloc
 131              		.thumb
 132              		.thumb_func
 133              		.type	chHeapAlloc, %function
 134              	chHeapAlloc:
 135              	.LFB9:
 136              		.loc 1 132 0
 137              		.cfi_startproc
 138              		@ args = 0, pretend = 0, frame = 0
 139              		@ frame_needed = 0, uses_anonymous_args = 0
 140              	.LVL10:
 141 0000 F8B5     		push	{r3, r4, r5, r6, r7, lr}
 142              		.cfi_def_cfa_offset 24
 143              		.cfi_offset 3, -24
 144              		.cfi_offset 4, -20
 145              		.cfi_offset 5, -16
 146              		.cfi_offset 6, -12
 147              		.cfi_offset 7, -8
 148              		.cfi_offset 14, -4
 149              		.loc 1 136 0
 150 0002 1E4E     		ldr	r6, .L28
 151              		.loc 1 138 0
 152 0004 0731     		adds	r1, r1, #7
 153              	.LVL11:
 154              		.loc 1 136 0
 155 0006 0028     		cmp	r0, #0
 156 0008 18BF     		it	ne
 157 000a 0646     		movne	r6, r0
 158              	.LVL12:
 159              		.loc 1 140 0
 160 000c 06F11000 		add	r0, r6, #16
 161              		.loc 1 138 0
 162 0010 21F00705 		bic	r5, r1, #7
 163              	.LVL13:
 164              		.loc 1 139 0
 165 0014 06F10804 		add	r4, r6, #8
 166              	.LVL14:
 167              		.loc 1 140 0
 168 0018 FFF7FEFF 		bl	chMtxLock
 169              	.LVL15:
ARM GAS  /tmp/ccPryv9I.s 			page 4


 170              		.loc 1 142 0
 171 001c 03E0     		b	.L15
 172              	.LVL16:
 173              	.L20:
 174              		.loc 1 144 0
 175 001e 5A68     		ldr	r2, [r3, #4]
 176 0020 9542     		cmp	r5, r2
 177 0022 11D9     		bls	.L27
 178 0024 1C46     		mov	r4, r3
 179              	.LVL17:
 180              	.L15:
 181              		.loc 1 142 0 discriminator 1
 182 0026 2368     		ldr	r3, [r4]
 183              	.LVL18:
 184 0028 002B     		cmp	r3, #0
 185 002a F8D1     		bne	.L20
 186              		.loc 1 167 0
 187 002c FFF7FEFF 		bl	chMtxUnlock
 188              	.LVL19:
 189              		.loc 1 171 0
 190 0030 3368     		ldr	r3, [r6]
 191 0032 0BB3     		cbz	r3, .L22
 192              		.loc 1 172 0
 193 0034 05F10800 		add	r0, r5, #8
 194 0038 9847     		blx	r3
 195              	.LVL20:
 196              		.loc 1 173 0
 197 003a E8B1     		cbz	r0, .L22
 198              		.loc 1 174 0
 199 003c 0660     		str	r6, [r0]
 200              		.loc 1 175 0
 201 003e 4560     		str	r5, [r0, #4]
 202              	.LVL21:
 203              		.loc 1 177 0
 204 0040 00F10804 		add	r4, r0, #8
 205              	.LVL22:
 206              	.L19:
 207              		.loc 1 181 0
 208 0044 2046     		mov	r0, r4
 209 0046 F8BD     		pop	{r3, r4, r5, r6, r7, pc}
 210              	.LVL23:
 211              	.L27:
 212              		.loc 1 145 0
 213 0048 05F10801 		add	r1, r5, #8
 214 004c 9142     		cmp	r1, r2
 215 004e 08D9     		bls	.L17
 216              		.loc 1 149 0
 217 0050 1A68     		ldr	r2, [r3]
 218 0052 2260     		str	r2, [r4]
 219              	.L18:
 220              		.loc 1 159 0
 221 0054 1C46     		mov	r4, r3
 222              	.LVL24:
 223 0056 44F8086B 		str	r6, [r4], #8
 224              		.loc 1 161 0
 225 005a FFF7FEFF 		bl	chMtxUnlock
 226              	.LVL25:
ARM GAS  /tmp/ccPryv9I.s 			page 5


 227              		.loc 1 181 0
 228 005e 2046     		mov	r0, r4
 229 0060 F8BD     		pop	{r3, r4, r5, r6, r7, pc}
 230              	.LVL26:
 231              	.L17:
 232              		.loc 1 155 0
 233 0062 6FF00700 		mvn	r0, #7
 234              		.loc 1 154 0
 235 0066 1F68     		ldr	r7, [r3]
 236              		.loc 1 155 0
 237 0068 401B     		subs	r0, r0, r5
 238 006a 1044     		add	r0, r0, r2
 239              		.loc 1 153 0
 240 006c 5A18     		adds	r2, r3, r1
 241              	.LVL27:
 242              		.loc 1 154 0
 243 006e 5F50     		str	r7, [r3, r1]
 244              		.loc 1 155 0
 245 0070 5060     		str	r0, [r2, #4]
 246              		.loc 1 156 0
 247 0072 2260     		str	r2, [r4]
 248              		.loc 1 157 0
 249 0074 5D60     		str	r5, [r3, #4]
 250 0076 EDE7     		b	.L18
 251              	.LVL28:
 252              	.L22:
 253              		.loc 1 180 0
 254 0078 0024     		movs	r4, #0
 255              	.LVL29:
 256 007a E3E7     		b	.L19
 257              	.L29:
 258              		.align	2
 259              	.L28:
 260 007c 00000000 		.word	.LANCHOR0
 261              		.cfi_endproc
 262              	.LFE9:
 263              		.size	chHeapAlloc, .-chHeapAlloc
 264              		.section	.text.chHeapFree,"ax",%progbits
 265              		.align	2
 266              		.p2align 4,,15
 267              		.global	chHeapFree
 268              		.thumb
 269              		.thumb_func
 270              		.type	chHeapFree, %function
 271              	chHeapFree:
 272              	.LFB10:
 273              		.loc 1 194 0
 274              		.cfi_startproc
 275              		@ args = 0, pretend = 0, frame = 0
 276              		@ frame_needed = 0, uses_anonymous_args = 0
 277              	.LVL30:
 278 0000 F8B5     		push	{r3, r4, r5, r6, r7, lr}
 279              		.cfi_def_cfa_offset 24
 280              		.cfi_offset 3, -24
 281              		.cfi_offset 4, -20
 282              		.cfi_offset 5, -16
 283              		.cfi_offset 6, -12
ARM GAS  /tmp/ccPryv9I.s 			page 6


 284              		.cfi_offset 7, -8
 285              		.cfi_offset 14, -4
 286              		.loc 1 198 0
 287 0002 0746     		mov	r7, r0
 288 0004 0028     		cmp	r0, #0
 289 0006 57D0     		beq	.L44
 290              	.LVL31:
 291              	.L31:
 292              		.loc 1 201 0
 293 0008 57F8086C 		ldr	r6, [r7, #-8]
 294              		.loc 1 200 0
 295 000c A7F10805 		sub	r5, r7, #8
 296              	.LVL32:
 297              		.loc 1 203 0
 298 0010 06F11000 		add	r0, r6, #16
 299 0014 FFF7FEFF 		bl	chMtxLock
 300              	.LVL33:
 301              		.loc 1 202 0
 302 0018 0836     		adds	r6, r6, #8
 303              	.LVL34:
 304 001a 3446     		mov	r4, r6
 305              	.LVL35:
 306              	.L39:
 307              		.loc 1 206 0
 308 001c AC42     		cmp	r4, r5
 309 001e 04D8     		bhi	.L32
 310              		.loc 1 206 0 is_stmt 0 discriminator 1
 311 0020 6368     		ldr	r3, [r4, #4]
 312 0022 0833     		adds	r3, r3, #8
 313 0024 2344     		add	r3, r3, r4
 314 0026 9D42     		cmp	r5, r3
 315 0028 0BD3     		bcc	.L45
 316              	.L32:
 317              		.loc 1 210 0 is_stmt 1
 318 002a B442     		cmp	r4, r6
 319 002c 0ED0     		beq	.L33
 320              	.L46:
 321              		.loc 1 210 0 is_stmt 0 discriminator 2
 322 002e AC42     		cmp	r4, r5
 323 0030 0CD3     		bcc	.L33
 324 0032 2468     		ldr	r4, [r4]
 325              	.LVL36:
 326              		.loc 1 206 0 is_stmt 1
 327 0034 AC42     		cmp	r4, r5
 328 0036 F8D8     		bhi	.L32
 329 0038 6368     		ldr	r3, [r4, #4]
 330 003a 0833     		adds	r3, r3, #8
 331 003c 2344     		add	r3, r3, r4
 332 003e 9D42     		cmp	r5, r3
 333 0040 F3D2     		bcs	.L32
 334              	.L45:
 335              		.loc 1 206 0 is_stmt 0 discriminator 1
 336 0042 1F48     		ldr	r0, .L49
 337 0044 FFF7FEFF 		bl	chDbgPanic
 338              	.LVL37:
 339              		.loc 1 210 0 is_stmt 1 discriminator 1
 340 0048 B442     		cmp	r4, r6
ARM GAS  /tmp/ccPryv9I.s 			page 7


 341 004a F0D1     		bne	.L46
 342              	.L33:
 343              		.loc 1 211 0 discriminator 1
 344 004c 2368     		ldr	r3, [r4]
 345              		.loc 1 210 0 discriminator 1
 346 004e 1BB1     		cbz	r3, .L35
 347              		.loc 1 211 0
 348 0050 9D42     		cmp	r5, r3
 349 0052 01D3     		bcc	.L35
 350 0054 1C46     		mov	r4, r3
 351              	.LVL38:
 352              		.loc 1 229 0
 353 0056 E1E7     		b	.L39
 354              	.LVL39:
 355              	.L35:
 356              		.loc 1 216 0
 357 0058 57F8042C 		ldr	r2, [r7, #-4]
 358              		.loc 1 213 0
 359 005c 47F8083C 		str	r3, [r7, #-8]
 360              		.loc 1 214 0
 361 0060 2560     		str	r5, [r4]
 362              		.loc 1 216 0
 363 0062 02F10803 		add	r3, r2, #8
 364 0066 57F8080C 		ldr	r0, [r7, #-8]
 365 006a E918     		adds	r1, r5, r3
 366 006c 8142     		cmp	r1, r0
 367 006e 09D0     		beq	.L47
 368              		.loc 1 221 0
 369 0070 6368     		ldr	r3, [r4, #4]
 370 0072 03F10802 		add	r2, r3, #8
 371 0076 2244     		add	r2, r2, r4
 372 0078 9542     		cmp	r5, r2
 373 007a 11D0     		beq	.L48
 374              	.L38:
 375              		.loc 1 233 0
 376 007c BDE8F840 		pop	{r3, r4, r5, r6, r7, lr}
 377              	.LVL40:
 378              		.loc 1 231 0
 379 0080 FFF7FEBF 		b	chMtxUnlock
 380              	.LVL41:
 381              	.L47:
 382              		.loc 1 218 0
 383 0084 4968     		ldr	r1, [r1, #4]
 384              		.loc 1 219 0
 385 0086 EB58     		ldr	r3, [r5, r3]
 386              		.loc 1 218 0
 387 0088 0A44     		add	r2, r2, r1
 388 008a 0832     		adds	r2, r2, #8
 389 008c 47F8042C 		str	r2, [r7, #-4]
 390              		.loc 1 219 0
 391 0090 47F8083C 		str	r3, [r7, #-8]
 392              		.loc 1 221 0
 393 0094 6368     		ldr	r3, [r4, #4]
 394 0096 03F10802 		add	r2, r3, #8
 395 009a 2244     		add	r2, r2, r4
 396 009c 9542     		cmp	r5, r2
 397 009e EDD1     		bne	.L38
ARM GAS  /tmp/ccPryv9I.s 			page 8


 398              	.L48:
 399              		.loc 1 223 0
 400 00a0 57F8041C 		ldr	r1, [r7, #-4]
 401              		.loc 1 224 0
 402 00a4 57F8082C 		ldr	r2, [r7, #-8]
 403              		.loc 1 223 0
 404 00a8 0B44     		add	r3, r3, r1
 405 00aa 0833     		adds	r3, r3, #8
 406              		.loc 1 224 0
 407 00ac 84E80C00 		stmia	r4, {r2, r3}
 408              		.loc 1 233 0
 409 00b0 BDE8F840 		pop	{r3, r4, r5, r6, r7, lr}
 410              	.LVL42:
 411              		.loc 1 231 0
 412 00b4 FFF7FEBF 		b	chMtxUnlock
 413              	.LVL43:
 414              	.L44:
 415              		.loc 1 198 0 discriminator 1
 416 00b8 0248     		ldr	r0, .L49+4
 417              	.LVL44:
 418 00ba FFF7FEFF 		bl	chDbgPanic
 419              	.LVL45:
 420 00be A3E7     		b	.L31
 421              	.L50:
 422              		.align	2
 423              	.L49:
 424 00c0 20000000 		.word	.LC2
 425 00c4 10000000 		.word	.LC1
 426              		.cfi_endproc
 427              	.LFE10:
 428              		.size	chHeapFree, .-chHeapFree
 429 00c8 AFF30080 		.section	.text.chHeapStatus,"ax",%progbits
 429      AFF30080 
 430              		.align	2
 431              		.p2align 4,,15
 432              		.global	chHeapStatus
 433              		.thumb
 434              		.thumb_func
 435              		.type	chHeapStatus, %function
 436              	chHeapStatus:
 437              	.LFB11:
 438              		.loc 1 250 0
 439              		.cfi_startproc
 440              		@ args = 0, pretend = 0, frame = 0
 441              		@ frame_needed = 0, uses_anonymous_args = 0
 442              	.LVL46:
 443 0000 38B5     		push	{r3, r4, r5, lr}
 444              		.cfi_def_cfa_offset 16
 445              		.cfi_offset 3, -16
 446              		.cfi_offset 4, -12
 447              		.cfi_offset 5, -8
 448              		.cfi_offset 14, -4
 449              		.loc 1 255 0
 450 0002 0E4C     		ldr	r4, .L64
 451              		.loc 1 250 0
 452 0004 0D46     		mov	r5, r1
 453              		.loc 1 255 0
ARM GAS  /tmp/ccPryv9I.s 			page 9


 454 0006 0028     		cmp	r0, #0
 455 0008 18BF     		it	ne
 456 000a 0446     		movne	r4, r0
 457              	.LVL47:
 458              		.loc 1 257 0
 459 000c 04F11000 		add	r0, r4, #16
 460 0010 FFF7FEFF 		bl	chMtxLock
 461              	.LVL48:
 462              		.loc 1 260 0
 463 0014 A368     		ldr	r3, [r4, #8]
 464 0016 6BB1     		cbz	r3, .L57
 465              		.loc 1 259 0
 466 0018 0022     		movs	r2, #0
 467              		.loc 1 260 0
 468 001a 1446     		mov	r4, r2
 469              	.LVL49:
 470              	.L54:
 471              		.loc 1 261 0 discriminator 2
 472 001c 5868     		ldr	r0, [r3, #4]
 473              		.loc 1 260 0 discriminator 2
 474 001e 1B68     		ldr	r3, [r3]
 475 0020 0134     		adds	r4, r4, #1
 476              	.LVL50:
 477              		.loc 1 261 0 discriminator 2
 478 0022 0244     		add	r2, r2, r0
 479              	.LVL51:
 480              		.loc 1 260 0 discriminator 2
 481 0024 002B     		cmp	r3, #0
 482 0026 F9D1     		bne	.L54
 483              	.LVL52:
 484              	.L53:
 485              		.loc 1 262 0
 486 0028 05B1     		cbz	r5, .L55
 487              		.loc 1 263 0
 488 002a 2A60     		str	r2, [r5]
 489              	.L55:
 490              		.loc 1 265 0
 491 002c FFF7FEFF 		bl	chMtxUnlock
 492              	.LVL53:
 493              		.loc 1 267 0
 494 0030 2046     		mov	r0, r4
 495 0032 38BD     		pop	{r3, r4, r5, pc}
 496              	.LVL54:
 497              	.L57:
 498              		.loc 1 259 0
 499 0034 1A46     		mov	r2, r3
 500              		.loc 1 260 0
 501 0036 1C46     		mov	r4, r3
 502              	.LVL55:
 503 0038 F6E7     		b	.L53
 504              	.L65:
 505 003a 00BF     		.align	2
 506              	.L64:
 507 003c 00000000 		.word	.LANCHOR0
 508              		.cfi_endproc
 509              	.LFE11:
 510              		.size	chHeapStatus, .-chHeapStatus
ARM GAS  /tmp/ccPryv9I.s 			page 10


 511              		.section	.rodata.str1.4,"aMS",%progbits,1
 512              		.align	2
 513              	.LC0:
 514 0000 22636848 		.ascii	"\"chHeapInit\"()\000"
 514      65617049 
 514      6E697422 
 514      282900
 515 000f 00       		.space	1
 516              	.LC1:
 517 0010 22636848 		.ascii	"\"chHeapFree\"()\000"
 517      65617046 
 517      72656522 
 517      282900
 518 001f 00       		.space	1
 519              	.LC2:
 520 0020 63684865 		.ascii	"chHeapFree(), #1\000"
 520      61704672 
 520      65652829 
 520      2C202331 
 520      00
 521 0031 000000   		.section	.bss.default_heap,"aw",%nobits
 522              		.align	3
 523              		.set	.LANCHOR0,. + 0
 524              		.type	default_heap, %object
 525              		.size	default_heap, 32
 526              	default_heap:
 527 0000 00000000 		.space	32
 527      00000000 
 527      00000000 
 527      00000000 
 527      00000000 
 528              		.text
 529              	.Letext0:
 530              		.file 2 "/homes/msunkara/ASE-praticle-folder/gcc-arm-embedded/gcc-arm-none-eabi-4_8-2014q/lib/gcc/
 531              		.file 3 "/homes/msunkara/ASE-praticle-folder/gcc-arm-embedded/gcc-arm-none-eabi-4_8-2014q/arm-none
 532              		.file 4 "/homes/msunkara/ASE-praticle-folder/gcc-arm-embedded/gcc-arm-none-eabi-4_8-2014q/arm-none
 533              		.file 5 "../../../os/ports/GCC/ARMCMx/chtypes.h"
 534              		.file 6 "../../../os/kernel/include/chlists.h"
 535              		.file 7 "../../../os/kernel/include/chthreads.h"
 536              		.file 8 "../../../os/ports/GCC/ARMCMx/chcore_v7m.h"
 537              		.file 9 "../../../os/kernel/include/chmtx.h"
 538              		.file 10 "../../../os/kernel/include/chmemcore.h"
 539              		.file 11 "../../../os/kernel/include/chheap.h"
 540              		.file 12 "../../../os/kernel/include/chdebug.h"
