ARM GAS  /tmp/cc4vKzCk.s 			page 1


   1              		.syntax unified
   2              		.cpu cortex-m3
   3              		.fpu softvfp
   4              		.eabi_attribute 20, 1
   5              		.eabi_attribute 21, 1
   6              		.eabi_attribute 23, 3
   7              		.eabi_attribute 24, 1
   8              		.eabi_attribute 25, 1
   9              		.eabi_attribute 26, 1
  10              		.eabi_attribute 30, 2
  11              		.eabi_attribute 34, 1
  12              		.eabi_attribute 18, 4
  13              		.thumb
  14              		.file	"stm32_dma.c"
  15              		.text
  16              	.Ltext0:
  17              		.cfi_sections	.debug_frame
  18              		.section	.text.Vector6C,"ax",%progbits
  19              		.align	2
  20              		.p2align 4,,15
  21              		.global	Vector6C
  22              		.thumb
  23              		.thumb_func
  24              		.type	Vector6C, %function
  25              	Vector6C:
  26              	.LFB63:
  27              		.file 1 "../../../os/hal/platforms/STM32F1xx/stm32_dma.c"
  28              		.loc 1 126 0
  29              		.cfi_startproc
  30              		@ args = 0, pretend = 0, frame = 0
  31              		@ frame_needed = 0, uses_anonymous_args = 0
  32 0000 08B5     		push	{r3, lr}
  33              		.cfi_def_cfa_offset 8
  34              		.cfi_offset 3, -8
  35              		.cfi_offset 14, -4
  36              		.loc 1 129 0
  37 0002 FFF7FEFF 		bl	dbg_check_enter_isr
  38              	.LVL0:
  39              		.loc 1 131 0
  40 0006 084B     		ldr	r3, .L7
  41              		.loc 1 133 0
  42 0008 084A     		ldr	r2, .L7+4
  43              		.loc 1 131 0
  44 000a 1968     		ldr	r1, [r3]
  45 000c 01F00F01 		and	r1, r1, #15
  46              	.LVL1:
  47              		.loc 1 132 0
  48 0010 5960     		str	r1, [r3, #4]
  49              		.loc 1 133 0
  50 0012 1368     		ldr	r3, [r2]
  51 0014 0BB1     		cbz	r3, .L2
  52              		.loc 1 134 0
  53 0016 5068     		ldr	r0, [r2, #4]
  54 0018 9847     		blx	r3
  55              	.LVL2:
  56              	.L2:
  57              		.loc 1 136 0
ARM GAS  /tmp/cc4vKzCk.s 			page 2


  58 001a FFF7FEFF 		bl	dbg_check_leave_isr
  59              	.LVL3:
  60              		.loc 1 137 0
  61 001e BDE80840 		pop	{r3, lr}
  62              		.loc 1 136 0
  63 0022 FFF7FEBF 		b	_port_irq_epilogue
  64              	.LVL4:
  65              	.L8:
  66 0026 00BF     		.align	2
  67              	.L7:
  68 0028 00000240 		.word	1073872896
  69 002c 00000000 		.word	.LANCHOR0
  70              		.cfi_endproc
  71              	.LFE63:
  72              		.size	Vector6C, .-Vector6C
  73              		.section	.text.Vector70,"ax",%progbits
  74              		.align	2
  75              		.p2align 4,,15
  76              		.global	Vector70
  77              		.thumb
  78              		.thumb_func
  79              		.type	Vector70, %function
  80              	Vector70:
  81              	.LFB64:
  82              		.loc 1 144 0
  83              		.cfi_startproc
  84              		@ args = 0, pretend = 0, frame = 0
  85              		@ frame_needed = 0, uses_anonymous_args = 0
  86 0000 10B5     		push	{r4, lr}
  87              		.cfi_def_cfa_offset 8
  88              		.cfi_offset 4, -8
  89              		.cfi_offset 14, -4
  90              		.loc 1 147 0
  91 0002 FFF7FEFF 		bl	dbg_check_enter_isr
  92              	.LVL5:
  93              		.loc 1 149 0
  94 0006 084B     		ldr	r3, .L14
  95              		.loc 1 151 0
  96 0008 0848     		ldr	r0, .L14+4
  97              		.loc 1 149 0
  98 000a 1968     		ldr	r1, [r3]
  99              		.loc 1 151 0
 100 000c 8268     		ldr	r2, [r0, #8]
 101              		.loc 1 149 0
 102 000e C1F30311 		ubfx	r1, r1, #4, #4
 103              	.LVL6:
 104              		.loc 1 150 0
 105 0012 0C01     		lsls	r4, r1, #4
 106 0014 5C60     		str	r4, [r3, #4]
 107              		.loc 1 151 0
 108 0016 0AB1     		cbz	r2, .L10
 109              		.loc 1 152 0
 110 0018 C068     		ldr	r0, [r0, #12]
 111 001a 9047     		blx	r2
 112              	.LVL7:
 113              	.L10:
 114              		.loc 1 154 0
ARM GAS  /tmp/cc4vKzCk.s 			page 3


 115 001c FFF7FEFF 		bl	dbg_check_leave_isr
 116              	.LVL8:
 117              		.loc 1 155 0
 118 0020 BDE81040 		pop	{r4, lr}
 119              		.loc 1 154 0
 120 0024 FFF7FEBF 		b	_port_irq_epilogue
 121              	.LVL9:
 122              	.L15:
 123              		.align	2
 124              	.L14:
 125 0028 00000240 		.word	1073872896
 126 002c 00000000 		.word	.LANCHOR0
 127              		.cfi_endproc
 128              	.LFE64:
 129              		.size	Vector70, .-Vector70
 130              		.section	.text.Vector74,"ax",%progbits
 131              		.align	2
 132              		.p2align 4,,15
 133              		.global	Vector74
 134              		.thumb
 135              		.thumb_func
 136              		.type	Vector74, %function
 137              	Vector74:
 138              	.LFB65:
 139              		.loc 1 162 0
 140              		.cfi_startproc
 141              		@ args = 0, pretend = 0, frame = 0
 142              		@ frame_needed = 0, uses_anonymous_args = 0
 143 0000 10B5     		push	{r4, lr}
 144              		.cfi_def_cfa_offset 8
 145              		.cfi_offset 4, -8
 146              		.cfi_offset 14, -4
 147              		.loc 1 165 0
 148 0002 FFF7FEFF 		bl	dbg_check_enter_isr
 149              	.LVL10:
 150              		.loc 1 167 0
 151 0006 084B     		ldr	r3, .L21
 152              		.loc 1 169 0
 153 0008 0848     		ldr	r0, .L21+4
 154              		.loc 1 167 0
 155 000a 1968     		ldr	r1, [r3]
 156              		.loc 1 169 0
 157 000c 0269     		ldr	r2, [r0, #16]
 158              		.loc 1 167 0
 159 000e C1F30321 		ubfx	r1, r1, #8, #4
 160              	.LVL11:
 161              		.loc 1 168 0
 162 0012 0C02     		lsls	r4, r1, #8
 163 0014 5C60     		str	r4, [r3, #4]
 164              		.loc 1 169 0
 165 0016 0AB1     		cbz	r2, .L17
 166              		.loc 1 170 0
 167 0018 4069     		ldr	r0, [r0, #20]
 168 001a 9047     		blx	r2
 169              	.LVL12:
 170              	.L17:
 171              		.loc 1 172 0
ARM GAS  /tmp/cc4vKzCk.s 			page 4


 172 001c FFF7FEFF 		bl	dbg_check_leave_isr
 173              	.LVL13:
 174              		.loc 1 173 0
 175 0020 BDE81040 		pop	{r4, lr}
 176              		.loc 1 172 0
 177 0024 FFF7FEBF 		b	_port_irq_epilogue
 178              	.LVL14:
 179              	.L22:
 180              		.align	2
 181              	.L21:
 182 0028 00000240 		.word	1073872896
 183 002c 00000000 		.word	.LANCHOR0
 184              		.cfi_endproc
 185              	.LFE65:
 186              		.size	Vector74, .-Vector74
 187              		.section	.text.Vector78,"ax",%progbits
 188              		.align	2
 189              		.p2align 4,,15
 190              		.global	Vector78
 191              		.thumb
 192              		.thumb_func
 193              		.type	Vector78, %function
 194              	Vector78:
 195              	.LFB66:
 196              		.loc 1 180 0
 197              		.cfi_startproc
 198              		@ args = 0, pretend = 0, frame = 0
 199              		@ frame_needed = 0, uses_anonymous_args = 0
 200 0000 10B5     		push	{r4, lr}
 201              		.cfi_def_cfa_offset 8
 202              		.cfi_offset 4, -8
 203              		.cfi_offset 14, -4
 204              		.loc 1 183 0
 205 0002 FFF7FEFF 		bl	dbg_check_enter_isr
 206              	.LVL15:
 207              		.loc 1 185 0
 208 0006 084B     		ldr	r3, .L28
 209              		.loc 1 187 0
 210 0008 0848     		ldr	r0, .L28+4
 211              		.loc 1 185 0
 212 000a 1968     		ldr	r1, [r3]
 213              		.loc 1 187 0
 214 000c 8269     		ldr	r2, [r0, #24]
 215              		.loc 1 185 0
 216 000e C1F30331 		ubfx	r1, r1, #12, #4
 217              	.LVL16:
 218              		.loc 1 186 0
 219 0012 0C03     		lsls	r4, r1, #12
 220 0014 5C60     		str	r4, [r3, #4]
 221              		.loc 1 187 0
 222 0016 0AB1     		cbz	r2, .L24
 223              		.loc 1 188 0
 224 0018 C069     		ldr	r0, [r0, #28]
 225 001a 9047     		blx	r2
 226              	.LVL17:
 227              	.L24:
 228              		.loc 1 190 0
ARM GAS  /tmp/cc4vKzCk.s 			page 5


 229 001c FFF7FEFF 		bl	dbg_check_leave_isr
 230              	.LVL18:
 231              		.loc 1 191 0
 232 0020 BDE81040 		pop	{r4, lr}
 233              		.loc 1 190 0
 234 0024 FFF7FEBF 		b	_port_irq_epilogue
 235              	.LVL19:
 236              	.L29:
 237              		.align	2
 238              	.L28:
 239 0028 00000240 		.word	1073872896
 240 002c 00000000 		.word	.LANCHOR0
 241              		.cfi_endproc
 242              	.LFE66:
 243              		.size	Vector78, .-Vector78
 244              		.section	.text.Vector7C,"ax",%progbits
 245              		.align	2
 246              		.p2align 4,,15
 247              		.global	Vector7C
 248              		.thumb
 249              		.thumb_func
 250              		.type	Vector7C, %function
 251              	Vector7C:
 252              	.LFB67:
 253              		.loc 1 198 0
 254              		.cfi_startproc
 255              		@ args = 0, pretend = 0, frame = 0
 256              		@ frame_needed = 0, uses_anonymous_args = 0
 257 0000 10B5     		push	{r4, lr}
 258              		.cfi_def_cfa_offset 8
 259              		.cfi_offset 4, -8
 260              		.cfi_offset 14, -4
 261              		.loc 1 201 0
 262 0002 FFF7FEFF 		bl	dbg_check_enter_isr
 263              	.LVL20:
 264              		.loc 1 203 0
 265 0006 084B     		ldr	r3, .L35
 266              		.loc 1 205 0
 267 0008 0848     		ldr	r0, .L35+4
 268              		.loc 1 203 0
 269 000a 1968     		ldr	r1, [r3]
 270              		.loc 1 205 0
 271 000c 026A     		ldr	r2, [r0, #32]
 272              		.loc 1 203 0
 273 000e C1F30341 		ubfx	r1, r1, #16, #4
 274              	.LVL21:
 275              		.loc 1 204 0
 276 0012 0C04     		lsls	r4, r1, #16
 277 0014 5C60     		str	r4, [r3, #4]
 278              		.loc 1 205 0
 279 0016 0AB1     		cbz	r2, .L31
 280              		.loc 1 206 0
 281 0018 406A     		ldr	r0, [r0, #36]
 282 001a 9047     		blx	r2
 283              	.LVL22:
 284              	.L31:
 285              		.loc 1 208 0
ARM GAS  /tmp/cc4vKzCk.s 			page 6


 286 001c FFF7FEFF 		bl	dbg_check_leave_isr
 287              	.LVL23:
 288              		.loc 1 209 0
 289 0020 BDE81040 		pop	{r4, lr}
 290              		.loc 1 208 0
 291 0024 FFF7FEBF 		b	_port_irq_epilogue
 292              	.LVL24:
 293              	.L36:
 294              		.align	2
 295              	.L35:
 296 0028 00000240 		.word	1073872896
 297 002c 00000000 		.word	.LANCHOR0
 298              		.cfi_endproc
 299              	.LFE67:
 300              		.size	Vector7C, .-Vector7C
 301              		.section	.text.Vector80,"ax",%progbits
 302              		.align	2
 303              		.p2align 4,,15
 304              		.global	Vector80
 305              		.thumb
 306              		.thumb_func
 307              		.type	Vector80, %function
 308              	Vector80:
 309              	.LFB68:
 310              		.loc 1 216 0
 311              		.cfi_startproc
 312              		@ args = 0, pretend = 0, frame = 0
 313              		@ frame_needed = 0, uses_anonymous_args = 0
 314 0000 10B5     		push	{r4, lr}
 315              		.cfi_def_cfa_offset 8
 316              		.cfi_offset 4, -8
 317              		.cfi_offset 14, -4
 318              		.loc 1 219 0
 319 0002 FFF7FEFF 		bl	dbg_check_enter_isr
 320              	.LVL25:
 321              		.loc 1 221 0
 322 0006 084B     		ldr	r3, .L42
 323              		.loc 1 223 0
 324 0008 0848     		ldr	r0, .L42+4
 325              		.loc 1 221 0
 326 000a 1968     		ldr	r1, [r3]
 327              		.loc 1 223 0
 328 000c 826A     		ldr	r2, [r0, #40]
 329              		.loc 1 221 0
 330 000e C1F30351 		ubfx	r1, r1, #20, #4
 331              	.LVL26:
 332              		.loc 1 222 0
 333 0012 0C05     		lsls	r4, r1, #20
 334 0014 5C60     		str	r4, [r3, #4]
 335              		.loc 1 223 0
 336 0016 0AB1     		cbz	r2, .L38
 337              		.loc 1 224 0
 338 0018 C06A     		ldr	r0, [r0, #44]
 339 001a 9047     		blx	r2
 340              	.LVL27:
 341              	.L38:
 342              		.loc 1 226 0
ARM GAS  /tmp/cc4vKzCk.s 			page 7


 343 001c FFF7FEFF 		bl	dbg_check_leave_isr
 344              	.LVL28:
 345              		.loc 1 227 0
 346 0020 BDE81040 		pop	{r4, lr}
 347              		.loc 1 226 0
 348 0024 FFF7FEBF 		b	_port_irq_epilogue
 349              	.LVL29:
 350              	.L43:
 351              		.align	2
 352              	.L42:
 353 0028 00000240 		.word	1073872896
 354 002c 00000000 		.word	.LANCHOR0
 355              		.cfi_endproc
 356              	.LFE68:
 357              		.size	Vector80, .-Vector80
 358              		.section	.text.Vector84,"ax",%progbits
 359              		.align	2
 360              		.p2align 4,,15
 361              		.global	Vector84
 362              		.thumb
 363              		.thumb_func
 364              		.type	Vector84, %function
 365              	Vector84:
 366              	.LFB69:
 367              		.loc 1 234 0
 368              		.cfi_startproc
 369              		@ args = 0, pretend = 0, frame = 0
 370              		@ frame_needed = 0, uses_anonymous_args = 0
 371 0000 10B5     		push	{r4, lr}
 372              		.cfi_def_cfa_offset 8
 373              		.cfi_offset 4, -8
 374              		.cfi_offset 14, -4
 375              		.loc 1 237 0
 376 0002 FFF7FEFF 		bl	dbg_check_enter_isr
 377              	.LVL30:
 378              		.loc 1 239 0
 379 0006 084B     		ldr	r3, .L49
 380              		.loc 1 241 0
 381 0008 0848     		ldr	r0, .L49+4
 382              		.loc 1 239 0
 383 000a 1968     		ldr	r1, [r3]
 384              		.loc 1 241 0
 385 000c 026B     		ldr	r2, [r0, #48]
 386              		.loc 1 239 0
 387 000e C1F30361 		ubfx	r1, r1, #24, #4
 388              	.LVL31:
 389              		.loc 1 240 0
 390 0012 0C06     		lsls	r4, r1, #24
 391 0014 5C60     		str	r4, [r3, #4]
 392              		.loc 1 241 0
 393 0016 0AB1     		cbz	r2, .L45
 394              		.loc 1 242 0
 395 0018 406B     		ldr	r0, [r0, #52]
 396 001a 9047     		blx	r2
 397              	.LVL32:
 398              	.L45:
 399              		.loc 1 244 0
ARM GAS  /tmp/cc4vKzCk.s 			page 8


 400 001c FFF7FEFF 		bl	dbg_check_leave_isr
 401              	.LVL33:
 402              		.loc 1 245 0
 403 0020 BDE81040 		pop	{r4, lr}
 404              		.loc 1 244 0
 405 0024 FFF7FEBF 		b	_port_irq_epilogue
 406              	.LVL34:
 407              	.L50:
 408              		.align	2
 409              	.L49:
 410 0028 00000240 		.word	1073872896
 411 002c 00000000 		.word	.LANCHOR0
 412              		.cfi_endproc
 413              	.LFE69:
 414              		.size	Vector84, .-Vector84
 415              		.section	.text.dmaInit,"ax",%progbits
 416              		.align	2
 417              		.p2align 4,,15
 418              		.global	dmaInit
 419              		.thumb
 420              		.thumb_func
 421              		.type	dmaInit, %function
 422              	dmaInit:
 423              	.LFB70:
 424              		.loc 1 381 0
 425              		.cfi_startproc
 426              		@ args = 0, pretend = 0, frame = 0
 427              		@ frame_needed = 0, uses_anonymous_args = 0
 428              		@ link register save eliminated.
 429              		.loc 1 384 0
 430 0000 0A49     		ldr	r1, .L55
 431              		.loc 1 381 0
 432 0002 30B4     		push	{r4, r5}
 433              		.cfi_def_cfa_offset 8
 434              		.cfi_offset 4, -8
 435              		.cfi_offset 5, -4
 436              		.loc 1 384 0
 437 0004 0023     		movs	r3, #0
 438 0006 0A4D     		ldr	r5, .L55+4
 439 0008 0A4C     		ldr	r4, .L55+8
 440 000a 0B60     		str	r3, [r1]
 441              	.LVL35:
 442 000c 1A46     		mov	r2, r3
 443              		.loc 1 386 0
 444 000e 1946     		mov	r1, r3
 445              	.LVL36:
 446              	.L53:
 447              		.loc 1 386 0 is_stmt 0 discriminator 2
 448 0010 E858     		ldr	r0, [r5, r3]
 449 0012 0C33     		adds	r3, r3, #12
 450              		.loc 1 385 0 is_stmt 1 discriminator 2
 451 0014 542B     		cmp	r3, #84
 452              		.loc 1 386 0 discriminator 2
 453 0016 0160     		str	r1, [r0]
 454              		.loc 1 387 0 discriminator 2
 455 0018 A150     		str	r1, [r4, r2]
 456 001a 02F10802 		add	r2, r2, #8
ARM GAS  /tmp/cc4vKzCk.s 			page 9


 457              		.loc 1 385 0 discriminator 2
 458 001e F7D1     		bne	.L53
 459              		.loc 1 393 0
 460 0020 30BC     		pop	{r4, r5}
 461              		.loc 1 389 0
 462 0022 054B     		ldr	r3, .L55+12
 463 0024 4FF0FF32 		mov	r2, #-1
 464 0028 5A60     		str	r2, [r3, #4]
 465              		.loc 1 393 0
 466 002a 7047     		bx	lr
 467              	.L56:
 468              		.align	2
 469              	.L55:
 470 002c 00000000 		.word	.LANCHOR1
 471 0030 00000000 		.word	.LANCHOR2
 472 0034 00000000 		.word	.LANCHOR0
 473 0038 00000240 		.word	1073872896
 474              		.cfi_endproc
 475              	.LFE70:
 476              		.size	dmaInit, .-dmaInit
 477 003c AFF30080 		.section	.text.dmaStreamAllocate,"ax",%progbits
 478              		.align	2
 479              		.p2align 4,,15
 480              		.global	dmaStreamAllocate
 481              		.thumb
 482              		.thumb_func
 483              		.type	dmaStreamAllocate, %function
 484              	dmaStreamAllocate:
 485              	.LFB71:
 486              		.loc 1 422 0
 487              		.cfi_startproc
 488              		@ args = 0, pretend = 0, frame = 16
 489              		@ frame_needed = 0, uses_anonymous_args = 0
 490              	.LVL37:
 491 0000 F0B5     		push	{r4, r5, r6, r7, lr}
 492              		.cfi_def_cfa_offset 20
 493              		.cfi_offset 4, -20
 494              		.cfi_offset 5, -16
 495              		.cfi_offset 6, -12
 496              		.cfi_offset 7, -8
 497              		.cfi_offset 14, -4
 498              		.loc 1 424 0
 499 0002 0446     		mov	r4, r0
 500              		.loc 1 422 0
 501 0004 85B0     		sub	sp, sp, #20
 502              		.cfi_def_cfa_offset 40
 503              		.loc 1 424 0
 504 0006 0028     		cmp	r0, #0
 505 0008 31D0     		beq	.L66
 506              	.LVL38:
 507              	.L58:
 508              		.loc 1 427 0
 509 000a 657A     		ldrb	r5, [r4, #9]	@ zero_extendqisi2
 510 000c 0120     		movs	r0, #1
 511 000e 00FA05FC 		lsl	ip, r0, r5
 512 0012 1C4E     		ldr	r6, .L67
 513 0014 3768     		ldr	r7, [r6]
ARM GAS  /tmp/cc4vKzCk.s 			page 10


 514 0016 1CEA070F 		tst	ip, r7
 515 001a 23D1     		bne	.L59
 516              		.loc 1 431 0
 517 001c 1A48     		ldr	r0, .L67+4
 518              		.loc 1 433 0
 519 001e 4CEA0707 		orr	r7, ip, r7
 520              		.loc 1 432 0
 521 0022 00EBC50C 		add	ip, r0, r5, lsl #3
 522              		.loc 1 431 0
 523 0026 40F83520 		str	r2, [r0, r5, lsl #3]
 524              		.loc 1 432 0
 525 002a CCF80430 		str	r3, [ip, #4]
 526              		.loc 1 436 0
 527 002e 7B06     		lsls	r3, r7, #25
 528              		.loc 1 433 0
 529 0030 3760     		str	r7, [r6]
 530              		.loc 1 436 0
 531 0032 04D0     		beq	.L60
 532              		.loc 1 437 0
 533 0034 154B     		ldr	r3, .L67+8
 534 0036 5869     		ldr	r0, [r3, #20]
 535 0038 40F00100 		orr	r0, r0, #1
 536 003c 5861     		str	r0, [r3, #20]
 537              	.L60:
 538              		.loc 1 444 0
 539 003e 2368     		ldr	r3, [r4]
 540 0040 6068     		ldr	r0, [r4, #4]
 541 0042 1D68     		ldr	r5, [r3]
 542 0044 0F27     		movs	r7, #15
 543 0046 25F00F05 		bic	r5, r5, #15
 544 004a 1D60     		str	r5, [r3]
 545 004c 267A     		ldrb	r6, [r4, #8]	@ zero_extendqisi2
 546              		.loc 1 445 0
 547 004e 0025     		movs	r5, #0
 548              		.loc 1 444 0
 549 0050 07FA06F6 		lsl	r6, r7, r6
 550 0054 0660     		str	r6, [r0]
 551              		.loc 1 445 0
 552 0056 1D60     		str	r5, [r3]
 553              		.loc 1 448 0
 554 0058 32B1     		cbz	r2, .L62
 555              		.loc 1 449 0
 556 005a A07A     		ldrb	r0, [r4, #10]	@ zero_extendqisi2
 557 005c 0901     		lsls	r1, r1, #4
 558 005e FFF7FEFF 		bl	nvicEnableVector
 559              	.LVL39:
 560              		.loc 1 451 0
 561 0062 2846     		mov	r0, r5
 562              	.L59:
 563              		.loc 1 452 0
 564 0064 05B0     		add	sp, sp, #20
 565              		@ sp needed
 566 0066 F0BD     		pop	{r4, r5, r6, r7, pc}
 567              	.LVL40:
 568              	.L62:
 569              		.loc 1 451 0
 570 0068 1046     		mov	r0, r2
ARM GAS  /tmp/cc4vKzCk.s 			page 11


 571              		.loc 1 452 0
 572 006a 05B0     		add	sp, sp, #20
 573              		@ sp needed
 574 006c F0BD     		pop	{r4, r5, r6, r7, pc}
 575              	.LVL41:
 576              	.L66:
 577              		.loc 1 424 0 discriminator 1
 578 006e 0848     		ldr	r0, .L67+12
 579              	.LVL42:
 580 0070 0391     		str	r1, [sp, #12]
 581 0072 0292     		str	r2, [sp, #8]
 582 0074 0193     		str	r3, [sp, #4]
 583 0076 FFF7FEFF 		bl	chDbgPanic
 584              	.LVL43:
 585 007a 019B     		ldr	r3, [sp, #4]
 586 007c 029A     		ldr	r2, [sp, #8]
 587 007e 0399     		ldr	r1, [sp, #12]
 588 0080 C3E7     		b	.L58
 589              	.L68:
 590 0082 00BF     		.align	2
 591              	.L67:
 592 0084 00000000 		.word	.LANCHOR1
 593 0088 00000000 		.word	.LANCHOR0
 594 008c 00100240 		.word	1073876992
 595 0090 00000000 		.word	.LC0
 596              		.cfi_endproc
 597              	.LFE71:
 598              		.size	dmaStreamAllocate, .-dmaStreamAllocate
 599 0094 AFF30080 		.section	.text.dmaStreamRelease,"ax",%progbits
 599      AFF30080 
 599      AFF30080 
 600              		.align	2
 601              		.p2align 4,,15
 602              		.global	dmaStreamRelease
 603              		.thumb
 604              		.thumb_func
 605              		.type	dmaStreamRelease, %function
 606              	dmaStreamRelease:
 607              	.LFB72:
 608              		.loc 1 467 0
 609              		.cfi_startproc
 610              		@ args = 0, pretend = 0, frame = 0
 611              		@ frame_needed = 0, uses_anonymous_args = 0
 612              	.LVL44:
 613 0000 70B5     		push	{r4, r5, r6, lr}
 614              		.cfi_def_cfa_offset 16
 615              		.cfi_offset 4, -16
 616              		.cfi_offset 5, -12
 617              		.cfi_offset 6, -8
 618              		.cfi_offset 14, -4
 619              		.loc 1 469 0
 620 0002 0546     		mov	r5, r0
 621 0004 F0B1     		cbz	r0, .L74
 622              	.LVL45:
 623              	.L70:
 624              		.loc 1 472 0
 625 0006 6B7A     		ldrb	r3, [r5, #9]	@ zero_extendqisi2
ARM GAS  /tmp/cc4vKzCk.s 			page 12


 626 0008 0126     		movs	r6, #1
 627 000a 06FA03F3 		lsl	r3, r6, r3
 628 000e 0F4C     		ldr	r4, .L76
 629 0010 2268     		ldr	r2, [r4]
 630 0012 1342     		tst	r3, r2
 631 0014 0ED0     		beq	.L75
 632              	.L71:
 633              		.loc 1 476 0
 634 0016 22EA0303 		bic	r3, r2, r3
 635              		.loc 1 480 0
 636 001a A87A     		ldrb	r0, [r5, #10]	@ zero_extendqisi2
 637              		.loc 1 476 0
 638 001c 2360     		str	r3, [r4]
 639              		.loc 1 480 0
 640 001e FFF7FEFF 		bl	nvicDisableVector
 641              	.LVL46:
 642              		.loc 1 493 0
 643 0022 2368     		ldr	r3, [r4]
 644 0024 5B06     		lsls	r3, r3, #25
 645 0026 04D1     		bne	.L69
 646              		.loc 1 494 0
 647 0028 094B     		ldr	r3, .L76+4
 648 002a 5A69     		ldr	r2, [r3, #20]
 649 002c 22F00102 		bic	r2, r2, #1
 650 0030 5A61     		str	r2, [r3, #20]
 651              	.L69:
 652 0032 70BD     		pop	{r4, r5, r6, pc}
 653              	.LVL47:
 654              	.L75:
 655              		.loc 1 472 0 discriminator 1
 656 0034 0748     		ldr	r0, .L76+8
 657 0036 FFF7FEFF 		bl	chDbgPanic
 658              	.LVL48:
 659 003a 6B7A     		ldrb	r3, [r5, #9]	@ zero_extendqisi2
 660 003c 2268     		ldr	r2, [r4]
 661 003e 06FA03F3 		lsl	r3, r6, r3
 662 0042 E8E7     		b	.L71
 663              	.LVL49:
 664              	.L74:
 665              		.loc 1 469 0 discriminator 1
 666 0044 0448     		ldr	r0, .L76+12
 667              	.LVL50:
 668 0046 FFF7FEFF 		bl	chDbgPanic
 669              	.LVL51:
 670 004a DCE7     		b	.L70
 671              	.L77:
 672              		.align	2
 673              	.L76:
 674 004c 00000000 		.word	.LANCHOR1
 675 0050 00100240 		.word	1073876992
 676 0054 30000000 		.word	.LC2
 677 0058 18000000 		.word	.LC1
 678              		.cfi_endproc
 679              	.LFE72:
 680              		.size	dmaStreamRelease, .-dmaStreamRelease
 681              		.global	_stm32_dma_streams
 682 005c AFF30080 		.section	.rodata.str1.4,"aMS",%progbits,1
ARM GAS  /tmp/cc4vKzCk.s 			page 13


 683              		.align	2
 684              	.LC0:
 685 0000 22646D61 		.ascii	"\"dmaStreamAllocate\"()\000"
 685      53747265 
 685      616D416C 
 685      6C6F6361 
 685      74652228 
 686 0016 0000     		.space	2
 687              	.LC1:
 688 0018 22646D61 		.ascii	"\"dmaStreamRelease\"()\000"
 688      53747265 
 688      616D5265 
 688      6C656173 
 688      65222829 
 689 002d 000000   		.space	3
 690              	.LC2:
 691 0030 646D6153 		.ascii	"dmaStreamRelease(), #1\000"
 691      74726561 
 691      6D52656C 
 691      65617365 
 691      28292C20 
 692 0047 00       		.section	.bss.dma_isr_redir,"aw",%nobits
 693              		.align	2
 694              		.set	.LANCHOR0,. + 0
 695              		.type	dma_isr_redir, %object
 696              		.size	dma_isr_redir, 56
 697              	dma_isr_redir:
 698 0000 00000000 		.space	56
 698      00000000 
 698      00000000 
 698      00000000 
 698      00000000 
 699              		.section	.rodata._stm32_dma_streams,"a",%progbits
 700              		.align	2
 701              		.set	.LANCHOR2,. + 0
 702              		.type	_stm32_dma_streams, %object
 703              		.size	_stm32_dma_streams, 84
 704              	_stm32_dma_streams:
 705 0000 08000240 		.word	1073872904
 706 0004 04000240 		.word	1073872900
 707 0008 00       		.byte	0
 708 0009 00       		.byte	0
 709 000a 0B       		.byte	11
 710 000b 00       		.space	1
 711 000c 1C000240 		.word	1073872924
 712 0010 04000240 		.word	1073872900
 713 0014 04       		.byte	4
 714 0015 01       		.byte	1
 715 0016 0C       		.byte	12
 716 0017 00       		.space	1
 717 0018 30000240 		.word	1073872944
 718 001c 04000240 		.word	1073872900
 719 0020 08       		.byte	8
 720 0021 02       		.byte	2
 721 0022 0D       		.byte	13
 722 0023 00       		.space	1
 723 0024 44000240 		.word	1073872964
ARM GAS  /tmp/cc4vKzCk.s 			page 14


 724 0028 04000240 		.word	1073872900
 725 002c 0C       		.byte	12
 726 002d 03       		.byte	3
 727 002e 0E       		.byte	14
 728 002f 00       		.space	1
 729 0030 58000240 		.word	1073872984
 730 0034 04000240 		.word	1073872900
 731 0038 10       		.byte	16
 732 0039 04       		.byte	4
 733 003a 0F       		.byte	15
 734 003b 00       		.space	1
 735 003c 6C000240 		.word	1073873004
 736 0040 04000240 		.word	1073872900
 737 0044 14       		.byte	20
 738 0045 05       		.byte	5
 739 0046 10       		.byte	16
 740 0047 00       		.space	1
 741 0048 80000240 		.word	1073873024
 742 004c 04000240 		.word	1073872900
 743 0050 18       		.byte	24
 744 0051 06       		.byte	6
 745 0052 11       		.byte	17
 746 0053 00       		.space	1
 747              		.section	.bss.dma_streams_mask,"aw",%nobits
 748              		.align	2
 749              		.set	.LANCHOR1,. + 0
 750              		.type	dma_streams_mask, %object
 751              		.size	dma_streams_mask, 4
 752              	dma_streams_mask:
 753 0000 00000000 		.space	4
 754              		.text
 755              	.Letext0:
 756              		.file 2 "/homes/msunkara/ASE-praticle-folder/gcc-arm-embedded/gcc-arm-none-eabi-4_8-2014q/arm-none
 757              		.file 3 "/homes/msunkara/ASE-praticle-folder/gcc-arm-embedded/gcc-arm-none-eabi-4_8-2014q/arm-none
 758              		.file 4 "../../../os/ports/GCC/ARMCMx/chtypes.h"
 759              		.file 5 "../../../os/hal/platforms/STM32F1xx/stm32f10x.h"
 760              		.file 6 "../../../os/hal/platforms/STM32F1xx/stm32_dma.h"
 761              		.file 7 "../../../os/ports/common/ARMCMx/CMSIS/include/core_cm3.h"
 762              		.file 8 "../../../os/kernel/include/chdebug.h"
 763              		.file 9 "../../../os/ports/GCC/ARMCMx/chcore_v7m.h"
 764              		.file 10 "../../../os/ports/common/ARMCMx/nvic.h"
