ARM GAS  /tmp/ccbpZSYU.s 			page 1


   1              		.syntax unified
   2              		.cpu cortex-m3
   3              		.fpu softvfp
   4              		.eabi_attribute 20, 1
   5              		.eabi_attribute 21, 1
   6              		.eabi_attribute 23, 3
   7              		.eabi_attribute 24, 1
   8              		.eabi_attribute 25, 1
   9              		.eabi_attribute 26, 1
  10              		.eabi_attribute 30, 2
  11              		.eabi_attribute 34, 1
  12              		.eabi_attribute 18, 4
  13              		.thumb
  14              		.file	"chcore_v7m.c"
  15              		.text
  16              	.Ltext0:
  17              		.cfi_sections	.debug_frame
  18              		.section	.text._port_switch_from_isr,"ax",%progbits
  19              		.align	2
  20              		.p2align 4,,15
  21              		.global	_port_switch_from_isr
  22              		.thumb
  23              		.thumb_func
  24              		.type	_port_switch_from_isr, %function
  25              	_port_switch_from_isr:
  26              	.LFB6:
  27              		.file 1 "../../../os/ports/GCC/ARMCMx/chcore_v7m.c"
  28              		.loc 1 200 0
  29              		.cfi_startproc
  30              		@ Naked Function: prologue and epilogue provided by programmer.
  31              		@ args = 0, pretend = 0, frame = 0
  32              		@ frame_needed = 0, uses_anonymous_args = 0
  33              		.loc 1 202 0
  34 0000 FFF7FEFF 		bl	dbg_check_lock
  35              	.LVL0:
  36              		.loc 1 203 0
  37 0004 FFF7FEFF 		bl	chSchDoReschedule
  38              	.LVL1:
  39              		.loc 1 204 0
  40 0008 FFF7FEFF 		bl	dbg_check_unlock
  41              	.LVL2:
  42              		.loc 1 205 0
  43              	@ 205 "../../../os/ports/GCC/ARMCMx/chcore_v7m.c" 1
  44              		_port_exit_from_isr:
  45              	@ 0 "" 2
  46              		.loc 1 207 0
  47              	@ 207 "../../../os/ports/GCC/ARMCMx/chcore_v7m.c" 1
  48 000c 00DF     		svc     #0
  49              	@ 0 "" 2
  50              		.loc 1 214 0
  51              		.thumb
  52              		.cfi_endproc
  53              	.LFE6:
  54              		.size	_port_switch_from_isr, .-_port_switch_from_isr
  55 000e 00BF     		.section	.text.SVCallVector,"ax",%progbits
  56              		.align	2
  57              		.p2align 4,,15
ARM GAS  /tmp/ccbpZSYU.s 			page 2


  58              		.global	SVCallVector
  59              		.thumb
  60              		.thumb_func
  61              		.type	SVCallVector, %function
  62              	SVCallVector:
  63              	.LFB1:
  64              		.loc 1 65 0
  65              		.cfi_startproc
  66              		@ args = 0, pretend = 0, frame = 0
  67              		@ frame_needed = 0, uses_anonymous_args = 0
  68 0000 00B5     		push	{lr}
  69              		.cfi_def_cfa_offset 4
  70              		.cfi_offset 14, -4
  71              		.loc 1 74 0
  72              	@ 74 "../../../os/ports/GCC/ARMCMx/chcore_v7m.c" 1
  73 0002 EFF30983 		mrs     r3, PSP
  74              	@ 0 "" 2
  75              	.LVL3:
  76              		.loc 1 78 0
  77              		.thumb
  78 0006 2033     		adds	r3, r3, #32
  79              	.LVL4:
  80              		.loc 1 81 0
  81              	@ 81 "../../../os/ports/GCC/ARMCMx/chcore_v7m.c" 1
  82 0008 83F30988 		msr     PSP, r3
  83              	@ 0 "" 2
  84              		.loc 1 82 0
  85              	@ 82 "../../../os/ports/GCC/ARMCMx/chcore_v7m.c" 1
  86 000c FFF7FEFF 		bl      _port_unlock
  87              	@ 0 "" 2
  88              	.LVL5:
  89              		.thumb
  90 0010 5DF804FB 		ldr	pc, [sp], #4
  91              		.cfi_endproc
  92              	.LFE1:
  93              		.size	SVCallVector, .-SVCallVector
  94 0014 AFF30080 		.section	.text._port_init,"ax",%progbits
  94      AFF30080 
  94      AFF30080 
  95              		.align	2
  96              		.p2align 4,,15
  97              		.global	_port_init
  98              		.thumb
  99              		.thumb_func
 100              		.type	_port_init, %function
 101              	_port_init:
 102              	.LFB2:
 103              		.loc 1 120 0
 104              		.cfi_startproc
 105              		@ args = 0, pretend = 0, frame = 0
 106              		@ frame_needed = 0, uses_anonymous_args = 0
 107 0000 08B5     		push	{r3, lr}
 108              		.cfi_def_cfa_offset 8
 109              		.cfi_offset 3, -8
 110              		.cfi_offset 14, -4
 111              		.loc 1 124 0
 112 0002 094A     		ldr	r2, .L4
ARM GAS  /tmp/ccbpZSYU.s 			page 3


 113              		.loc 1 123 0
 114 0004 094B     		ldr	r3, .L4+4
 115 0006 0021     		movs	r1, #0
 116 0008 9960     		str	r1, [r3, #8]
 117              		.loc 1 127 0
 118 000a 0720     		movs	r0, #7
 119              		.loc 1 124 0
 120 000c DA60     		str	r2, [r3, #12]
 121              		.loc 1 127 0
 122 000e 1021     		movs	r1, #16
 123 0010 FFF7FEFF 		bl	nvicSetSystemHandlerPriority
 124              	.LVL6:
 125              		.loc 1 129 0
 126 0014 0A20     		movs	r0, #10
 127 0016 2021     		movs	r1, #32
 128 0018 FFF7FEFF 		bl	nvicSetSystemHandlerPriority
 129              	.LVL7:
 130              		.loc 1 133 0
 131 001c BDE80840 		pop	{r3, lr}
 132              		.loc 1 131 0
 133 0020 0B20     		movs	r0, #11
 134 0022 8021     		movs	r1, #128
 135 0024 FFF7FEBF 		b	nvicSetSystemHandlerPriority
 136              	.LVL8:
 137              	.L5:
 138              		.align	2
 139              	.L4:
 140 0028 0003FA05 		.word	100270848
 141 002c 00ED00E0 		.word	-536810240
 142              		.cfi_endproc
 143              	.LFE2:
 144              		.size	_port_init, .-_port_init
 145              		.section	.text._port_lock,"ax",%progbits
 146              		.align	2
 147              		.p2align 4,,15
 148              		.global	_port_lock
 149              		.thumb
 150              		.thumb_func
 151              		.type	_port_lock, %function
 152              	_port_lock:
 153              	.LFB3:
 154              		.loc 1 136 0
 155              		.cfi_startproc
 156              		@ args = 0, pretend = 0, frame = 0
 157              		@ frame_needed = 0, uses_anonymous_args = 0
 158              		@ link register save eliminated.
 159              		.loc 1 137 0
 160 0000 2023     		movs	r3, #32
 161              		.loc 1 138 0
 162              	@ 138 "../../../os/ports/GCC/ARMCMx/chcore_v7m.c" 1
 163 0002 83F31188 		msr     BASEPRI, r3
 164              	@ 0 "" 2
 165              		.thumb
 166 0006 7047     		bx	lr
 167              		.cfi_endproc
 168              	.LFE3:
 169              		.size	_port_lock, .-_port_lock
ARM GAS  /tmp/ccbpZSYU.s 			page 4


 170 0008 AFF30080 		.section	.text._port_unlock,"ax",%progbits
 170      AFF30080 
 171              		.align	2
 172              		.p2align 4,,15
 173              		.global	_port_unlock
 174              		.thumb
 175              		.thumb_func
 176              		.type	_port_unlock, %function
 177              	_port_unlock:
 178              	.LFB4:
 179              		.loc 1 141 0
 180              		.cfi_startproc
 181              		@ args = 0, pretend = 0, frame = 0
 182              		@ frame_needed = 0, uses_anonymous_args = 0
 183              		@ link register save eliminated.
 184              		.loc 1 142 0
 185 0000 0023     		movs	r3, #0
 186              		.loc 1 143 0
 187              	@ 143 "../../../os/ports/GCC/ARMCMx/chcore_v7m.c" 1
 188 0002 83F31188 		msr     BASEPRI, r3
 189              	@ 0 "" 2
 190              		.thumb
 191 0006 7047     		bx	lr
 192              		.cfi_endproc
 193              	.LFE4:
 194              		.size	_port_unlock, .-_port_unlock
 195 0008 AFF30080 		.section	.text._port_irq_epilogue,"ax",%progbits
 195      AFF30080 
 196              		.align	2
 197              		.p2align 4,,15
 198              		.global	_port_irq_epilogue
 199              		.thumb
 200              		.thumb_func
 201              		.type	_port_irq_epilogue, %function
 202              	_port_irq_epilogue:
 203              	.LFB5:
 204              		.loc 1 150 0
 205              		.cfi_startproc
 206              		@ args = 0, pretend = 0, frame = 0
 207              		@ frame_needed = 0, uses_anonymous_args = 0
 208 0000 00B5     		push	{lr}
 209              		.cfi_def_cfa_offset 4
 210              		.cfi_offset 14, -4
 211              		.loc 1 152 0
 212              	@ 152 "../../../os/ports/GCC/ARMCMx/chcore_v7m.c" 1
 213 0002 FFF7FEFF 		bl      _port_lock
 214              	@ 0 "" 2
 215              		.loc 1 153 0
 216              		.thumb
 217 0006 0F4B     		ldr	r3, .L13
 218 0008 5B68     		ldr	r3, [r3, #4]
 219 000a 1B05     		lsls	r3, r3, #20
 220 000c 16D5     		bpl	.L9
 221              	.LBB2:
 222              		.loc 1 163 0
 223              	@ 163 "../../../os/ports/GCC/ARMCMx/chcore_v7m.c" 1
 224 000e EFF30983 		mrs     r3, PSP
ARM GAS  /tmp/ccbpZSYU.s 			page 5


 225              	@ 0 "" 2
 226              	.LVL9:
 227              		.loc 1 168 0
 228              		.thumb
 229 0012 4FF08072 		mov	r2, #16777216
 230 0016 43F8042C 		str	r2, [r3, #-4]
 231              		.loc 1 167 0
 232 001a A3F12002 		sub	r2, r3, #32
 233              	.LVL10:
 234              		.loc 1 172 0
 235              	@ 172 "../../../os/ports/GCC/ARMCMx/chcore_v7m.c" 1
 236 001e 82F30988 		msr     PSP, r2
 237              	@ 0 "" 2
 238              		.loc 1 176 0
 239              		.thumb
 240 0022 094A     		ldr	r2, .L13+4
 241              	.LVL11:
 242 0024 1168     		ldr	r1, [r2]
 243 0026 9269     		ldr	r2, [r2, #24]
 244 0028 8968     		ldr	r1, [r1, #8]
 245 002a 9268     		ldr	r2, [r2, #8]
 246 002c 9142     		cmp	r1, r2
 247              		.loc 1 178 0
 248 002e 8CBF     		ite	hi
 249 0030 064A     		ldrhi	r2, .L13+8
 250              		.loc 1 183 0
 251 0032 074A     		ldrls	r2, .L13+12
 252 0034 43F8082C 		str	r2, [r3, #-8]
 253 0038 5DF804FB 		ldr	pc, [sp], #4
 254              	.LVL12:
 255              	.L9:
 256              	.LBE2:
 257              		.loc 1 190 0
 258              	@ 190 "../../../os/ports/GCC/ARMCMx/chcore_v7m.c" 1
 259 003c FFF7FEFF 		bl      _port_unlock
 260              	@ 0 "" 2
 261              		.thumb
 262 0040 5DF804FB 		ldr	pc, [sp], #4
 263              	.L14:
 264              		.align	2
 265              	.L13:
 266 0044 00ED00E0 		.word	-536810240
 267 0048 00000000 		.word	rlist
 268 004c 00000000 		.word	_port_switch_from_isr
 269 0050 0C000000 		.word	_port_exit_from_isr
 270              		.cfi_endproc
 271              	.LFE5:
 272              		.size	_port_irq_epilogue, .-_port_irq_epilogue
 273 0054 AFF30080 		.section	.text.SysTickVector,"ax",%progbits
 273      AFF30080 
 273      AFF30080 
 274              		.align	2
 275              		.p2align 4,,15
 276              		.global	SysTickVector
 277              		.thumb
 278              		.thumb_func
 279              		.type	SysTickVector, %function
ARM GAS  /tmp/ccbpZSYU.s 			page 6


 280              	SysTickVector:
 281              	.LFB0:
 282              		.loc 1 47 0
 283              		.cfi_startproc
 284              		@ args = 0, pretend = 0, frame = 0
 285              		@ frame_needed = 0, uses_anonymous_args = 0
 286 0000 08B5     		push	{r3, lr}
 287              		.cfi_def_cfa_offset 8
 288              		.cfi_offset 3, -8
 289              		.cfi_offset 14, -4
 290              		.loc 1 49 0
 291 0002 FFF7FEFF 		bl	dbg_check_enter_isr
 292              	.LVL13:
 293              		.loc 1 51 0
 294              	@ 51 "../../../os/ports/GCC/ARMCMx/chcore_v7m.c" 1
 295 0006 FFF7FEFF 		bl      _port_lock
 296              	@ 0 "" 2
 297              		.thumb
 298 000a FFF7FEFF 		bl	dbg_check_lock_from_isr
 299              	.LVL14:
 300              		.loc 1 52 0
 301 000e FFF7FEFF 		bl	chSysTimerHandlerI
 302              	.LVL15:
 303              		.loc 1 53 0
 304 0012 FFF7FEFF 		bl	dbg_check_unlock_from_isr
 305              	.LVL16:
 306              	@ 53 "../../../os/ports/GCC/ARMCMx/chcore_v7m.c" 1
 307 0016 FFF7FEFF 		bl      _port_unlock
 308              	@ 0 "" 2
 309              		.loc 1 55 0
 310              		.thumb
 311 001a FFF7FEFF 		bl	dbg_check_leave_isr
 312              	.LVL17:
 313              		.loc 1 56 0
 314 001e BDE80840 		pop	{r3, lr}
 315              		.loc 1 55 0
 316 0022 FFF7FEBF 		b	_port_irq_epilogue
 317              	.LVL18:
 318              		.cfi_endproc
 319              	.LFE0:
 320              		.size	SysTickVector, .-SysTickVector
 321              		.section	.text._port_switch,"ax",%progbits
 322              		.align	2
 323              		.p2align 4,,15
 324              		.global	_port_switch
 325              		.thumb
 326              		.thumb_func
 327              		.type	_port_switch, %function
 328              	_port_switch:
 329              	.LFB7:
 330              		.loc 1 229 0
 331              		.cfi_startproc
 332              		@ Naked Function: prologue and epilogue provided by programmer.
 333              		@ args = 0, pretend = 0, frame = 0
 334              		@ frame_needed = 0, uses_anonymous_args = 0
 335              	.LVL19:
 336              		.loc 1 231 0
ARM GAS  /tmp/ccbpZSYU.s 			page 7


 337              	@ 231 "../../../os/ports/GCC/ARMCMx/chcore_v7m.c" 1
 338 0000 2DE9F04F 		push    {r4, r5, r6, r7, r8, r9, r10, r11, lr}
 339              	@ 0 "" 2
 340              		.loc 1 237 0
 341              	@ 237 "../../../os/ports/GCC/ARMCMx/chcore_v7m.c" 1
 342 0004 C1F80CD0 		str     sp, [r1, #12]                          
 343 0008 D0F80CD0 		ldr     sp, [r0, #12]
 344              	@ 0 "" 2
 345              		.loc 1 243 0
 346              	@ 243 "../../../os/ports/GCC/ARMCMx/chcore_v7m.c" 1
 347 000c BDE8F08F 		pop     {r4, r5, r6, r7, r8, r9, r10, r11, pc}
 348              	@ 0 "" 2
 349              		.loc 1 245 0
 350              		.thumb
 351              		.cfi_endproc
 352              	.LFE7:
 353              		.size	_port_switch, .-_port_switch
 354              		.section	.text._port_thread_start,"ax",%progbits
 355              		.align	2
 356              		.p2align 4,,15
 357              		.global	_port_thread_start
 358              		.thumb
 359              		.thumb_func
 360              		.type	_port_thread_start, %function
 361              	_port_thread_start:
 362              	.LFB8:
 363              		.loc 1 252 0
 364              		.cfi_startproc
 365              		@ args = 0, pretend = 0, frame = 0
 366              		@ frame_needed = 0, uses_anonymous_args = 0
 367 0000 08B5     		push	{r3, lr}
 368              		.cfi_def_cfa_offset 8
 369              		.cfi_offset 3, -8
 370              		.cfi_offset 14, -4
 371              		.loc 1 254 0
 372 0002 FFF7FEFF 		bl	dbg_check_unlock
 373              	.LVL20:
 374              	@ 254 "../../../os/ports/GCC/ARMCMx/chcore_v7m.c" 1
 375 0006 FFF7FEFF 		bl      _port_unlock
 376              	@ 0 "" 2
 377              		.loc 1 255 0
 378              	@ 255 "../../../os/ports/GCC/ARMCMx/chcore_v7m.c" 1
 379 000a 2846     		mov     r0, r5                                 
 380 000c A047     		blx     r4                                     
 381 000e FFF7FEFF 		bl      chThdExit
 382              	@ 0 "" 2
 383              		.thumb
 384 0012 08BD     		pop	{r3, pc}
 385              		.cfi_endproc
 386              	.LFE8:
 387              		.size	_port_thread_start, .-_port_thread_start
 388 0014 AFF30080 		.text
 388      AFF30080 
 388      AFF30080 
 389              	.Letext0:
 390              		.file 2 "/homes/msunkara/ASE-praticle-folder/gcc-arm-embedded/gcc-arm-none-eabi-4_8-2014q/arm-none
 391              		.file 3 "/homes/msunkara/ASE-praticle-folder/gcc-arm-embedded/gcc-arm-none-eabi-4_8-2014q/arm-none
ARM GAS  /tmp/ccbpZSYU.s 			page 8


 392              		.file 4 "../../../os/ports/GCC/ARMCMx/chtypes.h"
 393              		.file 5 "../../../os/kernel/include/chlists.h"
 394              		.file 6 "../../../os/kernel/include/chthreads.h"
 395              		.file 7 "../../../os/ports/GCC/ARMCMx/chcore_v7m.h"
 396              		.file 8 "../../../os/ports/common/ARMCMx/nvic.h"
 397              		.file 9 "../../../os/kernel/include/chschd.h"
 398              		.file 10 "../../../os/kernel/include/chmtx.h"
 399              		.file 11 "../../../os/kernel/include/chdebug.h"
 400              		.file 12 "../../../os/kernel/include/chsys.h"
