ARM GAS  /tmp/cc6oByD7.s 			page 1


   1              		.syntax unified
   2              		.cpu cortex-m3
   3              		.fpu softvfp
   4              		.eabi_attribute 20, 1
   5              		.eabi_attribute 21, 1
   6              		.eabi_attribute 23, 3
   7              		.eabi_attribute 24, 1
   8              		.eabi_attribute 25, 1
   9              		.eabi_attribute 26, 1
  10              		.eabi_attribute 30, 2
  11              		.eabi_attribute 34, 1
  12              		.eabi_attribute 18, 4
  13              		.thumb
  14              		.file	"chmboxes.c"
  15              		.text
  16              	.Ltext0:
  17              		.cfi_sections	.debug_frame
  18              		.section	.text.chMBInit,"ax",%progbits
  19              		.align	2
  20              		.p2align 4,,15
  21              		.global	chMBInit
  22              		.thumb
  23              		.thumb_func
  24              		.type	chMBInit, %function
  25              	chMBInit:
  26              	.LFB0:
  27              		.file 1 "../../../os/kernel/src/chmboxes.c"
  28              		.loc 1 72 0
  29              		.cfi_startproc
  30              		@ args = 0, pretend = 0, frame = 0
  31              		@ frame_needed = 0, uses_anonymous_args = 0
  32              	.LVL0:
  33 0000 70B5     		push	{r4, r5, r6, lr}
  34              		.cfi_def_cfa_offset 16
  35              		.cfi_offset 4, -16
  36              		.cfi_offset 5, -12
  37              		.cfi_offset 6, -8
  38              		.cfi_offset 14, -4
  39              		.loc 1 74 0
  40 0002 0446     		mov	r4, r0
  41              		.loc 1 72 0
  42 0004 0D46     		mov	r5, r1
  43 0006 1646     		mov	r6, r2
  44              		.loc 1 74 0
  45 0008 A0B1     		cbz	r0, .L2
  46              		.loc 1 74 0 is_stmt 0 discriminator 2
  47 000a 99B1     		cbz	r1, .L2
  48              		.loc 1 74 0 discriminator 1
  49 000c 002A     		cmp	r2, #0
  50 000e 11DD     		ble	.L2
  51              	.LVL1:
  52              	.L3:
  53              		.loc 1 77 0 is_stmt 1
  54 0010 05EB8603 		add	r3, r5, r6, lsl #2
  55              		.loc 1 78 0
  56 0014 3146     		mov	r1, r6
  57 0016 04F11C00 		add	r0, r4, #28
ARM GAS  /tmp/cc6oByD7.s 			page 2


  58              		.loc 1 76 0
  59 001a E560     		str	r5, [r4, #12]
  60 001c A560     		str	r5, [r4, #8]
  61 001e 2560     		str	r5, [r4]
  62              		.loc 1 77 0
  63 0020 6360     		str	r3, [r4, #4]
  64              		.loc 1 78 0
  65 0022 FFF7FEFF 		bl	chSemInit
  66              	.LVL2:
  67              		.loc 1 79 0
  68 0026 04F11000 		add	r0, r4, #16
  69 002a 0021     		movs	r1, #0
  70              		.loc 1 80 0
  71 002c BDE87040 		pop	{r4, r5, r6, lr}
  72              	.LVL3:
  73              		.loc 1 79 0
  74 0030 FFF7FEBF 		b	chSemInit
  75              	.LVL4:
  76              	.L2:
  77              		.loc 1 74 0 discriminator 1
  78 0034 0148     		ldr	r0, .L11
  79              	.LVL5:
  80 0036 FFF7FEFF 		bl	chDbgPanic
  81              	.LVL6:
  82 003a E9E7     		b	.L3
  83              	.L12:
  84              		.align	2
  85              	.L11:
  86 003c 00000000 		.word	.LC0
  87              		.cfi_endproc
  88              	.LFE0:
  89              		.size	chMBInit, .-chMBInit
  90              		.section	.text.chMBReset,"ax",%progbits
  91              		.align	2
  92              		.p2align 4,,15
  93              		.global	chMBReset
  94              		.thumb
  95              		.thumb_func
  96              		.type	chMBReset, %function
  97              	chMBReset:
  98              	.LFB1:
  99              		.loc 1 91 0
 100              		.cfi_startproc
 101              		@ args = 0, pretend = 0, frame = 0
 102              		@ frame_needed = 0, uses_anonymous_args = 0
 103              	.LVL7:
 104 0000 10B5     		push	{r4, lr}
 105              		.cfi_def_cfa_offset 8
 106              		.cfi_offset 4, -8
 107              		.cfi_offset 14, -4
 108              		.loc 1 93 0
 109 0002 0446     		mov	r4, r0
 110 0004 C8B1     		cbz	r0, .L15
 111              	.LVL8:
 112              	.L14:
 113              		.loc 1 95 0
 114              	@ 95 "../../../os/kernel/src/chmboxes.c" 1
ARM GAS  /tmp/cc6oByD7.s 			page 3


 115 0006 FFF7FEFF 		bl      _port_lock
 116              	@ 0 "" 2
 117              		.thumb
 118 000a FFF7FEFF 		bl	dbg_check_lock
 119              	.LVL9:
 120              		.loc 1 96 0
 121 000e 2368     		ldr	r3, [r4]
 122              		.loc 1 97 0
 123 0010 6168     		ldr	r1, [r4, #4]
 124              		.loc 1 96 0
 125 0012 E360     		str	r3, [r4, #12]
 126              		.loc 1 97 0
 127 0014 C91A     		subs	r1, r1, r3
 128              		.loc 1 96 0
 129 0016 A360     		str	r3, [r4, #8]
 130              		.loc 1 97 0
 131 0018 04F11C00 		add	r0, r4, #28
 132 001c 8910     		asrs	r1, r1, #2
 133 001e FFF7FEFF 		bl	chSemResetI
 134              	.LVL10:
 135              		.loc 1 98 0
 136 0022 04F11000 		add	r0, r4, #16
 137 0026 0021     		movs	r1, #0
 138 0028 FFF7FEFF 		bl	chSemResetI
 139              	.LVL11:
 140              		.loc 1 99 0
 141 002c FFF7FEFF 		bl	chSchRescheduleS
 142              	.LVL12:
 143              		.loc 1 100 0
 144 0030 FFF7FEFF 		bl	dbg_check_unlock
 145              	.LVL13:
 146              	@ 100 "../../../os/kernel/src/chmboxes.c" 1
 147 0034 FFF7FEFF 		bl      _port_unlock
 148              	@ 0 "" 2
 149              		.thumb
 150 0038 10BD     		pop	{r4, pc}
 151              	.LVL14:
 152              	.L15:
 153              		.loc 1 93 0 discriminator 1
 154 003a 0248     		ldr	r0, .L16
 155              	.LVL15:
 156 003c FFF7FEFF 		bl	chDbgPanic
 157              	.LVL16:
 158 0040 E1E7     		b	.L14
 159              	.L17:
 160 0042 00BF     		.align	2
 161              	.L16:
 162 0044 10000000 		.word	.LC1
 163              		.cfi_endproc
 164              	.LFE1:
 165              		.size	chMBReset, .-chMBReset
 166 0048 AFF30080 		.section	.text.chMBPostS,"ax",%progbits
 166      AFF30080 
 167              		.align	2
 168              		.p2align 4,,15
 169              		.global	chMBPostS
 170              		.thumb
ARM GAS  /tmp/cc6oByD7.s 			page 4


 171              		.thumb_func
 172              		.type	chMBPostS, %function
 173              	chMBPostS:
 174              	.LFB3:
 175              		.loc 1 150 0
 176              		.cfi_startproc
 177              		@ args = 0, pretend = 0, frame = 0
 178              		@ frame_needed = 0, uses_anonymous_args = 0
 179              	.LVL17:
 180 0000 70B5     		push	{r4, r5, r6, lr}
 181              		.cfi_def_cfa_offset 16
 182              		.cfi_offset 4, -16
 183              		.cfi_offset 5, -12
 184              		.cfi_offset 6, -8
 185              		.cfi_offset 14, -4
 186              		.loc 1 150 0
 187 0002 0446     		mov	r4, r0
 188 0004 0E46     		mov	r6, r1
 189 0006 1546     		mov	r5, r2
 190              		.loc 1 153 0
 191 0008 FFF7FEFF 		bl	chDbgCheckClassS
 192              	.LVL18:
 193              		.loc 1 154 0
 194 000c C4B1     		cbz	r4, .L22
 195              	.L19:
 196              		.loc 1 156 0
 197 000e 2946     		mov	r1, r5
 198 0010 04F11C00 		add	r0, r4, #28
 199 0014 FFF7FEFF 		bl	chSemWaitTimeoutS
 200              	.LVL19:
 201              		.loc 1 157 0
 202 0018 0546     		mov	r5, r0
 203              	.LVL20:
 204 001a 78B9     		cbnz	r0, .L20
 205              		.loc 1 158 0
 206 001c A268     		ldr	r2, [r4, #8]
 207              		.loc 1 159 0
 208 001e 6168     		ldr	r1, [r4, #4]
 209              		.loc 1 158 0
 210 0020 131D     		adds	r3, r2, #4
 211              		.loc 1 159 0
 212 0022 8B42     		cmp	r3, r1
 213              		.loc 1 158 0
 214 0024 A360     		str	r3, [r4, #8]
 215              		.loc 1 160 0
 216 0026 28BF     		it	cs
 217 0028 2368     		ldrcs	r3, [r4]
 218              		.loc 1 158 0
 219 002a 1660     		str	r6, [r2]
 220              		.loc 1 161 0
 221 002c 04F11000 		add	r0, r4, #16
 222              	.LVL21:
 223              		.loc 1 160 0
 224 0030 28BF     		it	cs
 225 0032 A360     		strcs	r3, [r4, #8]
 226              		.loc 1 161 0
 227 0034 FFF7FEFF 		bl	chSemSignalI
ARM GAS  /tmp/cc6oByD7.s 			page 5


 228              	.LVL22:
 229              		.loc 1 162 0
 230 0038 FFF7FEFF 		bl	chSchRescheduleS
 231              	.LVL23:
 232              	.L20:
 233              		.loc 1 165 0
 234 003c 2846     		mov	r0, r5
 235 003e 70BD     		pop	{r4, r5, r6, pc}
 236              	.LVL24:
 237              	.L22:
 238              		.loc 1 154 0 discriminator 1
 239 0040 0148     		ldr	r0, .L23
 240 0042 FFF7FEFF 		bl	chDbgPanic
 241              	.LVL25:
 242 0046 E2E7     		b	.L19
 243              	.L24:
 244              		.align	2
 245              	.L23:
 246 0048 20000000 		.word	.LC2
 247              		.cfi_endproc
 248              	.LFE3:
 249              		.size	chMBPostS, .-chMBPostS
 250 004c AFF30080 		.section	.text.chMBPost,"ax",%progbits
 251              		.align	2
 252              		.p2align 4,,15
 253              		.global	chMBPost
 254              		.thumb
 255              		.thumb_func
 256              		.type	chMBPost, %function
 257              	chMBPost:
 258              	.LFB2:
 259              		.loc 1 122 0
 260              		.cfi_startproc
 261              		@ args = 0, pretend = 0, frame = 0
 262              		@ frame_needed = 0, uses_anonymous_args = 0
 263              	.LVL26:
 264 0000 70B5     		push	{r4, r5, r6, lr}
 265              		.cfi_def_cfa_offset 16
 266              		.cfi_offset 4, -16
 267              		.cfi_offset 5, -12
 268              		.cfi_offset 6, -8
 269              		.cfi_offset 14, -4
 270              		.loc 1 122 0
 271 0002 0646     		mov	r6, r0
 272 0004 0D46     		mov	r5, r1
 273 0006 1446     		mov	r4, r2
 274              		.loc 1 125 0
 275              	@ 125 "../../../os/kernel/src/chmboxes.c" 1
 276 0008 FFF7FEFF 		bl      _port_lock
 277              	@ 0 "" 2
 278              		.thumb
 279 000c FFF7FEFF 		bl	dbg_check_lock
 280              	.LVL27:
 281              		.loc 1 126 0
 282 0010 2246     		mov	r2, r4
 283 0012 2946     		mov	r1, r5
 284 0014 3046     		mov	r0, r6
ARM GAS  /tmp/cc6oByD7.s 			page 6


 285 0016 FFF7FEFF 		bl	chMBPostS
 286              	.LVL28:
 287 001a 0446     		mov	r4, r0
 288              	.LVL29:
 289              		.loc 1 127 0
 290 001c FFF7FEFF 		bl	dbg_check_unlock
 291              	.LVL30:
 292              	@ 127 "../../../os/kernel/src/chmboxes.c" 1
 293 0020 FFF7FEFF 		bl      _port_unlock
 294              	@ 0 "" 2
 295              		.loc 1 129 0
 296              		.thumb
 297 0024 2046     		mov	r0, r4
 298 0026 70BD     		pop	{r4, r5, r6, pc}
 299              		.cfi_endproc
 300              	.LFE2:
 301              		.size	chMBPost, .-chMBPost
 302 0028 AFF30080 		.section	.text.chMBPostI,"ax",%progbits
 302      AFF30080 
 303              		.align	2
 304              		.p2align 4,,15
 305              		.global	chMBPostI
 306              		.thumb
 307              		.thumb_func
 308              		.type	chMBPostI, %function
 309              	chMBPostI:
 310              	.LFB4:
 311              		.loc 1 181 0
 312              		.cfi_startproc
 313              		@ args = 0, pretend = 0, frame = 0
 314              		@ frame_needed = 0, uses_anonymous_args = 0
 315              	.LVL31:
 316 0000 38B5     		push	{r3, r4, r5, lr}
 317              		.cfi_def_cfa_offset 16
 318              		.cfi_offset 3, -16
 319              		.cfi_offset 4, -12
 320              		.cfi_offset 5, -8
 321              		.cfi_offset 14, -4
 322              		.loc 1 181 0
 323 0002 0446     		mov	r4, r0
 324 0004 0D46     		mov	r5, r1
 325              		.loc 1 183 0
 326 0006 FFF7FEFF 		bl	chDbgCheckClassI
 327              	.LVL32:
 328              		.loc 1 184 0
 329 000a A4B1     		cbz	r4, .L31
 330              	.L27:
 331              		.loc 1 186 0
 332 000c 636A     		ldr	r3, [r4, #36]
 333 000e 002B     		cmp	r3, #0
 334 0010 15DD     		ble	.L30
 335              		.loc 1 189 0
 336 0012 A068     		ldr	r0, [r4, #8]
 337              		.loc 1 190 0
 338 0014 6168     		ldr	r1, [r4, #4]
 339              		.loc 1 189 0
 340 0016 021D     		adds	r2, r0, #4
ARM GAS  /tmp/cc6oByD7.s 			page 7


 341              		.loc 1 188 0
 342 0018 013B     		subs	r3, r3, #1
 343              		.loc 1 190 0
 344 001a 8A42     		cmp	r2, r1
 345              		.loc 1 188 0
 346 001c 6362     		str	r3, [r4, #36]
 347              		.loc 1 191 0
 348 001e 28BF     		it	cs
 349 0020 2368     		ldrcs	r3, [r4]
 350              		.loc 1 189 0
 351 0022 A260     		str	r2, [r4, #8]
 352 0024 0560     		str	r5, [r0]
 353              		.loc 1 192 0
 354 0026 04F11000 		add	r0, r4, #16
 355              		.loc 1 191 0
 356 002a 28BF     		it	cs
 357 002c A360     		strcs	r3, [r4, #8]
 358              		.loc 1 192 0
 359 002e FFF7FEFF 		bl	chSemSignalI
 360              	.LVL33:
 361              		.loc 1 193 0
 362 0032 0020     		movs	r0, #0
 363 0034 38BD     		pop	{r3, r4, r5, pc}
 364              	.LVL34:
 365              	.L31:
 366              		.loc 1 184 0 discriminator 1
 367 0036 0348     		ldr	r0, .L32
 368 0038 FFF7FEFF 		bl	chDbgPanic
 369              	.LVL35:
 370 003c E6E7     		b	.L27
 371              	.L30:
 372              		.loc 1 187 0
 373 003e 4FF0FF30 		mov	r0, #-1
 374              		.loc 1 194 0
 375 0042 38BD     		pop	{r3, r4, r5, pc}
 376              	.LVL36:
 377              	.L33:
 378              		.align	2
 379              	.L32:
 380 0044 30000000 		.word	.LC3
 381              		.cfi_endproc
 382              	.LFE4:
 383              		.size	chMBPostI, .-chMBPostI
 384 0048 AFF30080 		.section	.text.chMBPostAheadS,"ax",%progbits
 384      AFF30080 
 385              		.align	2
 386              		.p2align 4,,15
 387              		.global	chMBPostAheadS
 388              		.thumb
 389              		.thumb_func
 390              		.type	chMBPostAheadS, %function
 391              	chMBPostAheadS:
 392              	.LFB6:
 393              		.loc 1 243 0
 394              		.cfi_startproc
 395              		@ args = 0, pretend = 0, frame = 0
 396              		@ frame_needed = 0, uses_anonymous_args = 0
ARM GAS  /tmp/cc6oByD7.s 			page 8


 397              	.LVL37:
 398 0000 70B5     		push	{r4, r5, r6, lr}
 399              		.cfi_def_cfa_offset 16
 400              		.cfi_offset 4, -16
 401              		.cfi_offset 5, -12
 402              		.cfi_offset 6, -8
 403              		.cfi_offset 14, -4
 404              		.loc 1 243 0
 405 0002 0446     		mov	r4, r0
 406 0004 0E46     		mov	r6, r1
 407 0006 1546     		mov	r5, r2
 408              		.loc 1 246 0
 409 0008 FFF7FEFF 		bl	chDbgCheckClassS
 410              	.LVL38:
 411              		.loc 1 247 0
 412 000c CCB1     		cbz	r4, .L38
 413              	.L35:
 414              		.loc 1 249 0
 415 000e 2946     		mov	r1, r5
 416 0010 04F11C00 		add	r0, r4, #28
 417 0014 FFF7FEFF 		bl	chSemWaitTimeoutS
 418              	.LVL39:
 419              		.loc 1 250 0
 420 0018 0546     		mov	r5, r0
 421              	.LVL40:
 422 001a 60B9     		cbnz	r0, .L36
 423              		.loc 1 251 0
 424 001c E368     		ldr	r3, [r4, #12]
 425 001e 2268     		ldr	r2, [r4]
 426 0020 043B     		subs	r3, r3, #4
 427 0022 9342     		cmp	r3, r2
 428 0024 E360     		str	r3, [r4, #12]
 429 0026 08D3     		bcc	.L39
 430              	.L37:
 431              		.loc 1 253 0
 432 0028 1E60     		str	r6, [r3]
 433              		.loc 1 254 0
 434 002a 04F11000 		add	r0, r4, #16
 435              	.LVL41:
 436 002e FFF7FEFF 		bl	chSemSignalI
 437              	.LVL42:
 438              		.loc 1 255 0
 439 0032 FFF7FEFF 		bl	chSchRescheduleS
 440              	.LVL43:
 441              	.L36:
 442              		.loc 1 258 0
 443 0036 2846     		mov	r0, r5
 444 0038 70BD     		pop	{r4, r5, r6, pc}
 445              	.LVL44:
 446              	.L39:
 447              		.loc 1 252 0
 448 003a 6368     		ldr	r3, [r4, #4]
 449 003c 043B     		subs	r3, r3, #4
 450 003e E360     		str	r3, [r4, #12]
 451 0040 F2E7     		b	.L37
 452              	.LVL45:
 453              	.L38:
ARM GAS  /tmp/cc6oByD7.s 			page 9


 454              		.loc 1 247 0 discriminator 1
 455 0042 0248     		ldr	r0, .L40
 456 0044 FFF7FEFF 		bl	chDbgPanic
 457              	.LVL46:
 458 0048 E1E7     		b	.L35
 459              	.L41:
 460 004a 00BF     		.align	2
 461              	.L40:
 462 004c 40000000 		.word	.LC4
 463              		.cfi_endproc
 464              	.LFE6:
 465              		.size	chMBPostAheadS, .-chMBPostAheadS
 466              		.section	.text.chMBPostAhead,"ax",%progbits
 467              		.align	2
 468              		.p2align 4,,15
 469              		.global	chMBPostAhead
 470              		.thumb
 471              		.thumb_func
 472              		.type	chMBPostAhead, %function
 473              	chMBPostAhead:
 474              	.LFB5:
 475              		.loc 1 215 0
 476              		.cfi_startproc
 477              		@ args = 0, pretend = 0, frame = 0
 478              		@ frame_needed = 0, uses_anonymous_args = 0
 479              	.LVL47:
 480 0000 70B5     		push	{r4, r5, r6, lr}
 481              		.cfi_def_cfa_offset 16
 482              		.cfi_offset 4, -16
 483              		.cfi_offset 5, -12
 484              		.cfi_offset 6, -8
 485              		.cfi_offset 14, -4
 486              		.loc 1 215 0
 487 0002 0646     		mov	r6, r0
 488 0004 0D46     		mov	r5, r1
 489 0006 1446     		mov	r4, r2
 490              		.loc 1 218 0
 491              	@ 218 "../../../os/kernel/src/chmboxes.c" 1
 492 0008 FFF7FEFF 		bl      _port_lock
 493              	@ 0 "" 2
 494              		.thumb
 495 000c FFF7FEFF 		bl	dbg_check_lock
 496              	.LVL48:
 497              		.loc 1 219 0
 498 0010 2246     		mov	r2, r4
 499 0012 2946     		mov	r1, r5
 500 0014 3046     		mov	r0, r6
 501 0016 FFF7FEFF 		bl	chMBPostAheadS
 502              	.LVL49:
 503 001a 0446     		mov	r4, r0
 504              	.LVL50:
 505              		.loc 1 220 0
 506 001c FFF7FEFF 		bl	dbg_check_unlock
 507              	.LVL51:
 508              	@ 220 "../../../os/kernel/src/chmboxes.c" 1
 509 0020 FFF7FEFF 		bl      _port_unlock
 510              	@ 0 "" 2
ARM GAS  /tmp/cc6oByD7.s 			page 10


 511              		.loc 1 222 0
 512              		.thumb
 513 0024 2046     		mov	r0, r4
 514 0026 70BD     		pop	{r4, r5, r6, pc}
 515              		.cfi_endproc
 516              	.LFE5:
 517              		.size	chMBPostAhead, .-chMBPostAhead
 518 0028 AFF30080 		.section	.text.chMBPostAheadI,"ax",%progbits
 518      AFF30080 
 519              		.align	2
 520              		.p2align 4,,15
 521              		.global	chMBPostAheadI
 522              		.thumb
 523              		.thumb_func
 524              		.type	chMBPostAheadI, %function
 525              	chMBPostAheadI:
 526              	.LFB7:
 527              		.loc 1 274 0
 528              		.cfi_startproc
 529              		@ args = 0, pretend = 0, frame = 0
 530              		@ frame_needed = 0, uses_anonymous_args = 0
 531              	.LVL52:
 532 0000 38B5     		push	{r3, r4, r5, lr}
 533              		.cfi_def_cfa_offset 16
 534              		.cfi_offset 3, -16
 535              		.cfi_offset 4, -12
 536              		.cfi_offset 5, -8
 537              		.cfi_offset 14, -4
 538              		.loc 1 274 0
 539 0002 0446     		mov	r4, r0
 540 0004 0D46     		mov	r5, r1
 541              		.loc 1 276 0
 542 0006 FFF7FEFF 		bl	chDbgCheckClassI
 543              	.LVL53:
 544              		.loc 1 277 0
 545 000a A4B1     		cbz	r4, .L48
 546              	.L44:
 547              		.loc 1 279 0
 548 000c 626A     		ldr	r2, [r4, #36]
 549 000e 002A     		cmp	r2, #0
 550 0010 15DD     		ble	.L47
 551              		.loc 1 282 0
 552 0012 E368     		ldr	r3, [r4, #12]
 553 0014 2168     		ldr	r1, [r4]
 554 0016 043B     		subs	r3, r3, #4
 555              		.loc 1 281 0
 556 0018 013A     		subs	r2, r2, #1
 557              		.loc 1 282 0
 558 001a 8B42     		cmp	r3, r1
 559              		.loc 1 281 0
 560 001c 6262     		str	r2, [r4, #36]
 561              		.loc 1 282 0
 562 001e E360     		str	r3, [r4, #12]
 563 0020 02D2     		bcs	.L46
 564              		.loc 1 283 0
 565 0022 6368     		ldr	r3, [r4, #4]
 566 0024 043B     		subs	r3, r3, #4
ARM GAS  /tmp/cc6oByD7.s 			page 11


 567 0026 E360     		str	r3, [r4, #12]
 568              	.L46:
 569              		.loc 1 285 0
 570 0028 04F11000 		add	r0, r4, #16
 571              		.loc 1 284 0
 572 002c 1D60     		str	r5, [r3]
 573              		.loc 1 285 0
 574 002e FFF7FEFF 		bl	chSemSignalI
 575              	.LVL54:
 576              		.loc 1 286 0
 577 0032 0020     		movs	r0, #0
 578 0034 38BD     		pop	{r3, r4, r5, pc}
 579              	.LVL55:
 580              	.L48:
 581              		.loc 1 277 0 discriminator 1
 582 0036 0348     		ldr	r0, .L49
 583 0038 FFF7FEFF 		bl	chDbgPanic
 584              	.LVL56:
 585 003c E6E7     		b	.L44
 586              	.L47:
 587              		.loc 1 280 0
 588 003e 4FF0FF30 		mov	r0, #-1
 589              		.loc 1 287 0
 590 0042 38BD     		pop	{r3, r4, r5, pc}
 591              	.LVL57:
 592              	.L50:
 593              		.align	2
 594              	.L49:
 595 0044 54000000 		.word	.LC5
 596              		.cfi_endproc
 597              	.LFE7:
 598              		.size	chMBPostAheadI, .-chMBPostAheadI
 599 0048 AFF30080 		.section	.text.chMBFetchS,"ax",%progbits
 599      AFF30080 
 600              		.align	2
 601              		.p2align 4,,15
 602              		.global	chMBFetchS
 603              		.thumb
 604              		.thumb_func
 605              		.type	chMBFetchS, %function
 606              	chMBFetchS:
 607              	.LFB9:
 608              		.loc 1 336 0
 609              		.cfi_startproc
 610              		@ args = 0, pretend = 0, frame = 0
 611              		@ frame_needed = 0, uses_anonymous_args = 0
 612              	.LVL58:
 613 0000 70B5     		push	{r4, r5, r6, lr}
 614              		.cfi_def_cfa_offset 16
 615              		.cfi_offset 4, -16
 616              		.cfi_offset 5, -12
 617              		.cfi_offset 6, -8
 618              		.cfi_offset 14, -4
 619              		.loc 1 336 0
 620 0002 0446     		mov	r4, r0
 621 0004 0E46     		mov	r6, r1
 622 0006 1546     		mov	r5, r2
ARM GAS  /tmp/cc6oByD7.s 			page 12


 623              		.loc 1 339 0
 624 0008 FFF7FEFF 		bl	chDbgCheckClassS
 625              	.LVL59:
 626              		.loc 1 340 0
 627 000c D4B1     		cbz	r4, .L52
 628              		.loc 1 340 0 is_stmt 0 discriminator 2
 629 000e CEB1     		cbz	r6, .L52
 630              	.L53:
 631              		.loc 1 342 0 is_stmt 1
 632 0010 2946     		mov	r1, r5
 633 0012 04F11000 		add	r0, r4, #16
 634 0016 FFF7FEFF 		bl	chSemWaitTimeoutS
 635              	.LVL60:
 636              		.loc 1 343 0
 637 001a 0546     		mov	r5, r0
 638              	.LVL61:
 639 001c 80B9     		cbnz	r0, .L54
 640              		.loc 1 344 0
 641 001e E368     		ldr	r3, [r4, #12]
 642              		.loc 1 345 0
 643 0020 6268     		ldr	r2, [r4, #4]
 644              		.loc 1 344 0
 645 0022 1968     		ldr	r1, [r3]
 646 0024 0433     		adds	r3, r3, #4
 647              		.loc 1 345 0
 648 0026 9342     		cmp	r3, r2
 649              		.loc 1 344 0
 650 0028 E360     		str	r3, [r4, #12]
 651              		.loc 1 346 0
 652 002a 28BF     		it	cs
 653 002c 2368     		ldrcs	r3, [r4]
 654              		.loc 1 344 0
 655 002e 3160     		str	r1, [r6]
 656              		.loc 1 347 0
 657 0030 04F11C00 		add	r0, r4, #28
 658              	.LVL62:
 659              		.loc 1 346 0
 660 0034 28BF     		it	cs
 661 0036 E360     		strcs	r3, [r4, #12]
 662              		.loc 1 347 0
 663 0038 FFF7FEFF 		bl	chSemSignalI
 664              	.LVL63:
 665              		.loc 1 348 0
 666 003c FFF7FEFF 		bl	chSchRescheduleS
 667              	.LVL64:
 668              	.L54:
 669              		.loc 1 351 0
 670 0040 2846     		mov	r0, r5
 671 0042 70BD     		pop	{r4, r5, r6, pc}
 672              	.LVL65:
 673              	.L52:
 674              		.loc 1 340 0 discriminator 1
 675 0044 0148     		ldr	r0, .L59
 676 0046 FFF7FEFF 		bl	chDbgPanic
 677              	.LVL66:
 678 004a E1E7     		b	.L53
 679              	.L60:
ARM GAS  /tmp/cc6oByD7.s 			page 13


 680              		.align	2
 681              	.L59:
 682 004c 68000000 		.word	.LC6
 683              		.cfi_endproc
 684              	.LFE9:
 685              		.size	chMBFetchS, .-chMBFetchS
 686              		.section	.text.chMBFetch,"ax",%progbits
 687              		.align	2
 688              		.p2align 4,,15
 689              		.global	chMBFetch
 690              		.thumb
 691              		.thumb_func
 692              		.type	chMBFetch, %function
 693              	chMBFetch:
 694              	.LFB8:
 695              		.loc 1 308 0
 696              		.cfi_startproc
 697              		@ args = 0, pretend = 0, frame = 0
 698              		@ frame_needed = 0, uses_anonymous_args = 0
 699              	.LVL67:
 700 0000 70B5     		push	{r4, r5, r6, lr}
 701              		.cfi_def_cfa_offset 16
 702              		.cfi_offset 4, -16
 703              		.cfi_offset 5, -12
 704              		.cfi_offset 6, -8
 705              		.cfi_offset 14, -4
 706              		.loc 1 308 0
 707 0002 0646     		mov	r6, r0
 708 0004 0D46     		mov	r5, r1
 709 0006 1446     		mov	r4, r2
 710              		.loc 1 311 0
 711              	@ 311 "../../../os/kernel/src/chmboxes.c" 1
 712 0008 FFF7FEFF 		bl      _port_lock
 713              	@ 0 "" 2
 714              		.thumb
 715 000c FFF7FEFF 		bl	dbg_check_lock
 716              	.LVL68:
 717              		.loc 1 312 0
 718 0010 2246     		mov	r2, r4
 719 0012 2946     		mov	r1, r5
 720 0014 3046     		mov	r0, r6
 721 0016 FFF7FEFF 		bl	chMBFetchS
 722              	.LVL69:
 723 001a 0446     		mov	r4, r0
 724              	.LVL70:
 725              		.loc 1 313 0
 726 001c FFF7FEFF 		bl	dbg_check_unlock
 727              	.LVL71:
 728              	@ 313 "../../../os/kernel/src/chmboxes.c" 1
 729 0020 FFF7FEFF 		bl      _port_unlock
 730              	@ 0 "" 2
 731              		.loc 1 315 0
 732              		.thumb
 733 0024 2046     		mov	r0, r4
 734 0026 70BD     		pop	{r4, r5, r6, pc}
 735              		.cfi_endproc
 736              	.LFE8:
ARM GAS  /tmp/cc6oByD7.s 			page 14


 737              		.size	chMBFetch, .-chMBFetch
 738 0028 AFF30080 		.section	.text.chMBFetchI,"ax",%progbits
 738      AFF30080 
 739              		.align	2
 740              		.p2align 4,,15
 741              		.global	chMBFetchI
 742              		.thumb
 743              		.thumb_func
 744              		.type	chMBFetchI, %function
 745              	chMBFetchI:
 746              	.LFB10:
 747              		.loc 1 367 0
 748              		.cfi_startproc
 749              		@ args = 0, pretend = 0, frame = 0
 750              		@ frame_needed = 0, uses_anonymous_args = 0
 751              	.LVL72:
 752 0000 38B5     		push	{r3, r4, r5, lr}
 753              		.cfi_def_cfa_offset 16
 754              		.cfi_offset 3, -16
 755              		.cfi_offset 4, -12
 756              		.cfi_offset 5, -8
 757              		.cfi_offset 14, -4
 758              		.loc 1 367 0
 759 0002 0446     		mov	r4, r0
 760 0004 0D46     		mov	r5, r1
 761              		.loc 1 369 0
 762 0006 FFF7FEFF 		bl	chDbgCheckClassI
 763              	.LVL73:
 764              		.loc 1 370 0
 765 000a B4B1     		cbz	r4, .L63
 766              		.loc 1 370 0 is_stmt 0 discriminator 2
 767 000c ADB1     		cbz	r5, .L63
 768              	.L64:
 769              		.loc 1 372 0 is_stmt 1
 770 000e A369     		ldr	r3, [r4, #24]
 771 0010 002B     		cmp	r3, #0
 772 0012 16DD     		ble	.L67
 773              		.loc 1 374 0
 774 0014 5A1E     		subs	r2, r3, #1
 775              		.loc 1 375 0
 776 0016 E368     		ldr	r3, [r4, #12]
 777              		.loc 1 374 0
 778 0018 A261     		str	r2, [r4, #24]
 779              		.loc 1 376 0
 780 001a 6268     		ldr	r2, [r4, #4]
 781              		.loc 1 375 0
 782 001c 1968     		ldr	r1, [r3]
 783 001e 0433     		adds	r3, r3, #4
 784              		.loc 1 376 0
 785 0020 9342     		cmp	r3, r2
 786              		.loc 1 375 0
 787 0022 E360     		str	r3, [r4, #12]
 788              		.loc 1 377 0
 789 0024 28BF     		it	cs
 790 0026 2368     		ldrcs	r3, [r4]
 791              		.loc 1 375 0
 792 0028 2960     		str	r1, [r5]
ARM GAS  /tmp/cc6oByD7.s 			page 15


 793              		.loc 1 378 0
 794 002a 04F11C00 		add	r0, r4, #28
 795              		.loc 1 377 0
 796 002e 28BF     		it	cs
 797 0030 E360     		strcs	r3, [r4, #12]
 798              		.loc 1 378 0
 799 0032 FFF7FEFF 		bl	chSemSignalI
 800              	.LVL74:
 801              		.loc 1 379 0
 802 0036 0020     		movs	r0, #0
 803 0038 38BD     		pop	{r3, r4, r5, pc}
 804              	.LVL75:
 805              	.L63:
 806              		.loc 1 370 0 discriminator 1
 807 003a 0348     		ldr	r0, .L71
 808 003c FFF7FEFF 		bl	chDbgPanic
 809              	.LVL76:
 810 0040 E5E7     		b	.L64
 811              	.L67:
 812              		.loc 1 373 0
 813 0042 4FF0FF30 		mov	r0, #-1
 814              		.loc 1 380 0
 815 0046 38BD     		pop	{r3, r4, r5, pc}
 816              	.LVL77:
 817              	.L72:
 818              		.align	2
 819              	.L71:
 820 0048 78000000 		.word	.LC7
 821              		.cfi_endproc
 822              	.LFE10:
 823              		.size	chMBFetchI, .-chMBFetchI
 824 004c AFF30080 		.section	.rodata.str1.4,"aMS",%progbits,1
 825              		.align	2
 826              	.LC0:
 827 0000 2263684D 		.ascii	"\"chMBInit\"()\000"
 827      42496E69 
 827      74222829 
 827      00
 828 000d 000000   		.space	3
 829              	.LC1:
 830 0010 2263684D 		.ascii	"\"chMBReset\"()\000"
 830      42526573 
 830      65742228 
 830      2900
 831 001e 0000     		.space	2
 832              	.LC2:
 833 0020 2263684D 		.ascii	"\"chMBPostS\"()\000"
 833      42506F73 
 833      74532228 
 833      2900
 834 002e 0000     		.space	2
 835              	.LC3:
 836 0030 2263684D 		.ascii	"\"chMBPostI\"()\000"
 836      42506F73 
 836      74492228 
 836      2900
 837 003e 0000     		.space	2
ARM GAS  /tmp/cc6oByD7.s 			page 16


 838              	.LC4:
 839 0040 2263684D 		.ascii	"\"chMBPostAheadS\"()\000"
 839      42506F73 
 839      74416865 
 839      61645322 
 839      282900
 840 0053 00       		.space	1
 841              	.LC5:
 842 0054 2263684D 		.ascii	"\"chMBPostAheadI\"()\000"
 842      42506F73 
 842      74416865 
 842      61644922 
 842      282900
 843 0067 00       		.space	1
 844              	.LC6:
 845 0068 2263684D 		.ascii	"\"chMBFetchS\"()\000"
 845      42466574 
 845      63685322 
 845      282900
 846 0077 00       		.space	1
 847              	.LC7:
 848 0078 2263684D 		.ascii	"\"chMBFetchI\"()\000"
 848      42466574 
 848      63684922 
 848      282900
 849 0087 00       		.text
 850              	.Letext0:
 851              		.file 2 "/homes/msunkara/ASE-praticle-folder/gcc-arm-embedded/gcc-arm-none-eabi-4_8-2014q/arm-none
 852              		.file 3 "/homes/msunkara/ASE-praticle-folder/gcc-arm-embedded/gcc-arm-none-eabi-4_8-2014q/arm-none
 853              		.file 4 "../../../os/ports/GCC/ARMCMx/chtypes.h"
 854              		.file 5 "../../../os/kernel/include/chlists.h"
 855              		.file 6 "../../../os/kernel/include/chthreads.h"
 856              		.file 7 "../../../os/ports/GCC/ARMCMx/chcore_v7m.h"
 857              		.file 8 "../../../os/kernel/include/chsem.h"
 858              		.file 9 "../../../os/kernel/include/chmtx.h"
 859              		.file 10 "../../../os/kernel/include/chmboxes.h"
 860              		.file 11 "../../../os/kernel/include/chdebug.h"
 861              		.file 12 "../../../os/kernel/include/chschd.h"
