ARM GAS  /tmp/ccfY2MYf.s 			page 1


   1              		.syntax unified
   2              		.cpu cortex-m3
   3              		.fpu softvfp
   4              		.eabi_attribute 20, 1
   5              		.eabi_attribute 21, 1
   6              		.eabi_attribute 23, 3
   7              		.eabi_attribute 24, 1
   8              		.eabi_attribute 25, 1
   9              		.eabi_attribute 26, 1
  10              		.eabi_attribute 30, 2
  11              		.eabi_attribute 34, 1
  12              		.eabi_attribute 18, 4
  13              		.thumb
  14              		.file	"chschd.c"
  15              		.text
  16              	.Ltext0:
  17              		.cfi_sections	.debug_frame
  18              		.section	.text._scheduler_init,"ax",%progbits
  19              		.align	2
  20              		.p2align 4,,15
  21              		.global	_scheduler_init
  22              		.thumb
  23              		.thumb_func
  24              		.type	_scheduler_init, %function
  25              	_scheduler_init:
  26              	.LFB0:
  27              		.file 1 "../../../os/kernel/src/chschd.c"
  28              		.loc 1 55 0
  29              		.cfi_startproc
  30              		@ args = 0, pretend = 0, frame = 0
  31              		@ frame_needed = 0, uses_anonymous_args = 0
  32              		@ link register save eliminated.
  33              		.loc 1 57 0
  34 0000 034B     		ldr	r3, .L2
  35              		.loc 1 58 0
  36 0002 0022     		movs	r2, #0
  37              		.loc 1 57 0
  38 0004 5B60     		str	r3, [r3, #4]
  39 0006 1B60     		str	r3, [r3]
  40              		.loc 1 60 0
  41 0008 5B61     		str	r3, [r3, #20]
  42 000a 1B61     		str	r3, [r3, #16]
  43              		.loc 1 58 0
  44 000c 9A60     		str	r2, [r3, #8]
  45 000e 7047     		bx	lr
  46              	.L3:
  47              		.align	2
  48              	.L2:
  49 0010 00000000 		.word	.LANCHOR0
  50              		.cfi_endproc
  51              	.LFE0:
  52              		.size	_scheduler_init, .-_scheduler_init
  53 0014 AFF30080 		.section	.text.chSchReadyI,"ax",%progbits
  53      AFF30080 
  53      AFF30080 
  54              		.align	2
  55              		.p2align 4,,15
ARM GAS  /tmp/ccfY2MYf.s 			page 2


  56              		.global	chSchReadyI
  57              		.thumb
  58              		.thumb_func
  59              		.type	chSchReadyI, %function
  60              	chSchReadyI:
  61              	.LFB1:
  62              		.loc 1 81 0
  63              		.cfi_startproc
  64              		@ args = 0, pretend = 0, frame = 0
  65              		@ frame_needed = 0, uses_anonymous_args = 0
  66              	.LVL0:
  67 0000 10B5     		push	{r4, lr}
  68              		.cfi_def_cfa_offset 8
  69              		.cfi_offset 4, -8
  70              		.cfi_offset 14, -4
  71              		.loc 1 81 0
  72 0002 0446     		mov	r4, r0
  73              		.loc 1 84 0
  74 0004 FFF7FEFF 		bl	chDbgCheckClassI
  75              	.LVL1:
  76              		.loc 1 87 0
  77 0008 94F82030 		ldrb	r3, [r4, #32]	@ zero_extendqisi2
  78 000c 8BB1     		cbz	r3, .L5
  79              		.loc 1 87 0 is_stmt 0 discriminator 2
  80 000e 0E2B     		cmp	r3, #14
  81 0010 0FD0     		beq	.L5
  82              	.L6:
  83              		.loc 1 92 0 is_stmt 1
  84 0012 0022     		movs	r2, #0
  85 0014 A168     		ldr	r1, [r4, #8]
  86              		.loc 1 93 0
  87 0016 094B     		ldr	r3, .L13
  88              		.loc 1 92 0
  89 0018 84F82020 		strb	r2, [r4, #32]
  90              	.LVL2:
  91              	.L8:
  92              		.loc 1 95 0 discriminator 1
  93 001c 1B68     		ldr	r3, [r3]
  94              	.LVL3:
  95              		.loc 1 96 0 discriminator 1
  96 001e 9A68     		ldr	r2, [r3, #8]
  97 0020 8A42     		cmp	r2, r1
  98 0022 FBD2     		bcs	.L8
  99              		.loc 1 99 0
 100 0024 5A68     		ldr	r2, [r3, #4]
 101              		.loc 1 102 0
 102 0026 2046     		mov	r0, r4
 103              		.loc 1 98 0
 104 0028 2360     		str	r3, [r4]
 105              		.loc 1 99 0
 106 002a 6260     		str	r2, [r4, #4]
 107              		.loc 1 100 0
 108 002c 5C60     		str	r4, [r3, #4]
 109 002e 1460     		str	r4, [r2]
 110              		.loc 1 102 0
 111 0030 10BD     		pop	{r4, pc}
 112              	.LVL4:
ARM GAS  /tmp/ccfY2MYf.s 			page 3


 113              	.L5:
 114              		.loc 1 87 0 discriminator 1
 115 0032 0348     		ldr	r0, .L13+4
 116 0034 FFF7FEFF 		bl	chDbgPanic
 117              	.LVL5:
 118 0038 EBE7     		b	.L6
 119              	.L14:
 120 003a 00BF     		.align	2
 121              	.L13:
 122 003c 00000000 		.word	.LANCHOR0
 123 0040 00000000 		.word	.LC0
 124              		.cfi_endproc
 125              	.LFE1:
 126              		.size	chSchReadyI, .-chSchReadyI
 127 0044 AFF30080 		.section	.text.wakeup,"ax",%progbits
 127      AFF30080 
 127      AFF30080 
 128              		.align	2
 129              		.p2align 4,,15
 130              		.thumb
 131              		.thumb_func
 132              		.type	wakeup, %function
 133              	wakeup:
 134              	.LFB3:
 135              		.loc 1 136 0
 136              		.cfi_startproc
 137              		@ args = 0, pretend = 0, frame = 0
 138              		@ frame_needed = 0, uses_anonymous_args = 0
 139              	.LVL6:
 140 0000 10B5     		push	{r4, lr}
 141              		.cfi_def_cfa_offset 8
 142              		.cfi_offset 4, -8
 143              		.cfi_offset 14, -4
 144              		.loc 1 136 0
 145 0002 0446     		mov	r4, r0
 146              	.LVL7:
 147              		.loc 1 139 0
 148              	@ 139 "../../../os/kernel/src/chschd.c" 1
 149 0004 FFF7FEFF 		bl      _port_lock
 150              	@ 0 "" 2
 151              		.thumb
 152 0008 FFF7FEFF 		bl	dbg_check_lock_from_isr
 153              	.LVL8:
 154              		.loc 1 140 0
 155 000c 94F82030 		ldrb	r3, [r4, #32]	@ zero_extendqisi2
 156 0010 032B     		cmp	r3, #3
 157 0012 0DD0     		beq	.L17
 158 0014 0D2B     		cmp	r3, #13
 159 0016 0FD0     		beq	.L18
 160 0018 2BB1     		cbz	r3, .L24
 161              	.L16:
 162              		.loc 1 163 0
 163 001a 4FF0FF33 		mov	r3, #-1
 164 001e A362     		str	r3, [r4, #40]
 165              		.loc 1 164 0
 166 0020 2046     		mov	r0, r4
 167 0022 FFF7FEFF 		bl	chSchReadyI
ARM GAS  /tmp/ccfY2MYf.s 			page 4


 168              	.LVL9:
 169              	.L24:
 170              		.loc 1 165 0
 171 0026 FFF7FEFF 		bl	dbg_check_unlock_from_isr
 172              	.LVL10:
 173              	@ 165 "../../../os/kernel/src/chschd.c" 1
 174 002a FFF7FEFF 		bl      _port_unlock
 175              	@ 0 "" 2
 176              		.thumb
 177 002e 10BD     		pop	{r4, pc}
 178              	.LVL11:
 179              	.L17:
 180              		.loc 1 150 0
 181 0030 A36A     		ldr	r3, [r4, #40]
 182 0032 9A68     		ldr	r2, [r3, #8]
 183 0034 0132     		adds	r2, r2, #1
 184 0036 9A60     		str	r2, [r3, #8]
 185              	.L18:
 186              		.loc 1 160 0
 187 0038 2046     		mov	r0, r4
 188 003a FFF7FEFF 		bl	dequeue
 189              	.LVL12:
 190 003e ECE7     		b	.L16
 191              		.cfi_endproc
 192              	.LFE3:
 193              		.size	wakeup, .-wakeup
 194              		.section	.text.chSchGoSleepS,"ax",%progbits
 195              		.align	2
 196              		.p2align 4,,15
 197              		.global	chSchGoSleepS
 198              		.thumb
 199              		.thumb_func
 200              		.type	chSchGoSleepS, %function
 201              	chSchGoSleepS:
 202              	.LFB2:
 203              		.loc 1 115 0
 204              		.cfi_startproc
 205              		@ args = 0, pretend = 0, frame = 0
 206              		@ frame_needed = 0, uses_anonymous_args = 0
 207              	.LVL13:
 208 0000 70B5     		push	{r4, r5, r6, lr}
 209              		.cfi_def_cfa_offset 16
 210              		.cfi_offset 4, -16
 211              		.cfi_offset 5, -12
 212              		.cfi_offset 6, -8
 213              		.cfi_offset 14, -4
 214              		.loc 1 120 0
 215 0002 0E4C     		ldr	r4, .L27
 216              		.loc 1 115 0
 217 0004 0646     		mov	r6, r0
 218              		.loc 1 118 0
 219 0006 FFF7FEFF 		bl	chDbgCheckClassS
 220              	.LVL14:
 221              		.loc 1 120 0
 222 000a A569     		ldr	r5, [r4, #24]
 223              	.LVL15:
 224              		.loc 1 126 0
ARM GAS  /tmp/ccfY2MYf.s 			page 5


 225 000c 2046     		mov	r0, r4
 226              		.loc 1 120 0
 227 000e 85F82060 		strb	r6, [r5, #32]
 228              		.loc 1 126 0
 229 0012 FFF7FEFF 		bl	fifo_remove
 230              	.LVL16:
 231              	.LBB2:
 232              		.loc 1 128 0
 233 0016 EA69     		ldr	r2, [r5, #28]
 234 0018 ADF12403 		sub	r3, sp, #36
 235              	.LBE2:
 236              		.loc 1 127 0
 237 001c 0121     		movs	r1, #1
 238              	.LBB3:
 239              		.loc 1 128 0
 240 001e 9A42     		cmp	r2, r3
 241              	.LBE3:
 242              		.loc 1 126 0
 243 0020 A061     		str	r0, [r4, #24]
 244              		.loc 1 127 0
 245 0022 80F82010 		strb	r1, [r0, #32]
 246              	.LBB4:
 247              		.loc 1 128 0
 248 0026 03D9     		bls	.L26
 249              		.loc 1 128 0 is_stmt 0 discriminator 1
 250 0028 0548     		ldr	r0, .L27+4
 251 002a FFF7FEFF 		bl	chDbgPanic
 252              	.LVL17:
 253 002e A069     		ldr	r0, [r4, #24]
 254              	.L26:
 255              		.loc 1 128 0 discriminator 2
 256 0030 2946     		mov	r1, r5
 257              	.LBE4:
 258              		.loc 1 129 0 is_stmt 1 discriminator 2
 259 0032 BDE87040 		pop	{r4, r5, r6, lr}
 260              	.LVL18:
 261              	.LBB5:
 262              		.loc 1 128 0 discriminator 2
 263 0036 FFF7FEBF 		b	_port_switch
 264              	.LVL19:
 265              	.L28:
 266 003a 00BF     		.align	2
 267              	.L27:
 268 003c 00000000 		.word	.LANCHOR0
 269 0040 14000000 		.word	.LC1
 270              	.LBE5:
 271              		.cfi_endproc
 272              	.LFE2:
 273              		.size	chSchGoSleepS, .-chSchGoSleepS
 274 0044 AFF30080 		.section	.text.chSchGoSleepTimeoutS,"ax",%progbits
 274      AFF30080 
 274      AFF30080 
 275              		.align	2
 276              		.p2align 4,,15
 277              		.global	chSchGoSleepTimeoutS
 278              		.thumb
 279              		.thumb_func
ARM GAS  /tmp/ccfY2MYf.s 			page 6


 280              		.type	chSchGoSleepTimeoutS, %function
 281              	chSchGoSleepTimeoutS:
 282              	.LFB4:
 283              		.loc 1 189 0
 284              		.cfi_startproc
 285              		@ args = 0, pretend = 0, frame = 24
 286              		@ frame_needed = 0, uses_anonymous_args = 0
 287              	.LVL20:
 288 0000 70B5     		push	{r4, r5, r6, lr}
 289              		.cfi_def_cfa_offset 16
 290              		.cfi_offset 4, -16
 291              		.cfi_offset 5, -12
 292              		.cfi_offset 6, -8
 293              		.cfi_offset 14, -4
 294 0002 0C46     		mov	r4, r1
 295 0004 86B0     		sub	sp, sp, #24
 296              		.cfi_def_cfa_offset 40
 297              		.loc 1 189 0
 298 0006 0646     		mov	r6, r0
 299              		.loc 1 191 0
 300 0008 FFF7FEFF 		bl	chDbgCheckClassS
 301              	.LVL21:
 302              		.loc 1 193 0
 303 000c 631C     		adds	r3, r4, #1
 304 000e 12D0     		beq	.L30
 305              	.LBB6:
 306              		.loc 1 196 0
 307 0010 0D4D     		ldr	r5, .L36
 308 0012 2146     		mov	r1, r4
 309 0014 AB69     		ldr	r3, [r5, #24]
 310 0016 01A8     		add	r0, sp, #4
 311 0018 0C4A     		ldr	r2, .L36+4
 312 001a FFF7FEFF 		bl	chVTSetI
 313              	.LVL22:
 314              		.loc 1 197 0
 315 001e 3046     		mov	r0, r6
 316 0020 FFF7FEFF 		bl	chSchGoSleepS
 317              	.LVL23:
 318              		.loc 1 198 0
 319 0024 049B     		ldr	r3, [sp, #16]
 320 0026 13B1     		cbz	r3, .L32
 321              		.loc 1 199 0
 322 0028 01A8     		add	r0, sp, #4
 323 002a FFF7FEFF 		bl	chVTResetI
 324              	.LVL24:
 325              	.L32:
 326              	.LBE6:
 327              		.loc 1 203 0
 328 002e AB69     		ldr	r3, [r5, #24]
 329              		.loc 1 204 0
 330 0030 986A     		ldr	r0, [r3, #40]
 331 0032 06B0     		add	sp, sp, #24
 332              		@ sp needed
 333 0034 70BD     		pop	{r4, r5, r6, pc}
 334              	.LVL25:
 335              	.L30:
 336              		.loc 1 202 0
ARM GAS  /tmp/ccfY2MYf.s 			page 7


 337 0036 3046     		mov	r0, r6
 338 0038 FFF7FEFF 		bl	chSchGoSleepS
 339              	.LVL26:
 340 003c 024D     		ldr	r5, .L36
 341              		.loc 1 203 0
 342 003e AB69     		ldr	r3, [r5, #24]
 343              		.loc 1 204 0
 344 0040 986A     		ldr	r0, [r3, #40]
 345 0042 06B0     		add	sp, sp, #24
 346              		@ sp needed
 347 0044 70BD     		pop	{r4, r5, r6, pc}
 348              	.LVL27:
 349              	.L37:
 350 0046 00BF     		.align	2
 351              	.L36:
 352 0048 00000000 		.word	.LANCHOR0
 353 004c 00000000 		.word	wakeup
 354              		.cfi_endproc
 355              	.LFE4:
 356              		.size	chSchGoSleepTimeoutS, .-chSchGoSleepTimeoutS
 357              		.section	.text.chSchWakeupS,"ax",%progbits
 358              		.align	2
 359              		.p2align 4,,15
 360              		.global	chSchWakeupS
 361              		.thumb
 362              		.thumb_func
 363              		.type	chSchWakeupS, %function
 364              	chSchWakeupS:
 365              	.LFB5:
 366              		.loc 1 225 0
 367              		.cfi_startproc
 368              		@ args = 0, pretend = 0, frame = 0
 369              		@ frame_needed = 0, uses_anonymous_args = 0
 370              	.LVL28:
 371 0000 70B5     		push	{r4, r5, r6, lr}
 372              		.cfi_def_cfa_offset 16
 373              		.cfi_offset 4, -16
 374              		.cfi_offset 5, -12
 375              		.cfi_offset 6, -8
 376              		.cfi_offset 14, -4
 377              		.loc 1 234 0
 378 0002 154D     		ldr	r5, .L43
 379              		.loc 1 225 0
 380 0004 0446     		mov	r4, r0
 381 0006 0E46     		mov	r6, r1
 382              		.loc 1 227 0
 383 0008 FFF7FEFF 		bl	chDbgCheckClassS
 384              	.LVL29:
 385              		.loc 1 234 0
 386 000c A869     		ldr	r0, [r5, #24]
 387 000e A368     		ldr	r3, [r4, #8]
 388 0010 8268     		ldr	r2, [r0, #8]
 389              		.loc 1 229 0
 390 0012 A662     		str	r6, [r4, #40]
 391              		.loc 1 234 0
 392 0014 9342     		cmp	r3, r2
 393 0016 11D9     		bls	.L41
ARM GAS  /tmp/ccfY2MYf.s 			page 8


 394              	.LBB7:
 395              		.loc 1 237 0
 396 0018 FFF7FEFF 		bl	chSchReadyI
 397              	.LVL30:
 398              	.LBB8:
 399              		.loc 1 240 0
 400 001c C269     		ldr	r2, [r0, #28]
 401 001e ADF12403 		sub	r3, sp, #36
 402              	.LBE8:
 403              		.loc 1 239 0
 404 0022 0121     		movs	r1, #1
 405              	.LBB9:
 406              		.loc 1 240 0
 407 0024 9A42     		cmp	r2, r3
 408              	.LBE9:
 409              		.loc 1 237 0
 410 0026 0646     		mov	r6, r0
 411              	.LVL31:
 412              		.loc 1 238 0
 413 0028 AC61     		str	r4, [r5, #24]
 414              		.loc 1 239 0
 415 002a 84F82010 		strb	r1, [r4, #32]
 416              	.LBB10:
 417              		.loc 1 240 0
 418 002e 0AD8     		bhi	.L42
 419              		.loc 1 240 0 is_stmt 0 discriminator 2
 420 0030 2046     		mov	r0, r4
 421              	.LVL32:
 422 0032 3146     		mov	r1, r6
 423              	.LBE10:
 424              	.LBE7:
 425              		.loc 1 242 0 is_stmt 1 discriminator 2
 426 0034 BDE87040 		pop	{r4, r5, r6, lr}
 427              	.LVL33:
 428              	.LBB14:
 429              	.LBB11:
 430              		.loc 1 240 0 discriminator 2
 431 0038 FFF7FEBF 		b	_port_switch
 432              	.LVL34:
 433              	.L41:
 434              	.LBE11:
 435              	.LBE14:
 436              		.loc 1 235 0
 437 003c 2046     		mov	r0, r4
 438              		.loc 1 242 0
 439 003e BDE87040 		pop	{r4, r5, r6, lr}
 440              	.LVL35:
 441              		.loc 1 235 0
 442 0042 FFF7FEBF 		b	chSchReadyI
 443              	.LVL36:
 444              	.L42:
 445              	.LBB15:
 446              	.LBB12:
 447              		.loc 1 240 0 discriminator 1
 448 0046 0548     		ldr	r0, .L43+4
 449              	.LVL37:
 450 0048 FFF7FEFF 		bl	chDbgPanic
ARM GAS  /tmp/ccfY2MYf.s 			page 9


 451              	.LVL38:
 452 004c 2046     		mov	r0, r4
 453 004e 3146     		mov	r1, r6
 454              	.LBE12:
 455              	.LBE15:
 456              		.loc 1 242 0 discriminator 1
 457 0050 BDE87040 		pop	{r4, r5, r6, lr}
 458              	.LVL39:
 459              	.LBB16:
 460              	.LBB13:
 461              		.loc 1 240 0 discriminator 1
 462 0054 FFF7FEBF 		b	_port_switch
 463              	.LVL40:
 464              	.L44:
 465              		.align	2
 466              	.L43:
 467 0058 00000000 		.word	.LANCHOR0
 468 005c 14000000 		.word	.LC1
 469              	.LBE13:
 470              	.LBE16:
 471              		.cfi_endproc
 472              	.LFE5:
 473              		.size	chSchWakeupS, .-chSchWakeupS
 474              		.section	.text.chSchDoRescheduleBehind,"ax",%progbits
 475              		.align	2
 476              		.p2align 4,,15
 477              		.global	chSchDoRescheduleBehind
 478              		.thumb
 479              		.thumb_func
 480              		.type	chSchDoRescheduleBehind, %function
 481              	chSchDoRescheduleBehind:
 482              	.LFB7:
 483              		.loc 1 304 0
 484              		.cfi_startproc
 485              		@ args = 0, pretend = 0, frame = 0
 486              		@ frame_needed = 0, uses_anonymous_args = 0
 487 0000 38B5     		push	{r3, r4, r5, lr}
 488              		.cfi_def_cfa_offset 16
 489              		.cfi_offset 3, -16
 490              		.cfi_offset 4, -12
 491              		.cfi_offset 5, -8
 492              		.cfi_offset 14, -4
 493              		.loc 1 307 0
 494 0002 0D4C     		ldr	r4, .L47
 495              		.loc 1 309 0
 496 0004 2046     		mov	r0, r4
 497              		.loc 1 307 0
 498 0006 A569     		ldr	r5, [r4, #24]
 499              	.LVL41:
 500              		.loc 1 309 0
 501 0008 FFF7FEFF 		bl	fifo_remove
 502              	.LVL42:
 503              		.loc 1 310 0
 504 000c 0122     		movs	r2, #1
 505              		.loc 1 309 0
 506 000e 0346     		mov	r3, r0
 507              		.loc 1 310 0
ARM GAS  /tmp/ccfY2MYf.s 			page 10


 508 0010 80F82020 		strb	r2, [r0, #32]
 509              		.loc 1 314 0
 510 0014 2846     		mov	r0, r5
 511              		.loc 1 309 0
 512 0016 A361     		str	r3, [r4, #24]
 513              		.loc 1 314 0
 514 0018 FFF7FEFF 		bl	chSchReadyI
 515              	.LVL43:
 516              	.LBB17:
 517              		.loc 1 315 0
 518 001c EB69     		ldr	r3, [r5, #28]
 519 001e ADF12402 		sub	r2, sp, #36
 520 0022 9342     		cmp	r3, r2
 521 0024 02D9     		bls	.L46
 522              		.loc 1 315 0 is_stmt 0 discriminator 1
 523 0026 0548     		ldr	r0, .L47+4
 524 0028 FFF7FEFF 		bl	chDbgPanic
 525              	.LVL44:
 526              	.L46:
 527              		.loc 1 315 0 discriminator 2
 528 002c A069     		ldr	r0, [r4, #24]
 529 002e 2946     		mov	r1, r5
 530              	.LBE17:
 531              		.loc 1 316 0 is_stmt 1 discriminator 2
 532 0030 BDE83840 		pop	{r3, r4, r5, lr}
 533              	.LVL45:
 534              	.LBB18:
 535              		.loc 1 315 0 discriminator 2
 536 0034 FFF7FEBF 		b	_port_switch
 537              	.LVL46:
 538              	.L48:
 539              		.align	2
 540              	.L47:
 541 0038 00000000 		.word	.LANCHOR0
 542 003c 14000000 		.word	.LC1
 543              	.LBE18:
 544              		.cfi_endproc
 545              	.LFE7:
 546              		.size	chSchDoRescheduleBehind, .-chSchDoRescheduleBehind
 547              		.section	.text.chSchDoRescheduleAhead,"ax",%progbits
 548              		.align	2
 549              		.p2align 4,,15
 550              		.global	chSchDoRescheduleAhead
 551              		.thumb
 552              		.thumb_func
 553              		.type	chSchDoRescheduleAhead, %function
 554              	chSchDoRescheduleAhead:
 555              	.LFB8:
 556              		.loc 1 329 0
 557              		.cfi_startproc
 558              		@ args = 0, pretend = 0, frame = 0
 559              		@ frame_needed = 0, uses_anonymous_args = 0
 560 0000 F8B5     		push	{r3, r4, r5, r6, r7, lr}
 561              		.cfi_def_cfa_offset 24
 562              		.cfi_offset 3, -24
 563              		.cfi_offset 4, -20
 564              		.cfi_offset 5, -16
ARM GAS  /tmp/ccfY2MYf.s 			page 11


 565              		.cfi_offset 6, -12
 566              		.cfi_offset 7, -8
 567              		.cfi_offset 14, -4
 568              		.loc 1 332 0
 569 0002 134E     		ldr	r6, .L53
 570              		.loc 1 334 0
 571 0004 3046     		mov	r0, r6
 572              		.loc 1 332 0
 573 0006 B569     		ldr	r5, [r6, #24]
 574              	.LVL47:
 575              		.loc 1 334 0
 576 0008 FFF7FEFF 		bl	fifo_remove
 577              	.LVL48:
 578              		.loc 1 335 0
 579 000c 0123     		movs	r3, #1
 580              		.loc 1 337 0
 581 000e 0022     		movs	r2, #0
 582 0010 AC68     		ldr	r4, [r5, #8]
 583              		.loc 1 338 0
 584 0012 3746     		mov	r7, r6
 585              		.loc 1 335 0
 586 0014 80F82030 		strb	r3, [r0, #32]
 587              		.loc 1 334 0
 588 0018 B061     		str	r0, [r6, #24]
 589              		.loc 1 338 0
 590 001a 3346     		mov	r3, r6
 591              		.loc 1 337 0
 592 001c 85F82020 		strb	r2, [r5, #32]
 593              	.LVL49:
 594              	.L51:
 595              		.loc 1 340 0 discriminator 1
 596 0020 1B68     		ldr	r3, [r3]
 597              	.LVL50:
 598              		.loc 1 341 0 discriminator 1
 599 0022 9A68     		ldr	r2, [r3, #8]
 600 0024 A242     		cmp	r2, r4
 601 0026 FBD8     		bhi	.L51
 602              	.LBB19:
 603              		.loc 1 347 0
 604 0028 EC69     		ldr	r4, [r5, #28]
 605              	.LBE19:
 606              		.loc 1 344 0
 607 002a 5A68     		ldr	r2, [r3, #4]
 608              	.LBB20:
 609              		.loc 1 347 0
 610 002c ADF12401 		sub	r1, sp, #36
 611 0030 8C42     		cmp	r4, r1
 612              	.LBE20:
 613              		.loc 1 343 0
 614 0032 2B60     		str	r3, [r5]
 615              		.loc 1 344 0
 616 0034 6A60     		str	r2, [r5, #4]
 617              		.loc 1 345 0
 618 0036 5D60     		str	r5, [r3, #4]
 619 0038 1560     		str	r5, [r2]
 620              	.LBB21:
 621              		.loc 1 347 0
ARM GAS  /tmp/ccfY2MYf.s 			page 12


 622 003a 03D9     		bls	.L52
 623              		.loc 1 347 0 is_stmt 0 discriminator 1
 624 003c 0548     		ldr	r0, .L53+4
 625 003e FFF7FEFF 		bl	chDbgPanic
 626              	.LVL51:
 627 0042 B869     		ldr	r0, [r7, #24]
 628              	.L52:
 629              		.loc 1 347 0 discriminator 2
 630 0044 2946     		mov	r1, r5
 631              	.LBE21:
 632              		.loc 1 348 0 is_stmt 1 discriminator 2
 633 0046 BDE8F840 		pop	{r3, r4, r5, r6, r7, lr}
 634              	.LVL52:
 635              	.LBB22:
 636              		.loc 1 347 0 discriminator 2
 637 004a FFF7FEBF 		b	_port_switch
 638              	.LVL53:
 639              	.L54:
 640 004e 00BF     		.align	2
 641              	.L53:
 642 0050 00000000 		.word	.LANCHOR0
 643 0054 14000000 		.word	.LC1
 644              	.LBE22:
 645              		.cfi_endproc
 646              	.LFE8:
 647              		.size	chSchDoRescheduleAhead, .-chSchDoRescheduleAhead
 648 0058 AFF30080 		.section	.text.chSchRescheduleS,"ax",%progbits
 648      AFF30080 
 649              		.align	2
 650              		.p2align 4,,15
 651              		.global	chSchRescheduleS
 652              		.thumb
 653              		.thumb_func
 654              		.type	chSchRescheduleS, %function
 655              	chSchRescheduleS:
 656              	.LFB6:
 657              		.loc 1 253 0
 658              		.cfi_startproc
 659              		@ args = 0, pretend = 0, frame = 0
 660              		@ frame_needed = 0, uses_anonymous_args = 0
 661 0000 08B5     		push	{r3, lr}
 662              		.cfi_def_cfa_offset 8
 663              		.cfi_offset 3, -8
 664              		.cfi_offset 14, -4
 665              		.loc 1 255 0
 666 0002 FFF7FEFF 		bl	chDbgCheckClassS
 667              	.LVL54:
 668              		.loc 1 257 0
 669 0006 064B     		ldr	r3, .L58
 670 0008 1A68     		ldr	r2, [r3]
 671 000a 9B69     		ldr	r3, [r3, #24]
 672 000c 9268     		ldr	r2, [r2, #8]
 673 000e 9B68     		ldr	r3, [r3, #8]
 674 0010 9A42     		cmp	r2, r3
 675 0012 00D8     		bhi	.L57
 676 0014 08BD     		pop	{r3, pc}
 677              	.L57:
ARM GAS  /tmp/ccfY2MYf.s 			page 13


 678              		.loc 1 259 0
 679 0016 BDE80840 		pop	{r3, lr}
 680              		.loc 1 258 0
 681 001a FFF7FEBF 		b	chSchDoRescheduleAhead
 682              	.LVL55:
 683              	.L59:
 684 001e 00BF     		.align	2
 685              	.L58:
 686 0020 00000000 		.word	.LANCHOR0
 687              		.cfi_endproc
 688              	.LFE6:
 689              		.size	chSchRescheduleS, .-chSchRescheduleS
 690 0024 AFF30080 		.section	.text.chSchDoReschedule,"ax",%progbits
 690      AFF30080 
 690      AFF30080 
 691              		.align	2
 692              		.p2align 4,,15
 693              		.global	chSchDoReschedule
 694              		.thumb
 695              		.thumb_func
 696              		.type	chSchDoReschedule, %function
 697              	chSchDoReschedule:
 698              	.LFB9:
 699              		.loc 1 362 0
 700              		.cfi_startproc
 701              		@ args = 0, pretend = 0, frame = 0
 702              		@ frame_needed = 0, uses_anonymous_args = 0
 703              		@ link register save eliminated.
 704              		.loc 1 380 0
 705 0000 FFF7FEBF 		b	chSchDoRescheduleAhead
 706              	.LVL56:
 707              		.cfi_endproc
 708              	.LFE9:
 709              		.size	chSchDoReschedule, .-chSchDoReschedule
 710              		.global	rlist
 711 0004 AFF30080 		.section	.rodata.str1.4,"aMS",%progbits,1
 711      AFF30080 
 711      AFF30080 
 712              		.align	2
 713              	.LC0:
 714 0000 63685363 		.ascii	"chSchReadyI(), #1\000"
 714      68526561 
 714      64794928 
 714      292C2023 
 714      3100
 715 0012 0000     		.space	2
 716              	.LC1:
 717 0014 73746163 		.ascii	"stack overflow\000"
 717      6B206F76 
 717      6572666C 
 717      6F7700
 718 0023 00       		.section	.bss.rlist,"aw",%nobits
 719              		.align	2
 720              		.set	.LANCHOR0,. + 0
 721              		.type	rlist, %object
 722              		.size	rlist, 28
 723              	rlist:
ARM GAS  /tmp/ccfY2MYf.s 			page 14


 724 0000 00000000 		.space	28
 724      00000000 
 724      00000000 
 724      00000000 
 724      00000000 
 725              		.text
 726              	.Letext0:
 727              		.file 2 "/homes/msunkara/ASE-praticle-folder/gcc-arm-embedded/gcc-arm-none-eabi-4_8-2014q/arm-none
 728              		.file 3 "/homes/msunkara/ASE-praticle-folder/gcc-arm-embedded/gcc-arm-none-eabi-4_8-2014q/arm-none
 729              		.file 4 "../../../os/ports/GCC/ARMCMx/chtypes.h"
 730              		.file 5 "../../../os/kernel/include/chlists.h"
 731              		.file 6 "../../../os/kernel/include/chthreads.h"
 732              		.file 7 "../../../os/ports/GCC/ARMCMx/chcore_v7m.h"
 733              		.file 8 "../../../os/kernel/include/chvt.h"
 734              		.file 9 "../../../os/kernel/include/chschd.h"
 735              		.file 10 "../../../os/kernel/include/chsem.h"
 736              		.file 11 "../../../os/kernel/include/chmtx.h"
 737              		.file 12 "../../../os/kernel/include/chdebug.h"
