ARM GAS  /tmp/ccuSMVkc.s 			page 1


   1              		.syntax unified
   2              		.cpu cortex-m3
   3              		.fpu softvfp
   4              		.eabi_attribute 20, 1
   5              		.eabi_attribute 21, 1
   6              		.eabi_attribute 23, 3
   7              		.eabi_attribute 24, 1
   8              		.eabi_attribute 25, 1
   9              		.eabi_attribute 26, 1
  10              		.eabi_attribute 30, 2
  11              		.eabi_attribute 34, 1
  12              		.eabi_attribute 18, 4
  13              		.thumb
  14              		.file	"chcore_v7m.c"
  15              		.text
  16              	.Ltext0:
  17              		.cfi_sections	.debug_frame
  18              		.section	.text._port_switch_from_isr,"ax",%progbits
  19              		.align	2
  20              		.p2align 4,,15
  21              		.global	_port_switch_from_isr
  22              		.thumb
  23              		.thumb_func
  24              		.type	_port_switch_from_isr, %function
  25              	_port_switch_from_isr:
  26              	.LFB11:
  27              		.file 1 "../../../os/ports/GCC/ARMCMx/chcore_v7m.c"
  28              		.loc 1 200 0
  29              		.cfi_startproc
  30              		@ Naked Function: prologue and epilogue provided by programmer.
  31              		@ args = 0, pretend = 0, frame = 0
  32              		@ frame_needed = 0, uses_anonymous_args = 0
  33              		.loc 1 202 0
  34 0000 FFF7FEFF 		bl	dbg_check_lock
  35              	.LVL0:
  36              		.loc 1 203 0
  37 0004 FFF7FEFF 		bl	chSchDoReschedule
  38              	.LVL1:
  39              		.loc 1 204 0
  40 0008 FFF7FEFF 		bl	dbg_check_unlock
  41              	.LVL2:
  42              		.loc 1 205 0
  43              	@ 205 "../../../os/ports/GCC/ARMCMx/chcore_v7m.c" 1
  44              		_port_exit_from_isr:
  45              	@ 0 "" 2
  46              		.loc 1 207 0
  47              	@ 207 "../../../os/ports/GCC/ARMCMx/chcore_v7m.c" 1
  48 000c 00DF     		svc     #0
  49              	@ 0 "" 2
  50              		.loc 1 214 0
  51              		.thumb
  52              		.cfi_endproc
  53              	.LFE11:
  54              		.size	_port_switch_from_isr, .-_port_switch_from_isr
  55 000e 00BF     		.section	.text.SVCallVector,"ax",%progbits
  56              		.align	2
  57              		.p2align 4,,15
ARM GAS  /tmp/ccuSMVkc.s 			page 2


  58              		.global	SVCallVector
  59              		.thumb
  60              		.thumb_func
  61              		.type	SVCallVector, %function
  62              	SVCallVector:
  63              	.LFB8:
  64              		.loc 1 65 0
  65              		.cfi_startproc
  66              		@ args = 0, pretend = 0, frame = 0
  67              		@ frame_needed = 0, uses_anonymous_args = 0
  68              		@ link register save eliminated.
  69              		.loc 1 74 0
  70              	@ 74 "../../../os/ports/GCC/ARMCMx/chcore_v7m.c" 1
  71 0000 EFF30983 		mrs     r3, PSP
  72              	@ 0 "" 2
  73              	.LVL3:
  74              		.loc 1 78 0
  75              		.thumb
  76 0004 2033     		adds	r3, r3, #32
  77              	.LVL4:
  78              		.loc 1 81 0
  79              	@ 81 "../../../os/ports/GCC/ARMCMx/chcore_v7m.c" 1
  80 0006 83F30988 		msr     PSP, r3
  81              	@ 0 "" 2
  82              		.thumb
  83              	.LBB2:
  84              		.loc 1 82 0
  85 000a 0023     		movs	r3, #0
  86              	.LVL5:
  87              	@ 82 "../../../os/ports/GCC/ARMCMx/chcore_v7m.c" 1
  88 000c 83F31188 		msr     BASEPRI, r3
  89              	@ 0 "" 2
  90              		.thumb
  91 0010 7047     		bx	lr
  92              	.LBE2:
  93              		.cfi_endproc
  94              	.LFE8:
  95              		.size	SVCallVector, .-SVCallVector
  96 0012 00BFAFF3 		.section	.text._port_init,"ax",%progbits
  96      0080AFF3 
  96      0080AFF3 
  96      0080
  97              		.align	2
  98              		.p2align 4,,15
  99              		.global	_port_init
 100              		.thumb
 101              		.thumb_func
 102              		.type	_port_init, %function
 103              	_port_init:
 104              	.LFB9:
 105              		.loc 1 120 0
 106              		.cfi_startproc
 107              		@ args = 0, pretend = 0, frame = 0
 108              		@ frame_needed = 0, uses_anonymous_args = 0
 109 0000 08B5     		push	{r3, lr}
 110              		.cfi_def_cfa_offset 8
 111              		.cfi_offset 3, -8
ARM GAS  /tmp/ccuSMVkc.s 			page 3


 112              		.cfi_offset 14, -4
 113              		.loc 1 124 0
 114 0002 094A     		ldr	r2, .L4
 115              		.loc 1 123 0
 116 0004 094B     		ldr	r3, .L4+4
 117 0006 0021     		movs	r1, #0
 118 0008 9960     		str	r1, [r3, #8]
 119              		.loc 1 127 0
 120 000a 0720     		movs	r0, #7
 121              		.loc 1 124 0
 122 000c DA60     		str	r2, [r3, #12]
 123              		.loc 1 127 0
 124 000e 1021     		movs	r1, #16
 125 0010 FFF7FEFF 		bl	nvicSetSystemHandlerPriority
 126              	.LVL6:
 127              		.loc 1 129 0
 128 0014 0A20     		movs	r0, #10
 129 0016 2021     		movs	r1, #32
 130 0018 FFF7FEFF 		bl	nvicSetSystemHandlerPriority
 131              	.LVL7:
 132              		.loc 1 133 0
 133 001c BDE80840 		pop	{r3, lr}
 134              		.loc 1 131 0
 135 0020 0B20     		movs	r0, #11
 136 0022 8021     		movs	r1, #128
 137 0024 FFF7FEBF 		b	nvicSetSystemHandlerPriority
 138              	.LVL8:
 139              	.L5:
 140              		.align	2
 141              	.L4:
 142 0028 0003FA05 		.word	100270848
 143 002c 00ED00E0 		.word	-536810240
 144              		.cfi_endproc
 145              	.LFE9:
 146              		.size	_port_init, .-_port_init
 147              		.section	.text._port_irq_epilogue,"ax",%progbits
 148              		.align	2
 149              		.p2align 4,,15
 150              		.global	_port_irq_epilogue
 151              		.thumb
 152              		.thumb_func
 153              		.type	_port_irq_epilogue, %function
 154              	_port_irq_epilogue:
 155              	.LFB10:
 156              		.loc 1 150 0
 157              		.cfi_startproc
 158              		@ args = 0, pretend = 0, frame = 0
 159              		@ frame_needed = 0, uses_anonymous_args = 0
 160              		@ link register save eliminated.
 161              	.LBB3:
 162              		.loc 1 152 0
 163 0000 2023     		movs	r3, #32
 164              	@ 152 "../../../os/ports/GCC/ARMCMx/chcore_v7m.c" 1
 165 0002 83F31188 		msr     BASEPRI, r3
 166              	@ 0 "" 2
 167              		.thumb
 168              	.LBE3:
ARM GAS  /tmp/ccuSMVkc.s 			page 4


 169              		.loc 1 153 0
 170 0006 164B     		ldr	r3, .L14
 171 0008 5B68     		ldr	r3, [r3, #4]
 172 000a 13F40063 		ands	r3, r3, #2048
 173 000e 1AD0     		beq	.L7
 174              	.LBB4:
 175              		.loc 1 163 0
 176              	@ 163 "../../../os/ports/GCC/ARMCMx/chcore_v7m.c" 1
 177 0010 EFF30983 		mrs     r3, PSP
 178              	@ 0 "" 2
 179              	.LVL9:
 180              		.loc 1 168 0
 181              		.thumb
 182 0014 4FF08072 		mov	r2, #16777216
 183 0018 43F8042C 		str	r2, [r3, #-4]
 184              		.loc 1 167 0
 185 001c A3F12002 		sub	r2, r3, #32
 186              	.LVL10:
 187              		.loc 1 172 0
 188              	@ 172 "../../../os/ports/GCC/ARMCMx/chcore_v7m.c" 1
 189 0020 82F30988 		msr     PSP, r2
 190              	@ 0 "" 2
 191              		.loc 1 176 0
 192              		.thumb
 193 0024 0F49     		ldr	r1, .L14+4
 194 0026 8A69     		ldr	r2, [r1, #24]
 195              	.LVL11:
 196 0028 0968     		ldr	r1, [r1]
 197 002a 92F82300 		ldrb	r0, [r2, #35]	@ zero_extendqisi2
 198 002e 8968     		ldr	r1, [r1, #8]
 199 0030 9268     		ldr	r2, [r2, #8]
 200 0032 58B1     		cbz	r0, .L8
 201              		.loc 1 176 0 is_stmt 0 discriminator 1
 202 0034 9142     		cmp	r1, r2
 203 0036 94BF     		ite	ls
 204 0038 0022     		movls	r2, #0
 205 003a 0122     		movhi	r2, #1
 206 003c 62B1     		cbz	r2, .L10
 207              	.L13:
 208              		.loc 1 178 0 is_stmt 1
 209 003e 0A4A     		ldr	r2, .L14+8
 210 0040 43F8082C 		str	r2, [r3, #-8]
 211 0044 7047     		bx	lr
 212              	.LVL12:
 213              	.L7:
 214              	.LBE4:
 215              	.LBB5:
 216              		.loc 1 190 0
 217              	@ 190 "../../../os/ports/GCC/ARMCMx/chcore_v7m.c" 1
 218 0046 83F31188 		msr     BASEPRI, r3
 219              	@ 0 "" 2
 220              		.thumb
 221 004a 7047     		bx	lr
 222              	.LVL13:
 223              	.L8:
 224              	.LBE5:
 225              	.LBB6:
ARM GAS  /tmp/ccuSMVkc.s 			page 5


 226              		.loc 1 176 0 discriminator 2
 227 004c 9142     		cmp	r1, r2
 228 004e 34BF     		ite	cc
 229 0050 0022     		movcc	r2, #0
 230 0052 0122     		movcs	r2, #1
 231 0054 002A     		cmp	r2, #0
 232 0056 F2D1     		bne	.L13
 233              	.L10:
 234              		.loc 1 183 0
 235 0058 044A     		ldr	r2, .L14+12
 236 005a 43F8082C 		str	r2, [r3, #-8]
 237 005e 7047     		bx	lr
 238              	.L15:
 239              		.align	2
 240              	.L14:
 241 0060 00ED00E0 		.word	-536810240
 242 0064 00000000 		.word	rlist
 243 0068 00000000 		.word	_port_switch_from_isr
 244 006c 0C000000 		.word	_port_exit_from_isr
 245              	.LBE6:
 246              		.cfi_endproc
 247              	.LFE10:
 248              		.size	_port_irq_epilogue, .-_port_irq_epilogue
 249              		.section	.text.SysTickVector,"ax",%progbits
 250              		.align	2
 251              		.p2align 4,,15
 252              		.global	SysTickVector
 253              		.thumb
 254              		.thumb_func
 255              		.type	SysTickVector, %function
 256              	SysTickVector:
 257              	.LFB7:
 258              		.loc 1 47 0
 259              		.cfi_startproc
 260              		@ args = 0, pretend = 0, frame = 0
 261              		@ frame_needed = 0, uses_anonymous_args = 0
 262 0000 08B5     		push	{r3, lr}
 263              		.cfi_def_cfa_offset 8
 264              		.cfi_offset 3, -8
 265              		.cfi_offset 14, -4
 266              		.loc 1 49 0
 267 0002 FFF7FEFF 		bl	dbg_check_enter_isr
 268              	.LVL14:
 269              	.LBB7:
 270              		.loc 1 51 0
 271 0006 2023     		movs	r3, #32
 272              	@ 51 "../../../os/ports/GCC/ARMCMx/chcore_v7m.c" 1
 273 0008 83F31188 		msr     BASEPRI, r3
 274              	@ 0 "" 2
 275              		.thumb
 276              	.LBE7:
 277 000c FFF7FEFF 		bl	dbg_check_lock_from_isr
 278              	.LVL15:
 279              		.loc 1 52 0
 280 0010 FFF7FEFF 		bl	chSysTimerHandlerI
 281              	.LVL16:
 282              		.loc 1 53 0
ARM GAS  /tmp/ccuSMVkc.s 			page 6


 283 0014 FFF7FEFF 		bl	dbg_check_unlock_from_isr
 284              	.LVL17:
 285              	.LBB8:
 286 0018 0023     		movs	r3, #0
 287              	@ 53 "../../../os/ports/GCC/ARMCMx/chcore_v7m.c" 1
 288 001a 83F31188 		msr     BASEPRI, r3
 289              	@ 0 "" 2
 290              		.thumb
 291              	.LBE8:
 292              		.loc 1 55 0
 293 001e FFF7FEFF 		bl	dbg_check_leave_isr
 294              	.LVL18:
 295              		.loc 1 56 0
 296 0022 BDE80840 		pop	{r3, lr}
 297              		.loc 1 55 0
 298 0026 FFF7FEBF 		b	_port_irq_epilogue
 299              	.LVL19:
 300              		.cfi_endproc
 301              	.LFE7:
 302              		.size	SysTickVector, .-SysTickVector
 303 002a 00BFAFF3 		.section	.text._port_switch,"ax",%progbits
 303      0080
 304              		.align	2
 305              		.p2align 4,,15
 306              		.global	_port_switch
 307              		.thumb
 308              		.thumb_func
 309              		.type	_port_switch, %function
 310              	_port_switch:
 311              	.LFB12:
 312              		.loc 1 229 0
 313              		.cfi_startproc
 314              		@ Naked Function: prologue and epilogue provided by programmer.
 315              		@ args = 0, pretend = 0, frame = 0
 316              		@ frame_needed = 0, uses_anonymous_args = 0
 317              	.LVL20:
 318              		.loc 1 231 0
 319              	@ 231 "../../../os/ports/GCC/ARMCMx/chcore_v7m.c" 1
 320 0000 2DE9F04F 		push    {r4, r5, r6, r7, r8, r9, r10, r11, lr}
 321              	@ 0 "" 2
 322              		.loc 1 237 0
 323              	@ 237 "../../../os/ports/GCC/ARMCMx/chcore_v7m.c" 1
 324 0004 C1F80CD0 		str     sp, [r1, #12]                          
 325 0008 D0F80CD0 		ldr     sp, [r0, #12]
 326              	@ 0 "" 2
 327              		.loc 1 243 0
 328              	@ 243 "../../../os/ports/GCC/ARMCMx/chcore_v7m.c" 1
 329 000c BDE8F08F 		pop     {r4, r5, r6, r7, r8, r9, r10, r11, pc}
 330              	@ 0 "" 2
 331              		.loc 1 245 0
 332              		.thumb
 333              		.cfi_endproc
 334              	.LFE12:
 335              		.size	_port_switch, .-_port_switch
 336              		.section	.text._port_thread_start,"ax",%progbits
 337              		.align	2
 338              		.p2align 4,,15
ARM GAS  /tmp/ccuSMVkc.s 			page 7


 339              		.global	_port_thread_start
 340              		.thumb
 341              		.thumb_func
 342              		.type	_port_thread_start, %function
 343              	_port_thread_start:
 344              	.LFB13:
 345              		.loc 1 252 0
 346              		.cfi_startproc
 347              		@ args = 0, pretend = 0, frame = 0
 348              		@ frame_needed = 0, uses_anonymous_args = 0
 349 0000 08B5     		push	{r3, lr}
 350              		.cfi_def_cfa_offset 8
 351              		.cfi_offset 3, -8
 352              		.cfi_offset 14, -4
 353              		.loc 1 254 0
 354 0002 FFF7FEFF 		bl	dbg_check_unlock
 355              	.LVL21:
 356              	.LBB9:
 357 0006 0023     		movs	r3, #0
 358              	@ 254 "../../../os/ports/GCC/ARMCMx/chcore_v7m.c" 1
 359 0008 83F31188 		msr     BASEPRI, r3
 360              	@ 0 "" 2
 361              		.thumb
 362              	.LBE9:
 363              		.loc 1 255 0
 364              	@ 255 "../../../os/ports/GCC/ARMCMx/chcore_v7m.c" 1
 365 000c 2846     		mov     r0, r5                                 
 366 000e A047     		blx     r4                                     
 367 0010 FFF7FEFF 		bl      chThdExit
 368              	@ 0 "" 2
 369              		.thumb
 370 0014 08BD     		pop	{r3, pc}
 371              		.cfi_endproc
 372              	.LFE13:
 373              		.size	_port_thread_start, .-_port_thread_start
 374 0016 00BFAFF3 		.text
 374      0080AFF3 
 374      0080
 375              	.Letext0:
 376              		.file 2 "/homes/msunkara/ASE-praticle-folder/gcc-arm-embedded/gcc-arm-none-eabi-4_8-2014q/arm-none
 377              		.file 3 "/homes/msunkara/ASE-praticle-folder/gcc-arm-embedded/gcc-arm-none-eabi-4_8-2014q/arm-none
 378              		.file 4 "../../../os/ports/GCC/ARMCMx/chtypes.h"
 379              		.file 5 "../../../os/kernel/include/chlists.h"
 380              		.file 6 "../../../os/kernel/include/chthreads.h"
 381              		.file 7 "../../../os/ports/GCC/ARMCMx/chcore_v7m.h"
 382              		.file 8 "../../../os/ports/common/ARMCMx/nvic.h"
 383              		.file 9 "../../../os/kernel/include/chschd.h"
 384              		.file 10 "../../../os/kernel/include/chmtx.h"
 385              		.file 11 "../../../os/kernel/include/chdebug.h"
 386              		.file 12 "../../../os/kernel/include/chsys.h"
