ARM GAS  /tmp/ccg55tup.s 			page 1


   1              		.syntax unified
   2              		.cpu cortex-m3
   3              		.fpu softvfp
   4              		.eabi_attribute 20, 1
   5              		.eabi_attribute 21, 1
   6              		.eabi_attribute 23, 3
   7              		.eabi_attribute 24, 1
   8              		.eabi_attribute 25, 1
   9              		.eabi_attribute 26, 1
  10              		.eabi_attribute 30, 2
  11              		.eabi_attribute 34, 1
  12              		.eabi_attribute 18, 4
  13              		.thumb
  14              		.file	"chmboxes.c"
  15              		.text
  16              	.Ltext0:
  17              		.cfi_sections	.debug_frame
  18              		.section	.text.chMBInit,"ax",%progbits
  19              		.align	2
  20              		.p2align 4,,15
  21              		.global	chMBInit
  22              		.thumb
  23              		.thumb_func
  24              		.type	chMBInit, %function
  25              	chMBInit:
  26              	.LFB7:
  27              		.file 1 "../../../os/kernel/src/chmboxes.c"
  28              		.loc 1 72 0
  29              		.cfi_startproc
  30              		@ args = 0, pretend = 0, frame = 0
  31              		@ frame_needed = 0, uses_anonymous_args = 0
  32              	.LVL0:
  33 0000 70B5     		push	{r4, r5, r6, lr}
  34              		.cfi_def_cfa_offset 16
  35              		.cfi_offset 4, -16
  36              		.cfi_offset 5, -12
  37              		.cfi_offset 6, -8
  38              		.cfi_offset 14, -4
  39              		.loc 1 74 0
  40 0002 0446     		mov	r4, r0
  41              		.loc 1 72 0
  42 0004 0D46     		mov	r5, r1
  43 0006 1646     		mov	r6, r2
  44              		.loc 1 74 0
  45 0008 A0B1     		cbz	r0, .L2
  46              		.loc 1 74 0 is_stmt 0 discriminator 2
  47 000a 99B1     		cbz	r1, .L2
  48              		.loc 1 74 0 discriminator 1
  49 000c 002A     		cmp	r2, #0
  50 000e 11DD     		ble	.L2
  51              	.LVL1:
  52              	.L3:
  53              		.loc 1 77 0 is_stmt 1
  54 0010 05EB8603 		add	r3, r5, r6, lsl #2
  55              		.loc 1 78 0
  56 0014 3146     		mov	r1, r6
  57 0016 04F11C00 		add	r0, r4, #28
ARM GAS  /tmp/ccg55tup.s 			page 2


  58              		.loc 1 76 0
  59 001a E560     		str	r5, [r4, #12]
  60 001c A560     		str	r5, [r4, #8]
  61 001e 2560     		str	r5, [r4]
  62              		.loc 1 77 0
  63 0020 6360     		str	r3, [r4, #4]
  64              		.loc 1 78 0
  65 0022 FFF7FEFF 		bl	chSemInit
  66              	.LVL2:
  67              		.loc 1 79 0
  68 0026 04F11000 		add	r0, r4, #16
  69 002a 0021     		movs	r1, #0
  70              		.loc 1 80 0
  71 002c BDE87040 		pop	{r4, r5, r6, lr}
  72              	.LVL3:
  73              		.loc 1 79 0
  74 0030 FFF7FEBF 		b	chSemInit
  75              	.LVL4:
  76              	.L2:
  77              		.loc 1 74 0 discriminator 1
  78 0034 0148     		ldr	r0, .L11
  79              	.LVL5:
  80 0036 FFF7FEFF 		bl	chDbgPanic
  81              	.LVL6:
  82 003a E9E7     		b	.L3
  83              	.L12:
  84              		.align	2
  85              	.L11:
  86 003c 00000000 		.word	.LC0
  87              		.cfi_endproc
  88              	.LFE7:
  89              		.size	chMBInit, .-chMBInit
  90              		.section	.text.chMBReset,"ax",%progbits
  91              		.align	2
  92              		.p2align 4,,15
  93              		.global	chMBReset
  94              		.thumb
  95              		.thumb_func
  96              		.type	chMBReset, %function
  97              	chMBReset:
  98              	.LFB8:
  99              		.loc 1 91 0
 100              		.cfi_startproc
 101              		@ args = 0, pretend = 0, frame = 0
 102              		@ frame_needed = 0, uses_anonymous_args = 0
 103              	.LVL7:
 104 0000 10B5     		push	{r4, lr}
 105              		.cfi_def_cfa_offset 8
 106              		.cfi_offset 4, -8
 107              		.cfi_offset 14, -4
 108              		.loc 1 93 0
 109 0002 0446     		mov	r4, r0
 110 0004 D8B1     		cbz	r0, .L15
 111              	.LVL8:
 112              	.L14:
 113              	.LBB2:
 114              		.loc 1 95 0
ARM GAS  /tmp/ccg55tup.s 			page 3


 115 0006 2023     		movs	r3, #32
 116              	@ 95 "../../../os/kernel/src/chmboxes.c" 1
 117 0008 83F31188 		msr     BASEPRI, r3
 118              	@ 0 "" 2
 119              		.thumb
 120              	.LBE2:
 121 000c FFF7FEFF 		bl	dbg_check_lock
 122              	.LVL9:
 123              		.loc 1 96 0
 124 0010 2368     		ldr	r3, [r4]
 125              		.loc 1 97 0
 126 0012 6168     		ldr	r1, [r4, #4]
 127              		.loc 1 96 0
 128 0014 E360     		str	r3, [r4, #12]
 129              		.loc 1 97 0
 130 0016 C91A     		subs	r1, r1, r3
 131              		.loc 1 96 0
 132 0018 A360     		str	r3, [r4, #8]
 133              		.loc 1 97 0
 134 001a 04F11C00 		add	r0, r4, #28
 135 001e 8910     		asrs	r1, r1, #2
 136 0020 FFF7FEFF 		bl	chSemResetI
 137              	.LVL10:
 138              		.loc 1 98 0
 139 0024 04F11000 		add	r0, r4, #16
 140 0028 0021     		movs	r1, #0
 141 002a FFF7FEFF 		bl	chSemResetI
 142              	.LVL11:
 143              		.loc 1 99 0
 144 002e FFF7FEFF 		bl	chSchRescheduleS
 145              	.LVL12:
 146              		.loc 1 100 0
 147 0032 FFF7FEFF 		bl	dbg_check_unlock
 148              	.LVL13:
 149              	.LBB3:
 150 0036 0023     		movs	r3, #0
 151              	@ 100 "../../../os/kernel/src/chmboxes.c" 1
 152 0038 83F31188 		msr     BASEPRI, r3
 153              	@ 0 "" 2
 154              		.thumb
 155 003c 10BD     		pop	{r4, pc}
 156              	.LVL14:
 157              	.L15:
 158              	.LBE3:
 159              		.loc 1 93 0 discriminator 1
 160 003e 0248     		ldr	r0, .L16
 161              	.LVL15:
 162 0040 FFF7FEFF 		bl	chDbgPanic
 163              	.LVL16:
 164 0044 DFE7     		b	.L14
 165              	.L17:
 166 0046 00BF     		.align	2
 167              	.L16:
 168 0048 10000000 		.word	.LC1
 169              		.cfi_endproc
 170              	.LFE8:
 171              		.size	chMBReset, .-chMBReset
ARM GAS  /tmp/ccg55tup.s 			page 4


 172 004c AFF30080 		.section	.text.chMBPostS,"ax",%progbits
 173              		.align	2
 174              		.p2align 4,,15
 175              		.global	chMBPostS
 176              		.thumb
 177              		.thumb_func
 178              		.type	chMBPostS, %function
 179              	chMBPostS:
 180              	.LFB10:
 181              		.loc 1 150 0
 182              		.cfi_startproc
 183              		@ args = 0, pretend = 0, frame = 0
 184              		@ frame_needed = 0, uses_anonymous_args = 0
 185              	.LVL17:
 186 0000 70B5     		push	{r4, r5, r6, lr}
 187              		.cfi_def_cfa_offset 16
 188              		.cfi_offset 4, -16
 189              		.cfi_offset 5, -12
 190              		.cfi_offset 6, -8
 191              		.cfi_offset 14, -4
 192              		.loc 1 150 0
 193 0002 0446     		mov	r4, r0
 194 0004 0E46     		mov	r6, r1
 195 0006 1546     		mov	r5, r2
 196              		.loc 1 153 0
 197 0008 FFF7FEFF 		bl	chDbgCheckClassS
 198              	.LVL18:
 199              		.loc 1 154 0
 200 000c C4B1     		cbz	r4, .L22
 201              	.L19:
 202              		.loc 1 156 0
 203 000e 2946     		mov	r1, r5
 204 0010 04F11C00 		add	r0, r4, #28
 205 0014 FFF7FEFF 		bl	chSemWaitTimeoutS
 206              	.LVL19:
 207              		.loc 1 157 0
 208 0018 0546     		mov	r5, r0
 209              	.LVL20:
 210 001a 78B9     		cbnz	r0, .L20
 211              		.loc 1 158 0
 212 001c A268     		ldr	r2, [r4, #8]
 213              		.loc 1 159 0
 214 001e 6168     		ldr	r1, [r4, #4]
 215              		.loc 1 158 0
 216 0020 131D     		adds	r3, r2, #4
 217              		.loc 1 159 0
 218 0022 8B42     		cmp	r3, r1
 219              		.loc 1 158 0
 220 0024 A360     		str	r3, [r4, #8]
 221              		.loc 1 160 0
 222 0026 28BF     		it	cs
 223 0028 2368     		ldrcs	r3, [r4]
 224              		.loc 1 158 0
 225 002a 1660     		str	r6, [r2]
 226              		.loc 1 161 0
 227 002c 04F11000 		add	r0, r4, #16
 228              	.LVL21:
ARM GAS  /tmp/ccg55tup.s 			page 5


 229              		.loc 1 160 0
 230 0030 28BF     		it	cs
 231 0032 A360     		strcs	r3, [r4, #8]
 232              		.loc 1 161 0
 233 0034 FFF7FEFF 		bl	chSemSignalI
 234              	.LVL22:
 235              		.loc 1 162 0
 236 0038 FFF7FEFF 		bl	chSchRescheduleS
 237              	.LVL23:
 238              	.L20:
 239              		.loc 1 165 0
 240 003c 2846     		mov	r0, r5
 241 003e 70BD     		pop	{r4, r5, r6, pc}
 242              	.LVL24:
 243              	.L22:
 244              		.loc 1 154 0 discriminator 1
 245 0040 0148     		ldr	r0, .L23
 246 0042 FFF7FEFF 		bl	chDbgPanic
 247              	.LVL25:
 248 0046 E2E7     		b	.L19
 249              	.L24:
 250              		.align	2
 251              	.L23:
 252 0048 20000000 		.word	.LC2
 253              		.cfi_endproc
 254              	.LFE10:
 255              		.size	chMBPostS, .-chMBPostS
 256 004c AFF30080 		.section	.text.chMBPost,"ax",%progbits
 257              		.align	2
 258              		.p2align 4,,15
 259              		.global	chMBPost
 260              		.thumb
 261              		.thumb_func
 262              		.type	chMBPost, %function
 263              	chMBPost:
 264              	.LFB9:
 265              		.loc 1 122 0
 266              		.cfi_startproc
 267              		@ args = 0, pretend = 0, frame = 0
 268              		@ frame_needed = 0, uses_anonymous_args = 0
 269              	.LVL26:
 270 0000 70B5     		push	{r4, r5, r6, lr}
 271              		.cfi_def_cfa_offset 16
 272              		.cfi_offset 4, -16
 273              		.cfi_offset 5, -12
 274              		.cfi_offset 6, -8
 275              		.cfi_offset 14, -4
 276              	.LBB4:
 277              		.loc 1 125 0
 278 0002 2023     		movs	r3, #32
 279              	.LBE4:
 280              		.loc 1 122 0
 281 0004 0646     		mov	r6, r0
 282 0006 0D46     		mov	r5, r1
 283 0008 1446     		mov	r4, r2
 284              	.LBB5:
 285              		.loc 1 125 0
ARM GAS  /tmp/ccg55tup.s 			page 6


 286              	@ 125 "../../../os/kernel/src/chmboxes.c" 1
 287 000a 83F31188 		msr     BASEPRI, r3
 288              	@ 0 "" 2
 289              		.thumb
 290              	.LBE5:
 291 000e FFF7FEFF 		bl	dbg_check_lock
 292              	.LVL27:
 293              		.loc 1 126 0
 294 0012 2246     		mov	r2, r4
 295 0014 2946     		mov	r1, r5
 296 0016 3046     		mov	r0, r6
 297 0018 FFF7FEFF 		bl	chMBPostS
 298              	.LVL28:
 299 001c 0446     		mov	r4, r0
 300              	.LVL29:
 301              		.loc 1 127 0
 302 001e FFF7FEFF 		bl	dbg_check_unlock
 303              	.LVL30:
 304              	.LBB6:
 305 0022 0023     		movs	r3, #0
 306              	@ 127 "../../../os/kernel/src/chmboxes.c" 1
 307 0024 83F31188 		msr     BASEPRI, r3
 308              	@ 0 "" 2
 309              		.thumb
 310              	.LBE6:
 311              		.loc 1 129 0
 312 0028 2046     		mov	r0, r4
 313 002a 70BD     		pop	{r4, r5, r6, pc}
 314              		.cfi_endproc
 315              	.LFE9:
 316              		.size	chMBPost, .-chMBPost
 317 002c AFF30080 		.section	.text.chMBPostI,"ax",%progbits
 318              		.align	2
 319              		.p2align 4,,15
 320              		.global	chMBPostI
 321              		.thumb
 322              		.thumb_func
 323              		.type	chMBPostI, %function
 324              	chMBPostI:
 325              	.LFB11:
 326              		.loc 1 181 0
 327              		.cfi_startproc
 328              		@ args = 0, pretend = 0, frame = 0
 329              		@ frame_needed = 0, uses_anonymous_args = 0
 330              	.LVL31:
 331 0000 38B5     		push	{r3, r4, r5, lr}
 332              		.cfi_def_cfa_offset 16
 333              		.cfi_offset 3, -16
 334              		.cfi_offset 4, -12
 335              		.cfi_offset 5, -8
 336              		.cfi_offset 14, -4
 337              		.loc 1 181 0
 338 0002 0446     		mov	r4, r0
 339 0004 0D46     		mov	r5, r1
 340              		.loc 1 183 0
 341 0006 FFF7FEFF 		bl	chDbgCheckClassI
 342              	.LVL32:
ARM GAS  /tmp/ccg55tup.s 			page 7


 343              		.loc 1 184 0
 344 000a A4B1     		cbz	r4, .L31
 345              	.L27:
 346              		.loc 1 186 0
 347 000c 636A     		ldr	r3, [r4, #36]
 348 000e 002B     		cmp	r3, #0
 349 0010 15DD     		ble	.L30
 350              		.loc 1 189 0
 351 0012 A068     		ldr	r0, [r4, #8]
 352              		.loc 1 190 0
 353 0014 6168     		ldr	r1, [r4, #4]
 354              		.loc 1 189 0
 355 0016 021D     		adds	r2, r0, #4
 356              		.loc 1 188 0
 357 0018 013B     		subs	r3, r3, #1
 358              		.loc 1 190 0
 359 001a 8A42     		cmp	r2, r1
 360              		.loc 1 188 0
 361 001c 6362     		str	r3, [r4, #36]
 362              		.loc 1 191 0
 363 001e 28BF     		it	cs
 364 0020 2368     		ldrcs	r3, [r4]
 365              		.loc 1 189 0
 366 0022 A260     		str	r2, [r4, #8]
 367 0024 0560     		str	r5, [r0]
 368              		.loc 1 192 0
 369 0026 04F11000 		add	r0, r4, #16
 370              		.loc 1 191 0
 371 002a 28BF     		it	cs
 372 002c A360     		strcs	r3, [r4, #8]
 373              		.loc 1 192 0
 374 002e FFF7FEFF 		bl	chSemSignalI
 375              	.LVL33:
 376              		.loc 1 193 0
 377 0032 0020     		movs	r0, #0
 378 0034 38BD     		pop	{r3, r4, r5, pc}
 379              	.LVL34:
 380              	.L31:
 381              		.loc 1 184 0 discriminator 1
 382 0036 0348     		ldr	r0, .L32
 383 0038 FFF7FEFF 		bl	chDbgPanic
 384              	.LVL35:
 385 003c E6E7     		b	.L27
 386              	.L30:
 387              		.loc 1 187 0
 388 003e 4FF0FF30 		mov	r0, #-1
 389              		.loc 1 194 0
 390 0042 38BD     		pop	{r3, r4, r5, pc}
 391              	.LVL36:
 392              	.L33:
 393              		.align	2
 394              	.L32:
 395 0044 30000000 		.word	.LC3
 396              		.cfi_endproc
 397              	.LFE11:
 398              		.size	chMBPostI, .-chMBPostI
 399 0048 AFF30080 		.section	.text.chMBPostAheadS,"ax",%progbits
ARM GAS  /tmp/ccg55tup.s 			page 8


 399      AFF30080 
 400              		.align	2
 401              		.p2align 4,,15
 402              		.global	chMBPostAheadS
 403              		.thumb
 404              		.thumb_func
 405              		.type	chMBPostAheadS, %function
 406              	chMBPostAheadS:
 407              	.LFB13:
 408              		.loc 1 243 0
 409              		.cfi_startproc
 410              		@ args = 0, pretend = 0, frame = 0
 411              		@ frame_needed = 0, uses_anonymous_args = 0
 412              	.LVL37:
 413 0000 70B5     		push	{r4, r5, r6, lr}
 414              		.cfi_def_cfa_offset 16
 415              		.cfi_offset 4, -16
 416              		.cfi_offset 5, -12
 417              		.cfi_offset 6, -8
 418              		.cfi_offset 14, -4
 419              		.loc 1 243 0
 420 0002 0446     		mov	r4, r0
 421 0004 0E46     		mov	r6, r1
 422 0006 1546     		mov	r5, r2
 423              		.loc 1 246 0
 424 0008 FFF7FEFF 		bl	chDbgCheckClassS
 425              	.LVL38:
 426              		.loc 1 247 0
 427 000c CCB1     		cbz	r4, .L38
 428              	.L35:
 429              		.loc 1 249 0
 430 000e 2946     		mov	r1, r5
 431 0010 04F11C00 		add	r0, r4, #28
 432 0014 FFF7FEFF 		bl	chSemWaitTimeoutS
 433              	.LVL39:
 434              		.loc 1 250 0
 435 0018 0546     		mov	r5, r0
 436              	.LVL40:
 437 001a 60B9     		cbnz	r0, .L36
 438              		.loc 1 251 0
 439 001c E368     		ldr	r3, [r4, #12]
 440 001e 2268     		ldr	r2, [r4]
 441 0020 043B     		subs	r3, r3, #4
 442 0022 9342     		cmp	r3, r2
 443 0024 E360     		str	r3, [r4, #12]
 444 0026 08D3     		bcc	.L39
 445              	.L37:
 446              		.loc 1 253 0
 447 0028 1E60     		str	r6, [r3]
 448              		.loc 1 254 0
 449 002a 04F11000 		add	r0, r4, #16
 450              	.LVL41:
 451 002e FFF7FEFF 		bl	chSemSignalI
 452              	.LVL42:
 453              		.loc 1 255 0
 454 0032 FFF7FEFF 		bl	chSchRescheduleS
 455              	.LVL43:
ARM GAS  /tmp/ccg55tup.s 			page 9


 456              	.L36:
 457              		.loc 1 258 0
 458 0036 2846     		mov	r0, r5
 459 0038 70BD     		pop	{r4, r5, r6, pc}
 460              	.LVL44:
 461              	.L39:
 462              		.loc 1 252 0
 463 003a 6368     		ldr	r3, [r4, #4]
 464 003c 043B     		subs	r3, r3, #4
 465 003e E360     		str	r3, [r4, #12]
 466 0040 F2E7     		b	.L37
 467              	.LVL45:
 468              	.L38:
 469              		.loc 1 247 0 discriminator 1
 470 0042 0248     		ldr	r0, .L40
 471 0044 FFF7FEFF 		bl	chDbgPanic
 472              	.LVL46:
 473 0048 E1E7     		b	.L35
 474              	.L41:
 475 004a 00BF     		.align	2
 476              	.L40:
 477 004c 40000000 		.word	.LC4
 478              		.cfi_endproc
 479              	.LFE13:
 480              		.size	chMBPostAheadS, .-chMBPostAheadS
 481              		.section	.text.chMBPostAhead,"ax",%progbits
 482              		.align	2
 483              		.p2align 4,,15
 484              		.global	chMBPostAhead
 485              		.thumb
 486              		.thumb_func
 487              		.type	chMBPostAhead, %function
 488              	chMBPostAhead:
 489              	.LFB12:
 490              		.loc 1 215 0
 491              		.cfi_startproc
 492              		@ args = 0, pretend = 0, frame = 0
 493              		@ frame_needed = 0, uses_anonymous_args = 0
 494              	.LVL47:
 495 0000 70B5     		push	{r4, r5, r6, lr}
 496              		.cfi_def_cfa_offset 16
 497              		.cfi_offset 4, -16
 498              		.cfi_offset 5, -12
 499              		.cfi_offset 6, -8
 500              		.cfi_offset 14, -4
 501              	.LBB7:
 502              		.loc 1 218 0
 503 0002 2023     		movs	r3, #32
 504              	.LBE7:
 505              		.loc 1 215 0
 506 0004 0646     		mov	r6, r0
 507 0006 0D46     		mov	r5, r1
 508 0008 1446     		mov	r4, r2
 509              	.LBB8:
 510              		.loc 1 218 0
 511              	@ 218 "../../../os/kernel/src/chmboxes.c" 1
 512 000a 83F31188 		msr     BASEPRI, r3
ARM GAS  /tmp/ccg55tup.s 			page 10


 513              	@ 0 "" 2
 514              		.thumb
 515              	.LBE8:
 516 000e FFF7FEFF 		bl	dbg_check_lock
 517              	.LVL48:
 518              		.loc 1 219 0
 519 0012 2246     		mov	r2, r4
 520 0014 2946     		mov	r1, r5
 521 0016 3046     		mov	r0, r6
 522 0018 FFF7FEFF 		bl	chMBPostAheadS
 523              	.LVL49:
 524 001c 0446     		mov	r4, r0
 525              	.LVL50:
 526              		.loc 1 220 0
 527 001e FFF7FEFF 		bl	dbg_check_unlock
 528              	.LVL51:
 529              	.LBB9:
 530 0022 0023     		movs	r3, #0
 531              	@ 220 "../../../os/kernel/src/chmboxes.c" 1
 532 0024 83F31188 		msr     BASEPRI, r3
 533              	@ 0 "" 2
 534              		.thumb
 535              	.LBE9:
 536              		.loc 1 222 0
 537 0028 2046     		mov	r0, r4
 538 002a 70BD     		pop	{r4, r5, r6, pc}
 539              		.cfi_endproc
 540              	.LFE12:
 541              		.size	chMBPostAhead, .-chMBPostAhead
 542 002c AFF30080 		.section	.text.chMBPostAheadI,"ax",%progbits
 543              		.align	2
 544              		.p2align 4,,15
 545              		.global	chMBPostAheadI
 546              		.thumb
 547              		.thumb_func
 548              		.type	chMBPostAheadI, %function
 549              	chMBPostAheadI:
 550              	.LFB14:
 551              		.loc 1 274 0
 552              		.cfi_startproc
 553              		@ args = 0, pretend = 0, frame = 0
 554              		@ frame_needed = 0, uses_anonymous_args = 0
 555              	.LVL52:
 556 0000 38B5     		push	{r3, r4, r5, lr}
 557              		.cfi_def_cfa_offset 16
 558              		.cfi_offset 3, -16
 559              		.cfi_offset 4, -12
 560              		.cfi_offset 5, -8
 561              		.cfi_offset 14, -4
 562              		.loc 1 274 0
 563 0002 0446     		mov	r4, r0
 564 0004 0D46     		mov	r5, r1
 565              		.loc 1 276 0
 566 0006 FFF7FEFF 		bl	chDbgCheckClassI
 567              	.LVL53:
 568              		.loc 1 277 0
 569 000a A4B1     		cbz	r4, .L48
ARM GAS  /tmp/ccg55tup.s 			page 11


 570              	.L44:
 571              		.loc 1 279 0
 572 000c 626A     		ldr	r2, [r4, #36]
 573 000e 002A     		cmp	r2, #0
 574 0010 15DD     		ble	.L47
 575              		.loc 1 282 0
 576 0012 E368     		ldr	r3, [r4, #12]
 577 0014 2168     		ldr	r1, [r4]
 578 0016 043B     		subs	r3, r3, #4
 579              		.loc 1 281 0
 580 0018 013A     		subs	r2, r2, #1
 581              		.loc 1 282 0
 582 001a 8B42     		cmp	r3, r1
 583              		.loc 1 281 0
 584 001c 6262     		str	r2, [r4, #36]
 585              		.loc 1 282 0
 586 001e E360     		str	r3, [r4, #12]
 587 0020 02D2     		bcs	.L46
 588              		.loc 1 283 0
 589 0022 6368     		ldr	r3, [r4, #4]
 590 0024 043B     		subs	r3, r3, #4
 591 0026 E360     		str	r3, [r4, #12]
 592              	.L46:
 593              		.loc 1 285 0
 594 0028 04F11000 		add	r0, r4, #16
 595              		.loc 1 284 0
 596 002c 1D60     		str	r5, [r3]
 597              		.loc 1 285 0
 598 002e FFF7FEFF 		bl	chSemSignalI
 599              	.LVL54:
 600              		.loc 1 286 0
 601 0032 0020     		movs	r0, #0
 602 0034 38BD     		pop	{r3, r4, r5, pc}
 603              	.LVL55:
 604              	.L48:
 605              		.loc 1 277 0 discriminator 1
 606 0036 0348     		ldr	r0, .L49
 607 0038 FFF7FEFF 		bl	chDbgPanic
 608              	.LVL56:
 609 003c E6E7     		b	.L44
 610              	.L47:
 611              		.loc 1 280 0
 612 003e 4FF0FF30 		mov	r0, #-1
 613              		.loc 1 287 0
 614 0042 38BD     		pop	{r3, r4, r5, pc}
 615              	.LVL57:
 616              	.L50:
 617              		.align	2
 618              	.L49:
 619 0044 54000000 		.word	.LC5
 620              		.cfi_endproc
 621              	.LFE14:
 622              		.size	chMBPostAheadI, .-chMBPostAheadI
 623 0048 AFF30080 		.section	.text.chMBFetchS,"ax",%progbits
 623      AFF30080 
 624              		.align	2
 625              		.p2align 4,,15
ARM GAS  /tmp/ccg55tup.s 			page 12


 626              		.global	chMBFetchS
 627              		.thumb
 628              		.thumb_func
 629              		.type	chMBFetchS, %function
 630              	chMBFetchS:
 631              	.LFB16:
 632              		.loc 1 336 0
 633              		.cfi_startproc
 634              		@ args = 0, pretend = 0, frame = 0
 635              		@ frame_needed = 0, uses_anonymous_args = 0
 636              	.LVL58:
 637 0000 70B5     		push	{r4, r5, r6, lr}
 638              		.cfi_def_cfa_offset 16
 639              		.cfi_offset 4, -16
 640              		.cfi_offset 5, -12
 641              		.cfi_offset 6, -8
 642              		.cfi_offset 14, -4
 643              		.loc 1 336 0
 644 0002 0446     		mov	r4, r0
 645 0004 0E46     		mov	r6, r1
 646 0006 1546     		mov	r5, r2
 647              		.loc 1 339 0
 648 0008 FFF7FEFF 		bl	chDbgCheckClassS
 649              	.LVL59:
 650              		.loc 1 340 0
 651 000c D4B1     		cbz	r4, .L52
 652              		.loc 1 340 0 is_stmt 0 discriminator 2
 653 000e CEB1     		cbz	r6, .L52
 654              	.L53:
 655              		.loc 1 342 0 is_stmt 1
 656 0010 2946     		mov	r1, r5
 657 0012 04F11000 		add	r0, r4, #16
 658 0016 FFF7FEFF 		bl	chSemWaitTimeoutS
 659              	.LVL60:
 660              		.loc 1 343 0
 661 001a 0546     		mov	r5, r0
 662              	.LVL61:
 663 001c 80B9     		cbnz	r0, .L54
 664              		.loc 1 344 0
 665 001e E368     		ldr	r3, [r4, #12]
 666              		.loc 1 345 0
 667 0020 6268     		ldr	r2, [r4, #4]
 668              		.loc 1 344 0
 669 0022 1968     		ldr	r1, [r3]
 670 0024 0433     		adds	r3, r3, #4
 671              		.loc 1 345 0
 672 0026 9342     		cmp	r3, r2
 673              		.loc 1 344 0
 674 0028 E360     		str	r3, [r4, #12]
 675              		.loc 1 346 0
 676 002a 28BF     		it	cs
 677 002c 2368     		ldrcs	r3, [r4]
 678              		.loc 1 344 0
 679 002e 3160     		str	r1, [r6]
 680              		.loc 1 347 0
 681 0030 04F11C00 		add	r0, r4, #28
 682              	.LVL62:
ARM GAS  /tmp/ccg55tup.s 			page 13


 683              		.loc 1 346 0
 684 0034 28BF     		it	cs
 685 0036 E360     		strcs	r3, [r4, #12]
 686              		.loc 1 347 0
 687 0038 FFF7FEFF 		bl	chSemSignalI
 688              	.LVL63:
 689              		.loc 1 348 0
 690 003c FFF7FEFF 		bl	chSchRescheduleS
 691              	.LVL64:
 692              	.L54:
 693              		.loc 1 351 0
 694 0040 2846     		mov	r0, r5
 695 0042 70BD     		pop	{r4, r5, r6, pc}
 696              	.LVL65:
 697              	.L52:
 698              		.loc 1 340 0 discriminator 1
 699 0044 0148     		ldr	r0, .L59
 700 0046 FFF7FEFF 		bl	chDbgPanic
 701              	.LVL66:
 702 004a E1E7     		b	.L53
 703              	.L60:
 704              		.align	2
 705              	.L59:
 706 004c 68000000 		.word	.LC6
 707              		.cfi_endproc
 708              	.LFE16:
 709              		.size	chMBFetchS, .-chMBFetchS
 710              		.section	.text.chMBFetch,"ax",%progbits
 711              		.align	2
 712              		.p2align 4,,15
 713              		.global	chMBFetch
 714              		.thumb
 715              		.thumb_func
 716              		.type	chMBFetch, %function
 717              	chMBFetch:
 718              	.LFB15:
 719              		.loc 1 308 0
 720              		.cfi_startproc
 721              		@ args = 0, pretend = 0, frame = 0
 722              		@ frame_needed = 0, uses_anonymous_args = 0
 723              	.LVL67:
 724 0000 70B5     		push	{r4, r5, r6, lr}
 725              		.cfi_def_cfa_offset 16
 726              		.cfi_offset 4, -16
 727              		.cfi_offset 5, -12
 728              		.cfi_offset 6, -8
 729              		.cfi_offset 14, -4
 730              	.LBB10:
 731              		.loc 1 311 0
 732 0002 2023     		movs	r3, #32
 733              	.LBE10:
 734              		.loc 1 308 0
 735 0004 0646     		mov	r6, r0
 736 0006 0D46     		mov	r5, r1
 737 0008 1446     		mov	r4, r2
 738              	.LBB11:
 739              		.loc 1 311 0
ARM GAS  /tmp/ccg55tup.s 			page 14


 740              	@ 311 "../../../os/kernel/src/chmboxes.c" 1
 741 000a 83F31188 		msr     BASEPRI, r3
 742              	@ 0 "" 2
 743              		.thumb
 744              	.LBE11:
 745 000e FFF7FEFF 		bl	dbg_check_lock
 746              	.LVL68:
 747              		.loc 1 312 0
 748 0012 2246     		mov	r2, r4
 749 0014 2946     		mov	r1, r5
 750 0016 3046     		mov	r0, r6
 751 0018 FFF7FEFF 		bl	chMBFetchS
 752              	.LVL69:
 753 001c 0446     		mov	r4, r0
 754              	.LVL70:
 755              		.loc 1 313 0
 756 001e FFF7FEFF 		bl	dbg_check_unlock
 757              	.LVL71:
 758              	.LBB12:
 759 0022 0023     		movs	r3, #0
 760              	@ 313 "../../../os/kernel/src/chmboxes.c" 1
 761 0024 83F31188 		msr     BASEPRI, r3
 762              	@ 0 "" 2
 763              		.thumb
 764              	.LBE12:
 765              		.loc 1 315 0
 766 0028 2046     		mov	r0, r4
 767 002a 70BD     		pop	{r4, r5, r6, pc}
 768              		.cfi_endproc
 769              	.LFE15:
 770              		.size	chMBFetch, .-chMBFetch
 771 002c AFF30080 		.section	.text.chMBFetchI,"ax",%progbits
 772              		.align	2
 773              		.p2align 4,,15
 774              		.global	chMBFetchI
 775              		.thumb
 776              		.thumb_func
 777              		.type	chMBFetchI, %function
 778              	chMBFetchI:
 779              	.LFB17:
 780              		.loc 1 367 0
 781              		.cfi_startproc
 782              		@ args = 0, pretend = 0, frame = 0
 783              		@ frame_needed = 0, uses_anonymous_args = 0
 784              	.LVL72:
 785 0000 38B5     		push	{r3, r4, r5, lr}
 786              		.cfi_def_cfa_offset 16
 787              		.cfi_offset 3, -16
 788              		.cfi_offset 4, -12
 789              		.cfi_offset 5, -8
 790              		.cfi_offset 14, -4
 791              		.loc 1 367 0
 792 0002 0446     		mov	r4, r0
 793 0004 0D46     		mov	r5, r1
 794              		.loc 1 369 0
 795 0006 FFF7FEFF 		bl	chDbgCheckClassI
 796              	.LVL73:
ARM GAS  /tmp/ccg55tup.s 			page 15


 797              		.loc 1 370 0
 798 000a B4B1     		cbz	r4, .L63
 799              		.loc 1 370 0 is_stmt 0 discriminator 2
 800 000c ADB1     		cbz	r5, .L63
 801              	.L64:
 802              		.loc 1 372 0 is_stmt 1
 803 000e A369     		ldr	r3, [r4, #24]
 804 0010 002B     		cmp	r3, #0
 805 0012 16DD     		ble	.L67
 806              		.loc 1 374 0
 807 0014 5A1E     		subs	r2, r3, #1
 808              		.loc 1 375 0
 809 0016 E368     		ldr	r3, [r4, #12]
 810              		.loc 1 374 0
 811 0018 A261     		str	r2, [r4, #24]
 812              		.loc 1 376 0
 813 001a 6268     		ldr	r2, [r4, #4]
 814              		.loc 1 375 0
 815 001c 1968     		ldr	r1, [r3]
 816 001e 0433     		adds	r3, r3, #4
 817              		.loc 1 376 0
 818 0020 9342     		cmp	r3, r2
 819              		.loc 1 375 0
 820 0022 E360     		str	r3, [r4, #12]
 821              		.loc 1 377 0
 822 0024 28BF     		it	cs
 823 0026 2368     		ldrcs	r3, [r4]
 824              		.loc 1 375 0
 825 0028 2960     		str	r1, [r5]
 826              		.loc 1 378 0
 827 002a 04F11C00 		add	r0, r4, #28
 828              		.loc 1 377 0
 829 002e 28BF     		it	cs
 830 0030 E360     		strcs	r3, [r4, #12]
 831              		.loc 1 378 0
 832 0032 FFF7FEFF 		bl	chSemSignalI
 833              	.LVL74:
 834              		.loc 1 379 0
 835 0036 0020     		movs	r0, #0
 836 0038 38BD     		pop	{r3, r4, r5, pc}
 837              	.LVL75:
 838              	.L63:
 839              		.loc 1 370 0 discriminator 1
 840 003a 0348     		ldr	r0, .L71
 841 003c FFF7FEFF 		bl	chDbgPanic
 842              	.LVL76:
 843 0040 E5E7     		b	.L64
 844              	.L67:
 845              		.loc 1 373 0
 846 0042 4FF0FF30 		mov	r0, #-1
 847              		.loc 1 380 0
 848 0046 38BD     		pop	{r3, r4, r5, pc}
 849              	.LVL77:
 850              	.L72:
 851              		.align	2
 852              	.L71:
 853 0048 78000000 		.word	.LC7
ARM GAS  /tmp/ccg55tup.s 			page 16


 854              		.cfi_endproc
 855              	.LFE17:
 856              		.size	chMBFetchI, .-chMBFetchI
 857 004c AFF30080 		.section	.rodata.str1.4,"aMS",%progbits,1
 858              		.align	2
 859              	.LC0:
 860 0000 2263684D 		.ascii	"\"chMBInit\"()\000"
 860      42496E69 
 860      74222829 
 860      00
 861 000d 000000   		.space	3
 862              	.LC1:
 863 0010 2263684D 		.ascii	"\"chMBReset\"()\000"
 863      42526573 
 863      65742228 
 863      2900
 864 001e 0000     		.space	2
 865              	.LC2:
 866 0020 2263684D 		.ascii	"\"chMBPostS\"()\000"
 866      42506F73 
 866      74532228 
 866      2900
 867 002e 0000     		.space	2
 868              	.LC3:
 869 0030 2263684D 		.ascii	"\"chMBPostI\"()\000"
 869      42506F73 
 869      74492228 
 869      2900
 870 003e 0000     		.space	2
 871              	.LC4:
 872 0040 2263684D 		.ascii	"\"chMBPostAheadS\"()\000"
 872      42506F73 
 872      74416865 
 872      61645322 
 872      282900
 873 0053 00       		.space	1
 874              	.LC5:
 875 0054 2263684D 		.ascii	"\"chMBPostAheadI\"()\000"
 875      42506F73 
 875      74416865 
 875      61644922 
 875      282900
 876 0067 00       		.space	1
 877              	.LC6:
 878 0068 2263684D 		.ascii	"\"chMBFetchS\"()\000"
 878      42466574 
 878      63685322 
 878      282900
 879 0077 00       		.space	1
 880              	.LC7:
 881 0078 2263684D 		.ascii	"\"chMBFetchI\"()\000"
 881      42466574 
 881      63684922 
 881      282900
 882 0087 00       		.text
 883              	.Letext0:
 884              		.file 2 "/homes/msunkara/ASE-praticle-folder/gcc-arm-embedded/gcc-arm-none-eabi-4_8-2014q/arm-none
ARM GAS  /tmp/ccg55tup.s 			page 17


 885              		.file 3 "/homes/msunkara/ASE-praticle-folder/gcc-arm-embedded/gcc-arm-none-eabi-4_8-2014q/arm-none
 886              		.file 4 "../../../os/ports/GCC/ARMCMx/chtypes.h"
 887              		.file 5 "../../../os/kernel/include/chlists.h"
 888              		.file 6 "../../../os/kernel/include/chthreads.h"
 889              		.file 7 "../../../os/ports/GCC/ARMCMx/chcore_v7m.h"
 890              		.file 8 "../../../os/kernel/include/chsem.h"
 891              		.file 9 "../../../os/kernel/include/chmtx.h"
 892              		.file 10 "../../../os/kernel/include/chmboxes.h"
 893              		.file 11 "../../../os/kernel/include/chdebug.h"
 894              		.file 12 "../../../os/kernel/include/chschd.h"
